:020000040002F8
:10300000A88900204D3302005533020057330200D7
:10301000593302005B3302005D3302000000000000
:103020000000000000000000000000005F3302000C
:1030300061330200000000006333020065330200C8
:103040002558020067330200495E0200F95A020067
:10305000095B020067330200A53C020067330200EF
:1030600067330200673302006733020067330200F0
:1030700067330200673302006733020067330200E0
:10308000673302007D580200673302006733020095
:10309000515B020067330200555B02006733020098
:1030A00067330200673302006733020067330200B0
:1030B00067330200673302000000000000000000D8
:1030C0006733020067330200673302006733020090
:1030D000A1580200673302006733020000000000BD
:1030E00000000000000000000000000000000000E0
:1030F00000000000000000000000000000000000D0
:1031000000000000000000000000000000000000BF
:1031100000000000000000000000000000000000AF
:10312000000000000000000000000000000000009F
:10313000000000000000000000000000000000008F
:10314000000000000000000000000000000000007F
:10315000000000000000000000000000000000006F
:10316000000000000000000000000000000000005F
:10317000000000000000000000000000000000004F
:10318000000000000000000000000000000000003F
:10319000000000000000000000000000000000002F
:1031A000000000000000000000000000000000001F
:1031B000000000000000000000000000000000000F
:1031C00000000000000000000000000000000000FF
:1031D00000000000000000000000000000000000EF
:1031E00000000000000000000000000000000000DF
:1031F00000000000000000000000000000000000CF
:10320000DFF80CD000F09CFC00480047199D02003C
:10321000A889002030B4044654E8000F0D4644E865
:103220000053002BF8D1156030BC704730B4044611
:1032300054E8000F40EA010544E80053002BF7D1A1
:10324000156030BC704730B4044654E8000F00EA03
:10325000010544E80053002BF7D1156030BC7047DE
:1032600030B4044654E8000F80EA010544E80053F6
:10327000002BF7D1156030BC704730B4044654E8D9
:10328000000F00EB010544E80053002BF7D1156057
:1032900030BC704730B4044654E8000FA0EB010581
:1032A00044E80053002BF7D1156030BC7047000094
:1032B00030B4044654E8000F0D4644E80053002B98
:1032C000F8D1156030BC704730B4044654E8000FA4
:1032D00040EA010544E80053002BF7D1156030BCEB
:1032E000704730B4044654E8000F00EA010544E892
:1032F0000053002BF7D1156030BC704730B4044642
:1033000054E8000F80EA010544E80053002BF7D190
:10331000156030BC704730B4044654E8000F00EB31
:10332000010544E80053002BF7D1156030BC70470D
:1033300030B4044654E8000FA0EB010544E8005304
:10334000002BF7D1156030BC70470000064880475D
:1033500006480047FEE7FEE7FEE7FEE7FEE7FEE77A
:10336000FEE7FEE7FEE7FEE7595B020001320200DE
:103370002DE9F05F0546002092469B4688460646AA
:10338000814640241BE0284641464746224600F03D
:10339000D0FA53465A46C01A914110D311461846E6
:1033A000224600F0B7FA2D1A67EB01084F46224675
:1033B0000120002100F0AEFA17EB00094E41201E5B
:1033C000A4F10104DFDC484631462A464346BDE805
:1033D000F09F000000487047F4E5020040EA010356
:1033E0009B0703D009E008C9121F08C0042AFAD2BB
:1033F00003E011F8013B00F8013B521EF9D270477F
:10340000D2B201E000F8012B491EFBD27047002226
:10341000F6E710B513460A4604461946FFF7F0FFD3
:10342000204610BD30B505462A460B4612F8010B62
:1034300013F8014B08B1A042F8D01CB1002802D00B
:103440006D1CF1E7284630BD421C10F8011B002915
:10345000FBD1801A7047034611F8012B00F8012BAD
:10346000002AF9D11846704730B5054600200346BA
:1034700000E05B1C934205D2EC5CC85C201A01D1D1
:10348000002CF6D130BD70B5064602F093FE0468FC
:1034900005460A220021304600F06DFA2C6070BD0E
:1034A0002DE9FE4F804681EA0300C00F0C460090D4
:1034B00021F0004123F00045B8EB0200A94105D2FC
:1034C0004046214690461C460B46024623F00040EB
:1034D000104347D0270DC7F30A00C3F30A510290E7
:1034E000401A019040286BDAC3F3130040F4801BAC
:1034F0000098924620B10023D2EB030A63EB0B0B3A
:1035000001985946C0F14002504600F003FA0646C1
:103510000D4650465946019A00F01BFA10EB080080
:103520006141002487EA115284EAE7731A4340D0CC
:10353000009A62B3019A012A4FEA075215DC001B78
:1035400061EB02014FF0004202EA0752CDE900426E
:10355000001C41F5801132462B4600F08AFA03B078
:10356000BDE8F08F40462146F9E7001B61EB020100
:10357000001C41F5801300185B412018A2F50017CC
:1035800047EB030140EAD570B6196D4111E06D08B3
:103590004FEA360645EAC0754FEA0752001B61EB59
:1035A0000201001C41F5801149084FEA3000001962
:1035B000514132462B4603B0BDE8F04F00F04ABA05
:1035C0000098012240000023D0EB020263EBE0737D
:1035D000009821464FEAE074B8EB000061EB04016B
:1035E000E9E783F000435BE781F0004158E72DE90C
:1035F000FE4F81EA030404F0004421F000410094EE
:103600004FF0000B23F0004350EA01045ED052EA71
:1036100003045BD0C3F30A54C1F30A552C44A4F24B
:10362000F3340194A0FB0254C1F3130141F480115F
:10363000C3F3130343F4801301FB024400FB034E66
:10364000840A970A44EA815447EA8357A4FB07682F
:1036500002958D0A05FB07854FEA932C04FB0C5459
:103660002705029D4FEA065847EA1637B5EB0805CD
:103670006EEB070C870E920E47EA811742EA83121F
:10368000A7FB0201B6EB0B0164EB00042B0D43EA30
:103690000C335E1844EB1C50DA465146E7FB02013E
:1036A000C5F313044FEA0B3343EA14534FEA0432D1
:1036B000019C43EA0603A4F10C040294009CCDE9AA
:1036C00000B400F0D6F903B0BDE8F08F0020014649
:1036D000F9E72DE9F04D81EA030404F0004B21F0F5
:1036E000004514464FF0000A23F0004150EA05025D
:1036F00020D054EA01021DD0C5F30A570246C5F393
:103700001303C1F31300C1F30A5640F4801543F4C8
:103710008013A7EB0608101BD64608F2FD3873EBA2
:10372000050002D308F1010801E092185B41B8F1ED
:10373000000F03DA00200146BDE8F08D00204FF4B1
:103740008011064684460EE0171B73EB050705D370
:10375000121B63EB050306434CEA010C49084FEAD0
:10376000300092185B4150EA0107EDD152EA0300A4
:1037700012D082EA040083EA0501084305D0101B39
:10378000AB4106D20122002306E000224FF00043A5
:1037900002E06FF0010253101AEB06004CEB0851E7
:1037A00010EB0A0041EB0B01BDE8F04D00F052B9FF
:1037B0000EB5C10F80EAE0700844CA07002140F24C
:1037C00033438DE80E000A460B4600F052F903B071
:1037D00000BD0EB540F2334102910021CDE9001148
:1037E0000A460B4600F045F903B000BD70B5C1F3C1
:1037F0000A5201F000450024C1F3130140F2FF33E7
:1038000041F480119A4201DA002070BD40F2334346
:103810009A42A2F2334203DC524200F08AF800E0FE
:1038200090402C43F1D0404270BD00F0004230F097
:1038300000400AD0C10D01F56071C0F3160042EAE4
:103840000151C208400711437047002001467047EC
:1038500030B5041E71F1000404DB4FF00044404217
:1038600064EB0101141E73F1000405DB1C464FF0EC
:103870000043524263EB04038B4208BF824230BDD7
:1038800030B5041E71F1000404DB4FF000444042E7
:1038900064EB0101141E73F1000405DB1C464FF0BC
:1038A0000043524263EB0403994208BF904230BD8B
:1038B00001F0004330B421F0004150EA010206D08B
:1038C0000A0DA2F56072C1F31301002A02DC30BCBC
:1038D00000207047440F44EAC104C100E01830BC26
:1038E00000EBC25000F07FB830B50B460146002017
:1038F0002022012409E021FA02F59D4205D303FAB2
:1039000002F5491B04FA02F52844151EA2F1010232
:10391000F1DC30BD202A04DB203A00FA02F100205D
:1039200070479140C2F1200320FA03F319439040FD
:103930007047202A04DB203A21FA02F00021704768
:1039400021FA02F3D040C2F1200291400843194607
:103950007047202A06DBCB17203A41FA02F043EAEF
:10396000E07306E041FA02F3D040C2F12002914038
:103970000843194670472DE9F04791460F468046A7
:103980000446002614F8015B2DB1FFF723FD006803
:10399000405DC007F6D12B2D02D02D2D18D0641E0E
:1039A0004A463946204600F0DDF827B13968A14281
:1039B00001D1C7F8008071054FF002040BD54042D9
:1039C000002803DD02F0F6FB0460A007BDE8F087E5
:1039D00046F48066E4E70028F8DA02F0EBFB0460C6
:1039E0006FF00040F2E70029A8BF7047401C490073
:1039F00008BF20F00100704710B4B0FA80FC00FA54
:103A00000CF050EA010404BF10BC704749B1CCF17E
:103A1000200421FA04F411FA0CF118BF012121430A
:103A20000843A3EB0C01CB1D4FEA00614FEA1020C5
:103A300042BF002010BC704700EBC3501044002967
:103A4000A4BF10BC7047401C490008BF20F0010013
:103A500010BC704710B5141E73F1000408DA401C46
:103A600041F1000192185B411A4301D120F001009D
:103A700010BD2DE9F04D92469B4611B1B1FA81F28D
:103A800002E0B0FA80F220329046FFF743FF04468E
:103A90000F4640EA0A0041EA0B0153465A460843E2
:103AA00013D0114653EA010019D0C8F14002504624
:103AB000FFF73FFF05460E46504659464246FFF780
:103AC00029FF084305D0012004E020463946BDE81F
:103AD000F08D0020054346EAE0762C4337430A98F0
:103AE0006305E40AA0EB08000022FD0A44EA4754FB
:103AF0000A3002D500200146E9E7010510196941A5
:103B0000DDE9084500196941BDE8F04DA2E7C1F3C0
:103B10000A52C1F3130140F2FF3341F480119A427B
:103B200002DA00200146704740F233439A42A2F283
:103B3000334202DC5242FFF7FCBEFFF7EBBE00004F
:103B4000064C074D06E0E06840F0010394E80700EA
:103B500098471034AC42F6D3FFF756FB34EE020020
:103B600054EE02002DE9F05F8246007800271546EA
:103B70008B460AF10104B946302801D09DB113E00B
:103B800014F8010B0127782803D0582801D045B13B
:103B90000AE00DB1102D07D10027102514F8010BF4
:103BA00002E0082500E00A250026B0460EE005FBED
:103BB000080005FB06F1012701EB10461FFA80F80B
:103BC000B6F5803F00D3B94614F8010B294600F042
:103BD0002FF80028EBDABBF1000F05D00FB1641EFF
:103BE00000E05446CBF80040B9F1000F06D002F0D7
:103BF000E1FA02210160C81EBDE8F09F48EA0640D4
:103C0000FAE770B521F0004303430CD0C1F30A5525
:103C10000024D5EB040564EB0403D617AD1AB341B9
:103C200002DB0020014670BD201841EB025170BD3F
:103C30003A2800D2303820F02002412A01D3A2F1E4
:103C40003700884201D34FF0FF30704770B58C18B1
:103C500010F8015B15F0070301D110F8013B2A11A0
:103C600006D110F8012B03E010F8016B01F8016B8D
:103C70005B1EF9D12B0705D40023521E0DD401F889
:103C8000013BFAE710F8013BCB1A921C03E013F852
:103C9000015B01F8015B521EF9D5A142D8D3002087
:103CA00070BD00002DE9F04700268CB0DFF8609170
:103CB000B0464FF48075012437460696284607F033
:103CC0008FFC38B1D9F80403204203D0284607F00E
:103CD0007DFC26432D1D64007F1CADB2082FEDD363
:103CE0004FF4BE74204607F07BFC48B1204607F035
:103CF0006DFC46F0004606AA0121002007F052FCA8
:103D0000444D16F0FF0F15D00127002437420DD087
:103D100009EB8401D1F81005D1F81015C0F3042087
:103D200055F82420C1F3014102B190477F00641C83
:103D3000082CEBD3002E67DA4FF0FF30CDE9088076
:103D400000263446281910F8507F90F9000027F01B
:103D5000C008401C44D009A9404606F018FA58B3E0
:103D60004FEA9719404604F037FE55F820701FB10E
:103D7000B9F1030F03D00FE0B9F1030F30D108A858
:103D80004FEAD80208F00703815C4FF0010C0CFAEF
:103D900003FC41EA0C0181544FF0A04101EB880083
:103DA000D0F8000706A9C0F3014A404606F0EFF933
:103DB00018B1BAF1020F03D012E0BAF1030F0FD11C
:103DC000B9F1030F08D1BAF1020F1BD0022140460E
:103DD00007F09DFB761CF6B217B149464046B8473E
:103DE000641C042CAED3002E0ED06A4601210020A4
:103DF00007F0D8FB06990098884205D006900898ED
:103E000009909DE70321E2E70CB0BDE8F0870000D0
:103E1000006000408C3F00202DE9F0410F4606462F
:103E2000002509E0705D03F0E3FB040003D0112CD2
:103E3000F8D003F09DFA6D1CBD42F3D32046BDE8D7
:103E4000F081000070B58A4C00202DED108B2118F8
:103E5000401C0A28CA7C02F00F02CA74F7DB207DDE
:103E6000FFF7B7FC41EC190BE07CFFF7B2FC9FEDCC
:103E7000818B53EC182BFFF7BAFB53EC192BFFF790
:103E80000FFB41EC1B0BA07DFFF7A3FC41EC190BD2
:103E9000607DFFF79EFC53EC182BFFF7A8FB53EC5B
:103EA000192BFFF7FDFA41EC1C0BE07EFFF791FCAC
:103EB00041EC1A0BA07EFFF78CFC53EC182BFFF79C
:103EC00096FB41EC1F0B607EFFF783FC9FED6B9B25
:103ED00053EC192BFFF78BFB41EC1E0B207EFFF7F9
:103EE00078FC9FED68DB53EC1D2BFFF780FB53EC58
:103EF0001E2BFFF7D5FA53EC1F2BFFF7D1FA53EC2B
:103F00001A2BFFF7CDFA9FED61EB53EC1E2BFFF759
:103F10006EFB53EC1C2BFFF7C3FA9FED5EAB53EC2B
:103F20001A2BFFF7D6FB53EC1B2BFFF7B9FA5B4DAF
:103F300041EC100B85ED060B607F532805D151EC49
:103F4000100B81F00041C5E9060100202118401C3A
:103F5000CA7F0A2802F00F02CA77F7DB94F8210023
:103F60001F34FFF736FC41EC1B0B6078FFF731FC88
:103F700053EC182BFFF73BFB41EC1C0B2078FFF7B1
:103F800028FC53EC192BFFF732FB53EC1C2BFFF7EB
:103F900087FA53EC1B2BFFF783FA41EC1B0B2079BC
:103FA000FFF717FC41EC1C0BE078FFF712FC53EC19
:103FB000182BFFF71CFB53EC1C2BFFF771FA41EC9D
:103FC0001C0BE079FFF705FC53EC192BFFF70FFBF7
:103FD00041EC190BA079FFF7FCFB53EC1D2BFFF70D
:103FE00006FB53EC192BFFF75BFA41EC190B607AD7
:103FF000FFF7EFFB41EC1D0B207AFFF7EAFB53ECD8
:10400000182BFFF7F4FA53EC1D2BFFF749FA41EC9C
:10401000100B51EC190B53EC102BFFF741FA53EC3A
:104020001E2BFFF7E4FA53EC1A2BFFF752FB41EC7F
:10403000180B53EC1A2B51EC1C0BFFF74AFB53ECFB
:104040001B2BFFF72DFA53EC182BFFF729FA41EC45
:10405000100B85ED080BE07A572805D151EC100BB9
:1040600081F00041C5E90801BDEC108B70BD000076
:104070002038002000000000000024400000000064
:10408000000059400000000000408F402D431CEB11
:10409000E2361A3F0000000000004E407827002062
:1040A00010B52D4C2DED0A8B9FED258B94ED060B55
:1040B0009FED1FCB9FED209B9FED23AB9FED24BB7E
:1040C00053EC182B51EC100BFFF7DAFB02D853EC32
:1040D0001A2B01E053EC1B2B94ED060B51EC100B4B
:1040E000FFF785FA53EC1C2BFFF7F3FAFFF77EFB83
:1040F000606094ED080B53EC182B51EC100BFFF79C
:10410000BFFB02D853EC1A2B01E053EC1B2B94EDB0
:10411000080B51EC100BFFF76AFA53EC192BFFF761
:10412000D8FAFFF763FBA060BDEC0A8B10BD00005E
:104130000000000000805640000000000080664043
:104140000000000000000000000000C0FFFF5F4111
:1041500000000000000060417827002070B50522B3
:1041600011491248FFF780F9104D114C38B10E4932
:104170000522891D2846FFF777F988B10AE095F8EE
:104180002C00302801D9012000E00020FFF721FB9E
:10419000C4E90401FFF756FEBDE87040FFF780BF99
:1041A000687C4128F1D1EEE78CE202002038002043
:1041B000782700202DE9F0410E4C9FED0F0B0E46A5
:1041C00053EC102B94ED040B0746002551EC100B1B
:1041D000FFF73EFB01D1012501E000F0BFFA94EDAD
:1041E000060B284687ED000B94ED080B86ED000BBF
:1041F000BDE8F08178270020000000000000F03FBB
:1042000002490020087000F003B800007827002061
:10421000064810B5002101700121817000F0B2FA4A
:1042200000F0BAFABDE8104000F048B8A02700201E
:1042300038B5684603F068F900282DD19DF80000D4
:104240000025164C242802D021787F2900D3257020
:10425000134A21785054491CC9B221700A281BD135
:104260005554491CC9B22170104600F069F86078B5
:10427000401CC0B260701E280ED9657009A405F0FC
:10428000CFF90246234609A1002001F05FFB044A52
:1042900009A1002001F05AFB38BD0000A027002032
:1042A00083380020494E464F000000005B25645DC6
:1042B000205B25735D3A20002573000010B50021B6
:1042C0000A2007F04EF90A4806F0C6F801210A2034
:1042D00007F047F900211F2007F043F9054806F0D1
:1042E000BBF80121BDE810401F2007F03AB90000DB
:1042F00040420F0080841E0070B5002416462546FB
:10430000631E60B15EB1012909DD0278242A08D15B
:10431000012406E06A40641CD5B28C4201DB1846D9
:1043200070BD02572A2AF5D1280901F070FA3070C1
:1043300005F00F0001F06BFA7070601C70BD00009A
:10434000F8B50546007801240026242815D10F462B
:104350006A462846FFF7D0FF00280EDBBF1EB84292
:104360000BDA29569DF900209142EFD128449DF99E
:10437000011090F90100884202D0E9E1062EFCD834
:10438000A019761C285CF6B22C28F7D10020F14F3A
:1043900005E0295D3954401C641CC0B2E4B2B0424F
:1043A000F7D30522EC49EB48FFF75EF850B1EA4934
:1043B0000522891DE748FFF757F8002874D0C7E1A8
:1043C0000B28DAD82118401C695CC0B22C29F7D11F
:1043D000002106E07B182A5D491C641C9A71C9B251
:1043E000E4B28142F6D3002001E00A28C5D82118A2
:1043F000401C695CC0B22C29F7D1002106E07B1873
:104400002A5D491C641CDA74C9B2E4B28142F6D355
:10441000002001E00228B0D82118401C695CC0B21D
:104420002C29F7D1002106E07B182A5D491C641C69
:104430005A77C9B2E4B28142F6D3002001E00B28DA
:104440009BD82118401C695CC0B22C29F7D10021EF
:1044500006E07B182A5D491C641CDA77C9B2E4B215
:104460008142F6D3002001E0022886D82118401CA2
:10447000695CC0B22C29F7D1002107E07B182A5DC6
:10448000491C641C83F82A20C9B2E4B28142F5D3E6
:10449000002001E0022892D82118401C695CC0B2BB
:1044A0002C29F7D1002108E090E07B182A5D491CF7
:1044B000641C83F82C20C9B2E4B28142F5D30020F9
:1044C00001E0032892D82118401C695CC0B22C2955
:1044D000F7D1002107E07B182A5D491C641C83F892
:1044E0002E20C9B2E4B28142F5D3002001E00628B3
:1044F00091D82118401C695CC0B22C29F7D1002149
:1045000007E07B182A5D491C641C83F83120C9B27E
:10451000E4B28142F5D3002001E0082890D82118A8
:10452000401C695CC0B22C29F7D1002107E07B1840
:104530002A5D491C641C83F83720C9B2E4B2814269
:10454000F5D3002001E002288FD82118401C695CB7
:10455000C0B22C29F7D1002107E07B182A5D491C45
:10456000641C83F83F20C9B2E4B28142F5D3002035
:1045700001E0082871D82118401C695CC0B22C29C0
:10458000F7D1002107E07B182A5D491C641C83F8E1
:104590004120C9B2E4B28142F5D3002001E00228F3
:1045A0005BD82118401C695CC0B22C29F7D10021CE
:1045B00007E07B182A5D491C641C83F84920C9B2B6
:1045C000E4B28142F5D3BFE00B2846D82118401C45
:1045D000695CC0B22C29F7D1002106E07B182A5D66
:1045E000491C641C9A71C9B2E4B28142F6D300201E
:1045F00001E0022831D82118401C695CC0B22C2986
:10460000F7D1002106E07B182A5D491C641C5A740E
:10461000C9B2E4B28142F6D3002001E00A281CD8D6
:104620002118401C695CC0B22C29F7D1002106E09A
:104630007B182A5D491C641CDA74C9B2E4B2814259
:10464000F6D3002001E0022807D82118401C695C3D
:10465000C0B22C29F7D1002107E079E07B182A5D50
:10466000491C641C5A77C9B2E4B28142F6D30020D7
:1046700001E00B286CD82118401C695CC0B22C29C1
:10468000F7D1002106E07B182A5D491C641CDA770B
:10469000C9B2E4B28142F6D3002001E0022857D823
:1046A0002118401C695CC0B22C29F7D1002107E019
:1046B0007B182A5D491C641C83F82A20C9B2E4B225
:1046C0008142F5D3002001E0082841D82118401C80
:1046D000695CC0B22C29F7D1002107E07B182A5D64
:1046E000491C641C83F84B20C9B2E4B28142F5D363
:1046F000002001E008282BD82118401C695CC0B2BA
:104700002C29F7D1002107E07B182A5D491C641C85
:1047100083F85320C9B2E4B28142F5D3002001E00E
:10472000082815D82118401C695CC0B22C29F7D183
:10473000002107E07B182A5D491C641C83F85B207C
:10474000C9B2E4B28142F5D3FFF708FD0120F8BDFC
:104750000020F8BD203800208CE2020006484FF00F
:10476000FF319FED060B418080ED060B80ED080BBD
:104770000021416081607047782700200000000020
:104780000000000010B50A2006F094FEBDE81040BD
:104790001F2006F08FBE000010B5114C8AB02078A3
:1047A00003281AD002F0A8FE18220E496846FEF728
:1047B00015FEE01C0690012007900B4808904FF46E
:1047C000807009900623094A06A9684602F0B6FEE1
:1047D00008B102F0CDFD032020700AB010BD00002A
:1047E000A3270020D8E20200033B0020CDDC02001A
:1047F0002DE9F041042005F01DFA044604F010FFF5
:10480000024623466FA1002001F0A0F870A100200D
:1048100001F09CF800F07CF9042005F00BFA044646
:1048200004F0FEFE0246234666A1002001F08EF849
:104830006CA1002001F08AF8002000F0D1FD0420D6
:1048400005F0F8F9044604F0EBFE024623465DA1AC
:10485000002001F07BF866A1002001F077F8002429
:10486000661E4FF47A7713E0384604F08FFC641C20
:104870003C2C0DDD022005F0DDF9044604F0D0FEED
:10488000024623464FA1002001F060F85DA153E0ED
:1048900000F006FA0028E7DB042005F0CBF9044617
:1048A00004F0BEFE0246234646A1002001F04EF869
:1048B0005BA1002001F04AF800253C4613E02046A9
:1048C00004F064FC6D1C3C2D0DDD022005F0B2F9F6
:1048D000044604F0A5FE024623463AA1002001F05A
:1048E00035F853A128E000F091F90028E7DB042017
:1048F00005F0A0F9054604F093FE02462B4631A1CF
:10490000002001F023F850A1002001F01FF800253D
:1049100018E0204604F03AFC6D1C3C2D12DD02200C
:1049200005F088F9044604F07BFE0246234625A1E3
:10493000002001F00BF848A1002001F007F83046F4
:10494000BDE8F08100F026F90028E2DB042005F044
:1049500071F9044604F064FE0246234619A10020C2
:1049600000F0F4FF42A1002000F0F0FF00F0D8FCBE
:1049700000F006FD00F0A8FC042005F05BF90446F9
:1049800004F04EFE024623460EA1002000F0DEFF9A
:104990003BA1002000F0DAFF00F01CFA05460420DD
:1049A00005F048F9044604F03BFE0246234605A103
:1049B000002000F0CBFF2A4638A1002000F0C6FFFF
:1049C0000020BDE75B25645D205B25735D3A200018
:1049D000636865636B206175746F20626175640D37
:1049E0000A000000736574206563686F0D0A00009B
:1049F000636865636B2073696D20636172640D0A7F
:104A000000000000636865636B2073696D2063615B
:104A100072642074696D656F75740D0A0000000082
:104A2000636865636B206E6574776F726B0D0A0047
:104A3000636865636B206E6574776F726B20746951
:104A40006D656F75740D0A00636865636B20475070
:104A500052530D0A00000000636865636B204750E5
:104A600052532074696D656F75740D0A0000000063
:104A700073657420636F6E7465787420300D0A005E
:104A8000636865636B2047534D204E6574776F7282
:104A90006B206F6B21210D0A000000007273736997
:104AA0003D25640D0A0000002DE9F0414FF0FF356F
:104AB0000A24402005F0F6F907001FD04021FEF738
:104AC000A6FC10A210A1384601F048FB00F0FF0838
:104AD0004FF4FA7641463846FFF79EF900223146F8
:104AE000104600F0D1FC0546304604F04FFB641E32
:104AF0000DB1002CEEDC384604F0D8FB2846BDE8AA
:104B0000F08100004154000025730D0A00000000F0
:104B10002DE9F04300254FF4487791B001262C464B
:104B2000384604F033FB40216846FEF770FCB94676
:104B3000E8464FF47A7700BF00F070FB002805DCF0
:104B4000641CA4B2022004F021FB11E0402D03D22A
:104B500008F805006D1CEDB2032D09D9012E07D10F
:104B60000AA16846FEF75EFC10B100264C46E3E75A
:104B7000BC42E1D3012E05D1FFF796FF4FF4E1309F
:104B800000F0F8F811B0BDE8F08300005244590D70
:104B90000A00000070B54FF0FF352C46402005F0AC
:104BA00081F9060020D04021FEF731FC0FA212A1AE
:104BB000304601F0D3FAC1B23046FFF72DF940215B
:104BC0003046FEF724FC01224FF4FA71304600F023
:104BD0005BFC040005D40AA13046FEF723FC00B9B3
:104BE0002C46304604F062FB204670BD41542B43F6
:104BF000474154543F00000025730D0A0000000097
:104C00002B43474154543A203100000070B54FF017
:104C1000FF352C46402005F045F9060027D04021FD
:104C2000FEF7F5FB13A216A1304601F097FAC1B2C8
:104C30003046FFF7F1F840213046FEF7E8FB01224D
:104C40004FF4FA71304600F01FFC04000CD40EA1A2
:104C50003046FEF7E7FB20B90EA13046FEF7E2FB37
:104C600008B1002400E02C46304604F01FFB20462B
:104C700070BD000041542B435245473F00000000E7
:104C800025730D0A000000002B435245473A20309F
:104C90002C3100002B435245473A20302C35000080
:104CA00070B54FF0FF352C46402005F0FBF80600AC
:104CB00022D04021FEF7ABFB10A213A1304601F039
:104CC0004DFAC1B23046FFF7A7F840213046FEF753
:104CD0009EFB01224FF4FA71304600F0D5FB040030
:104CE00007D40BA13046FEF79DFB08B1002400E07D
:104CF0002C46304604F0DAFA204670BD41542B436E
:104D000050494E3F0000000025730D0A00000000CE
:104D10002B4350494E3A205245414459000000006F
:104D200070B54FF0FF34402005F0BCF8050015D0F9
:104D30004021FEF76CFB0AA20CA1284601F00EFAF6
:104D4000C1B22846FFF768F801224FF4FA7100203B
:104D500000F09AFB0446284604F0A8FA204670BDED
:104D600041542B5149434C4F5345000025730D0AC4
:104D700000000000F8B506464FF0FF34402005F073
:104D800091F8050018D04021FEF741FB0BA00090E0
:104D900033460BA20CA1284601F0E0F9C1B2284627
:104DA000FFF73AF801224FF4FA71002000F06CFB93
:104DB0000446284604F07AFA2046F8BD265700003B
:104DC00041542B4950523D002573256425730D0A2B
:104DD0000000000070B54FF0FF363446402005F06B
:104DE00061F8050039D04021FEF711FB1CA21EA17D
:104DF000284601F0B3F9C1B22846FFF70DF840216B
:104E00002846FEF704FB01224FF4FA71284600F011
:104E10003BFB04001ED416A12846FEF703FB80B11D
:104E200005F10800FEF72FFB04000CD0012C0CD07C
:104E3000A01E1C280BD8A41E60426D2101EB40046B
:104E400008E0344606E0352404E06F2402E01F2C1D
:104E500000DB3324284604F029FA204670BD000008
:104E600041542B435351000025730D0A00000000EC
:104E70002B4353513A20000010B5062006F01AFBD0
:104E80000E2006F017FBBDE810400F2006F012BB05
:104E9000F8B50E4607464FF0FF3540F6BB3237A156
:104EA000002000F00FF910B1FFF73AFF5EE04FF479
:104EB000807004F0F7FF040048D030A334A23649D4
:104EC000009601F04BF981B2204600F0C1F90820AC
:104ED00004F0B0FE054604F0A3FB02462B462FA1CA
:104EE000002000F033FD22462FA1002000F02EFD0F
:104EF0003146384600F0ACF90646082004F09AFE28
:104F0000054604F08DFB02462B4624A1002000F04C
:104F10001DFD3A4624A1002000F018FD002E27DADE
:104F2000012004F087FE054604F07AFB02462B467A
:104F30001AA1002000F00AFD1CA1002000F006FDCF
:104F4000204604F0B3F9FFF7EBFE14E0042004F070
:104F500071FE044604F064FB024623460FA10020C4
:104F600000F0F4FC18A1002000F0F0FC2846F8BD89
:104F7000204604F09BF93046F8BD0000747261636E
:104F80006B2E76697A6973656E732E636F6D0000A0
:104F900069747261636B000050E602005B25645D1A
:104FA000205B25735D3A20002573000047736D5F19
:104FB00048747470506F73742073656E64206661FA
:104FC000696C2E2E2E0D0A000D0A2D2D2D2D2D680B
:104FD0007474705F627566206D616C6C6F632032F3
:104FE0003536206661696C2121212D2D2D2D2D0D49
:104FF0000A0000002DE9F0414FF0FF374FF48060C8
:1050000004F050FF05001ED041F2883100F0CCF8CA
:10501000040010D0082004F00DFE064604F000FB4A
:105020000246334610A1002000F090FC224611A158
:10503000002000F08BFC284604F038F9FFF770FEE2
:105040003846BDE8F081042004F0F4FD044604F085
:10505000E7FA0246234604A1002000F077FC0DA1E8
:10506000002000F073FCEBE75B25645D205B25739B
:105070005D3A200047736D5F4874747052737020FE
:10508000726573706F6E7365206C656E3D25640D7F
:105090000A0000000D0A2D2D2D2D2D687474705FEF
:1050A00052656376427566206D616C6C6F6320316A
:1050B000303234206661696C2121212D2D2D2D2D5A
:1050C0000D0A00002DE9FC41804616460F464FF0C0
:1050D000FF34402004F0E6FE050026D04021FEF714
:1050E00096F9CDE90076B8F1000F21D011A313A2F3
:1050F00015A1284601F032F8C1B22846FEF78CFE11
:1051000040212846FEF783F901224FF4FA7100206E
:1051100000F0BAF9040005D443F69821002000F00D
:10512000FBF90446284604F0C1F82046BDE8FC819E
:105130000AA3DCE7225544502200000041542B51C1
:10514000494F50454E3D0000257325732C22257391
:10515000222C222564220D0A000000002254435014
:105160002200000010B50021062006F005FAC82034
:1051700004F00CF80121062006F0FEF9642004F08A
:1051800005F801210F2006F0F7F94FF47A74204654
:1051900003F0FCFF00210F2006F0EEF92046BDE8E9
:1051A000104003F0F3BF00002DE9F0410746002650
:1051B0004FEA010500F032F8040004D501206D1E0D
:1051C00003F0E4FF06E0024605A1002000F0BEFB6C
:1051D000BC55761C002DEDDCB0B2BDE8F0810000BE
:1051E000256300000C4910B50A4B4A884FF400743F
:1051F0009854521C93B24B808888401C82B2002085
:105200008A80A34200D14880A24202D1488088808F
:10521000088010BD033C0020A82700204FF0FF307D
:1052200072B609498A8862B108480B88C05C5B1C69
:105230009BB20B80B3F5007F01D100230B80521E7F
:105240008A8062B670470000A8270020033C002037
:105250002DE9F04107460D464FF0FF34402004F0A1
:1052600021FE060022D04021FEF7D1F82B4611A2E4
:1052700013A1304600F072FFC1B23046FEF7CCFDFC
:105280004FF4FA6000F09AF904000CD12946384630
:10529000FEF7C2FD01224FF4FA71002000F0F4F88D
:1052A000040000D12C46304604F000F82046BDE84A
:1052B000F081000041542B514953454E443D0000BC
:1052C000257325640D0A000070B54FF0FF344020AF
:1052D00004F0E8FD050019D04021FEF798F80CA273
:1052E0000DA1284600F03AFFC1B22846FEF794FD12
:1052F00040212846FEF78BF801224FF4FA71002076
:1053000000F0C2F80446284603F0D0FF204670BDE6
:10531000415453303D31000025730D0A0000000058
:1053200070B54FF0FF34402004F0BCFD050019D0EB
:105330004021FEF76CF80CA20FA1284600F00EFFEA
:10534000C1B22846FEF768FD40212846FEF75FF807
:1053500001224FF4FA71002000F096F80446284626
:1053600003F0A4FF204670BD41542B5149464743EA
:105370004E543D300000000025730D0A000000006F
:1053800070B54FF0FF34402004F08CFD050019D0BB
:105390004021FEF73CF80CA20FA1284600F0DEFEEB
:1053A000C1B22846FEF738FD40212846FEF72FF807
:1053B00001224FF4FA71002000F066F804462846F6
:1053C00003F074FF204670BD41542B5149444E53A5
:1053D00049503D310000000025730D0A0000000017
:1053E00070B506464FF0FF34402004F05BFD050029
:1053F00016D04021FEF70BF833460AA20AA1284630
:1054000000F0ACFEC1B22846FEF706FD01224FF4C3
:10541000FA71002000F038F80446284603F046FFF1
:10542000204670BD41544500257325640D0A0000D7
:1054300010B5114C8AB0207802281AD002F05CF81E
:1054400018220E496846FDF7C9FF601C069001202E
:1054500007900B4808904FF4807009900623094A82
:1054600006A9684602F06AF808B101F081FF02203F
:1054700020700AB010BD0000A3270020A8E202009F
:1054800003390020CDDC02002DE9F04790B08246C0
:105490000D4691464FF0FF37002440216846FDF746
:1054A000B6FFB9F1000F01D0042600E00226E8465D
:1054B000FFF7B4FE002805DA6D1EADB2012003F03F
:1054C00065FE1CE008F80400641CE4B2B44216DB7C
:1054D000B9F1000F01D00DA100E00EA16846FDF763
:1054E000A1FF60B1B44208DDBAF1000F05D0A0EB16
:1054F000080269465046FDF771FF002701E0002DC4
:10550000D6D110B03846BDE8F08700004F4B0D0AE9
:10551000000000004F4B00002DE9F04790B082469C
:105520000D464FF0FF36002440216846FDF76FFF1F
:105530000C27E846FFF772FE002805DA6D1EADB2B3
:10554000012003F023FE23E008F80400641CE4B209
:10555000BC421DDB11A16846FDF764FF814613A123
:105560006846FDF75FFF0146B9F1000F0CD0BC4261
:1055700008DDBAF1000F05D0A9EB080269465046D4
:10558000FDF72CFF002605E011B16FF0010601E0E8
:10559000002DCFD110B03046BDE8F087434F4E4EBE
:1055A000454354204F4B0D0A00000000434F4E4E20
:1055B000454354204641494C0D0A000070B54FF058
:1055C000FF350446FFF72AFE002805DA641EA4B260
:1055D000012003F0DBFD02E0C0B23E2803D0002C26
:1055E000F0D1284670BD0025FBE7F8B56D460446AE
:1055F0006E1C2946282000F02BF8002827D03146C1
:10560000292000F025F8002821D0BDF800002080D6
:1056100029462A2000F01CF8002818D031462B20FB
:1056200000F016F8002812D0BDF80000608029466E
:105630002C2000F00DF8002809D031462D2000F074
:1056400007F8002803D0BDF80000A0800120F8BDB5
:1056500010B505F08DF808B1002010BD012010BD77
:1056600038B5044669462020FFF7F2FF00280ED027
:105670009DF8000004F0070100F0F80001438DF8E8
:105680000010202000F08AF8002800D0012038BD4A
:1056900038B5044669462320FFF7DAFF00280ED00C
:1056A0009DF8000000F0CF0040EA0410C1B28DF870
:1056B0000010232000F072F8002800D0012038BD2F
:1056C0001CB5044669462020FFF7C2FF002816D00B
:1056D00001A92320FFF7BCFF002810D09DF800107F
:1056E00021480A0905D1027802F0F0020A438DF838
:1056F00000202CB1012C18D0022C09D000201CBD98
:105700009DF80010017001F00F008DF800001AE004
:105710009DF8000000F0F7008DF800009DF80400EF
:1057200000F0F70040F008000BE09DF8000000F0EA
:10573000F70040F008008DF800009DF8040000F02C
:10574000F7008DF804009DF80010202000F026F8E6
:105750000028D4D09DF80410232000F01FF8002862
:10576000CDD001201CBD00007027002038B50446B4
:1057700069462020FFF76CFF00280ED09DF800003E
:1057800000F00F0040EA0410C1B28DF80010202094
:1057900000F004F8002800D0012038BD10B504F056
:1057A000EDFF08B1002010BD012010BD00F01F0268
:1057B000012191404009800000F1E020C0F88012F2
:1057C000704700F01F02012191404009800000F164
:1057D000E020C0F80011704700F01F020121914045
:1057E0004009800000F1E020C0F80012704749072E
:1057F000090E002806DA00F00F0000F1E02080F822
:10580000141D704700F1E02080F8001470470A284A
:1058100001D2303002E0102802D2373040B2704757
:105820003F2070472DE9F0414FF48077384604F06F
:1058300077FD0124104EA50748B1384604F077FDE6
:105840000120C5F808037470002003F0CDF84FF470
:105850008277384604F064FD00280BD0384604F007
:1058600066FD0220C5F80803B470BDE8F0410120D0
:1058700003F0BAB8BDE8F081783F00200748002166
:10588000C0F84011C0F84411C0F84811C0F84C11DC
:10589000C0F80011C0F8041107F044BF0010014027
:1058A00004220021014804F0ADBF00000040024086
:1058B00000F0D8BAF8B50D4B0646144618780D46D8
:1058C00008B900F0CFFA00208DF80000684601F01A
:1058D000ADFE22462946304600F00AF804469DF8FF
:1058E000000001F0C7FE2046F8BD00002047002060
:1058F00070B50E46144900EB400001EBC00514469C
:10590000E86A183520B101280FD0022805D113E02C
:10591000284600F0DBFAA04201D2002411E0224622
:105920003146284600F0F8FB0BE0284600F0CEFA9E
:10593000A042F4D20446F2E73146284600F0BFFB0D
:105940000446204670BD0000204700200FB408B573
:1059500004A900916A46039900F003F801B05DF8CC
:1059600014FB2DE9F04198B0064607A802904020AC
:105970000025CDE90305CDE9055690460C4614F8FF
:10598000011B002973D0252908D002A800F078FB5C
:1059900005980028F3DA18B0BDE8F0810020012155
:1059A0002278232A1ED02B2A19D02D2A02D0302A61
:1059B00008D102E040F0010001E040F00200641C68
:1059C0000029EDD100222178A1F130030A2B0CD25D
:1059D00002EB820201EB4202303A641CF3E740F032
:1059E0000400ECE740F00800E9E70023CFB22E2FD7
:1059F0000BD114F8011FA1F130070A2F05D203EBD8
:105A0000830301EB4303303BF3E76C290DD0682996
:105A10000BD0702954D00BDC252916D0582931D051
:105A200063290CD0642913D114E014F8011FECE7AA
:105A3000732934D075291BD0782909D122E0D8F8F0
:105A40000000011DC8F80010017802A800F018FB42
:105A5000641C9DE7D8F800100F1DC8F80070096895
:105A6000CDE900200A2202A800F03CFAF0E733E07A
:105A7000D8F800100F1DC8F800700968CDE90020A3
:105A80000A2208E0D8F800100F1DC8F80070096855
:105A9000CDE90020102202A800F088FAD8E7D8F853
:105AA0000000011DC8F80010076817F8011B002945
:105AB000CED002A800F0E4FA05980028F5DAC7E78E
:105AC000D8F80000011DC8F8001001680820CDE9D1
:105AD000000503461022DEE7059800287FF75BAF3C
:105AE000049820B1024607A93046FFF7E3FEDDE93E
:105AF0000410084405904EE70149024803F032BE05
:105B00002840002000300040F8B54FF040200F4DF5
:105B100004464FF48C7106F0B4FA002815D0002624
:105B2000C4F81861D4F818010090A87F2C46FF280B
:105B300001D005F0FDFC66772672D4E9002101B0A2
:105B400004F10800BDE8F0401047F8BD0440002013
:105B500007F036BD06F02ABAF0B5AB480023021DA7
:105B600001780124101D4FF0805506290BD11678BD
:105B7000360708D10678C6F30316032E06D0042E86
:105B800004D0052E02D0062907D00EE0B5F8246314
:105B90009E4FC6F304263E6002E01678360704D115
:105BA0000678C6F30316032E02D0062904D00FE0B0
:105BB000984F974E7E670EE01678360708D1067824
:105BC000C6F30316032E06D0042E04D0052E02D0F1
:105BD000062907D00EE0D5F844628F4FC6F342364F
:105BE0003E6002E01678360704D10678C6F3031645
:105BF000032E02D0062906D011E0884E376827F020
:105C0000807737600EE01678360708D10678C6F33D
:105C10000316032E06D0042E04D0052E02D006292A
:105C20000AD011E04FF08046C6F80C31C6F81031AA
:105C3000794E361F336002E01678360704D10678B5
:105C4000C6F30316032E02D0062905D00CE0724FCE
:105C5000032664373E600AE01678360704D10678DA
:105C6000C6F30316032E02D006290DD014E06C4FA4
:105C700005263E606A4E78363460694E08363360D9
:105C80003F263F1D3E6002E01678360704D10678B5
:105C9000C6F30316052E02D0062957D062E0614EE6
:105CA0003668614F3E605F4E361D36683F1D3E6070
:105CB0005C4E083636683F1D3E605A4E0C363668DC
:105CC0003F1D3E60574E103636683F1D3E60554EB4
:105CD000143636683F1D3E60524E18363668524FB5
:105CE00020373E604F4E1C3636683F1D3E604D4E9D
:105CF000203636683F1D3E604A4E243636683F1DCA
:105D00003E60484E283636683F1D3E60454E2C3674
:105D100036683F1D3E60434E30363668424F40374E
:105D20003E60404E343636683F1D3E603D4E38364C
:105D300036683F1D3E603B4E3C3636683F1D3E6038
:105D4000384E403636683F1D3E6002E01678360712
:105D500008D10678C6F30316032E06D0042E04D00D
:105D6000052E02D0062907D019E0D5F858122F4A7F
:105D700001F04F01116002E0117809070FD100789E
:105D8000C0F30310032803D0042801D0052806D14E
:105D900027480168C90702D06FF0010101601F4860
:105DA0007438016841F470010160BFF34F8FBFF395
:105DB0006F8F4FF01021D1F80C02C00720D01D4A80
:105DC00014601D480468002CFCD0D1F80C4224F06B
:105DD0000104C1F80C4201680029FCD0136001687D
:105DE0000029FCD0BFF34F8F0C48F0380168134AEC
:105DF00001F4E06111430160BFF34F8F00BFFDE785
:105E000010490F480860F0BDE00F00F04035014038
:105E10000DF0ADBA00C007403C050040FCED00E0CD
:105E2000105600400404001020C50040E40E00405D
:105E30000004004004E5014000E401400400FA05CC
:105E40000090D0035C2800200448017F044800290A
:105E5000024901D008F037B807F0A6BFE43F0020A0
:105E60000020004010B5124C02202061606111A09A
:105E7000A06104F17800E0614FF40070206200201E
:105E8000A06260620BA1A164E06204F51E71E1648E
:105E90001021A065C4E91410E06509A1E01DFDF71B
:105EA000DAFA08A12046FDF7D6FA2020A07110BD2D
:105EB000204700205465726D696E616C000000001F
:105EC0005254540053454747455200000269C16887
:105ED0008A4203D88068401A104400E0501A401EDD
:105EE000704700002DE9FC5F0E008146DDE90C479C
:105EF000C6F1000098469346824600D40846012524
:105F000003E000BF90FBFBF06D1C5845FADAA84592
:105F100000D9454624B1002E01DB780700D5641E68
:105F2000B80702D5B8F1000F0FD0F8070DD164B152
:105F3000A5420AD220214846641E00F0A1F8D9F8F3
:105F40000C000028F3DABDE8FC9FD9F80C0000280B
:105F5000F9DB002E02DA56462D2102E0780707D53C
:105F60002B21484600F08CF8D9F80C000028EADB19
:105F700007F0030002280FD1B8F1000F0CD15CB17B
:105F8000A54209D230214846641E00F079F8D9F8BC
:105F90000C000028F3DAD6E7CDE9004743465A461D
:105FA0003146484600F002F8CDE700002DE9F84FF1
:105FB0008246DDE90A4B0126984691460D46084681
:105FC000374602E0B0FBF9F07F1C4845FAD2B845ED
:105FD00000D947465FEACB7017D1B4B15FEA8B7046
:105FE00002D5B8F1000F02D0202000900BE0302045
:105FF000FBE75046641E009900F042F8DAF80C0006
:10600000002838DB0CB1A742F3D3DAF80C000028E3
:1060100031DB00BFB8F1010F02D9A8F1010803E09C
:10602000B5FBF6F0484502D306FB09F6F2E7DFF8C8
:106030004C8000BFB5FBF6F000FB165518F80010B9
:10604000504600F01DF8DAF80C00002803DBB6FB20
:10605000F9F6002EEED15FEACB700CD0002C0AD0FE
:10606000A74208D220215046641E00F009F8DAF851
:106070000C000028F2DABDE8F88F0000C0E402004E
:1060800010B50446D4E90130421C934205D323687D
:106090001954A260E068401CE060D4E90102824229
:1060A00009D121682069FFF705FCA168884203D067
:1060B0004FF0FF30E06010BD0020A06010BD2DE962
:1060C000F047C4681746894606464FF00008306915
:1060D000A04201D9051B02E0B168201A0D1AB06870
:1060E0006D1E001BA84200D80546BD4200D33D46A8
:1060F00070682A4620444946FDF770F9B0687F1B56
:106100002C44A844A944A04200D10024F460002FEC
:10611000DDD14046BDE8F0872DE9F04104468846D0
:10612000D4E90207C51BE168606816460844B54219
:1061300006D94146FDF752F9B819E060BDE8F08193
:106140002A464146FDF74AF9761B08EB050132461F
:106150006068FDF743F9E660F0E700000FB4084B14
:1061600010B504A902AA039800F008FD044602A98C
:10617000002001F0A1F8204610BC5DF814FB0000DF
:10618000B972020003B401984100009850EAC1209E
:1061900018BF04204A0D18BF40F0010040F2FF7202
:1061A000B2EB515F08BF40F00200012808BF052094
:1061B00002B07047004870476828002000000000C7
:1061C00070B52DED020B2DED0A8B82B00D98C40F2A
:1061D00020F00045AE48854248D3AE48854219D3E9
:1061E0000C99C5F31300084309D09DED0C0B02B0C8
:1061F000BDEC0A8B02B0BDE8704000F09DBB002CE6
:1062000014BF9FEDA50B9DED0C0B02B0BDEC0A8BEE
:1062100002B070BD9FEDA20B53EC102B9DED0C0B4B
:1062200051EC100BFDF72CFB0AD2022000F0D2FB40
:1062300002B0BDEC0A8B02B0BDE8704000F088BB34
:106240009FED990B53EC102B9DED0C0B51EC100BAB
:10625000FDF7FEFA0AD2022000F0BCFB02B0BDEC52
:106260000A8B02B0BDE8704000F082BB90489FED01
:1062700092BBA8425CD29248854219D29148784498
:1062800000EBC40090ED000B53EC102B9DED0C0BBC
:1062900051EC100BFDF7A5F941EC1A0B8A48784434
:1062A00000EBC40090ED009BC4F10100041B36E03C
:1062B0009FED870B53EC102B9DED0C0B51EC100B4D
:1062C000FDF795F941EC100B8348784400EBC400CE
:1062D00090ED001B51EC100B53EC112BFDF7E0F887
:1062E000FDF784FA0446FDF763FA41EC180B9FEDC5
:1062F0007C0B53EC102BFDF77AF99DED0C1B53EC46
:10630000112BFDF771F941EC1A0B9FED770B51EC56
:10631000180B53EC102BFDF76AF941EC190B51ECFB
:106320001A0B53EC192BFDF75CF9CDE90C011BE0BE
:106330006F48854217D29FED700B53EC102B9DEDEB
:106340000C0B51EC100BFDF7ABF853EC1B2BFDF7CE
:1063500097FA08D29DED0C0B53EC1B2B51EC100B54
:10636000FDF79EF86EE000249DED0C0B53EC102B16
:1063700051EC100BFDF73BF941EC180B604805217F
:10638000B0EE480AF0EE680A784400F059FA53EC8F
:10639000182B51EC100BFDF72AF99DED0C1B53EC5B
:1063A000112BFDF721F941EC180B9FED570B5CB356
:1063B00053EC182B51EC100BFDF713F99DED0C0B62
:1063C00041EC1C0B53EC182B51EC100BFDF70FF9A3
:1063D00053EC1C2BFDF77DF953EC192BFDF704F959
:1063E00053EC1A2BFDF7FDF853EC1B2BFDF7FCF8D3
:1063F000CDE900016FF47F70844226DB01EB04508D
:1064000001909DED000B00E753EC102B51EC180BA5
:10641000FDF7E7F89DED0C0B41EC190B53EC182B35
:1064200051EC100BFDF7E3F853EC192BFDF751F984
:106430009DED0C1B53EC112BFDF7D3F853EC1B2BEC
:10644000FDF7D2F841EC100BDFE608464FF07A5129
:1064500001EB04519FED2E0B084453EC102B0190DF
:106460009DED000B51EC100BFDF7C1F80D4645EC0E
:10647000100B044651EC100BFFF784FE042808BFF4
:1064800000F076FA45EC104BBFE60000000000007B
:10649000422E86400000F07F000000000000000057
:1064A000EF39FAFE422E864051302DD5104987C073
:1064B000422ED63F00000000000000000000F03F28
:1064C000B2A2F03F86830000768300000000000047
:1064D000FE822B654715F73F2A830000000000006D
:1064E0000000E0FE422EE63F763C7935EF39EA3D8A
:1064F0000000303E000000009C7500883CE4377EC0
:106500009C8200000000000000000000000000402D
:10651000000000000000700110B52DED068BB0EEFC
:10652000408AF0EE608A18EE101A84B018EE900AD5
:106530008DED008B002918BF0121084320F0004099
:10654000C0F17F6000F1E040C00F9FED47AB9FEDD1
:10655000489B06D153EC192B51EC180BFDF778F939
:1065600009D1B0EE480AF0EE680A00F0E5F904B08F
:10657000BDEC068B10BD9FED400B51EC180B53EC9E
:10658000102BFDF765F901BFB0EE4A0AF0EE6A0A7A
:1065900004B0BDEC068B08BF10BD02AA51EC180B6D
:1065A00003F023FD9FED360B41EC180B53EC102B41
:1065B0009DED020B51EC100BFDF74AF938BF324C40
:1065C00014D39FED330B53EC102B9DED020B51ECCC
:1065D000100BFDF755F938BF4FF4006406D39DED5D
:1065E000020B51EC100BFDF701F904469FED2A0B4D
:1065F00051EC180B53EC102BFCF7F9FF02F013FED3
:10660000224603F02CF941EC180B04F57F7040F2A0
:10661000FB71884221D353EC1A2B51EC180BFDF778
:1066200017F905D1022000F0D5F900F0A1F99EE795
:1066300053EC192B51EC180BFDF70AF905D1022088
:1066400000F0C8F900F084F991E751EC180BFFF75E
:1066500099FD042808BF00F08BF9B0EE480AF0EE6F
:10666000680A84E70000000000000000000000004D
:10667000000000000000F07F000000000000F0FFBC
:10668000000000000000A0C000F8FFFF00000000B4
:10669000000000000000A040EF39FAFE422EE63F65
:1066A00030B540F2FF742DED048BF0EE608A18EEE9
:1066B000901A85B0B0EE408A9FED2B9B05468DED7C
:1066C000008B34EA115147D053EC192B51EC180BC5
:1066D000FDF7BEF840D02A4651EC180BFDF791FAB1
:1066E00041EC180B18EE900A8DED008B34EA105037
:1066F0001CD053EC192B51EC180BFDF7A9F82BD13A
:10670000022000F067F900F033F910EE901A18EE4D
:10671000900A8DED020B8DED008B61F31E0003904E
:106720009DED020B05B0BDEC048B30BD022000F0E6
:1067300051F900F00DF910EE901A18EE900A8DED57
:10674000020B8DED008B61F31E0003909DED020B9B
:1067500005B0BDEC048B30BD05B0B0EE480AF0EEDC
:10676000680ABDEC048B30BD000000000000000092
:1067700031B52DED020BDDE900C2BCF1000F14BFF5
:106780000121002141EA420111F5001F07D99DEDC9
:10679000000B80ED000B9DED000B03B030BDC2F38C
:1067A0000A510024A1F2FF3102F0004314291EDA3D
:1067B0000029B8BFC0E9004329DB204D25FA01F1CB
:1067C00002EA010555EA0C0C1BD022EA0101C0E9DE
:1067D000004190ED000B53EC102B9DED000B51ECA4
:1067E000100BFCF7FEFE03B041EC100B30BD33295B
:1067F00007DC4FF0FF35143925FA01F11CEA010FCF
:1068000009D19DED000B80ED000BCDE900439DED1E
:10681000000B03B030BD2CEA0101C0E9001290ED7D
:10682000000B53EC102B9DED000B51EC100BFCF703
:10683000D8FE03B041EC100B30BD0000FFFF0F008D
:1068400070B504462DED028B4D1E00EBC500B0EE79
:10685000408AF0EE608A90ED000B35F0060017D00C
:1068600053EC182B51EC100BFCF7C1FE41EC100B54
:106870006D1E04EBC50090ED001B51EC100B53ECAA
:10688000112BFCF70DFE41EC100B35F00600E7D1A3
:10689000022D36D0042D1CD0062D1CBFBDEC028B62
:1068A00070BD53EC182B51EC100BFCF7A0FE94EDCF
:1068B0000A1B53EC112BFCF7F3FD53EC182BFCF7E0
:1068C00096FE94ED081B53EC112BFCF7E9FD41EC0F
:1068D000100B53EC182B51EC100BFCF788FE94EDC9
:1068E000061B53EC112BFCF7DBFD53EC182BFCF7CC
:1068F0007EFE94ED040B53EC102BFCF7D1FD41EC24
:10690000100B53EC182B51EC100BFCF770FE94EDB0
:10691000021B53EC112BFCF7C3FD53EC182BFCF7B7
:1069200066FE94ED001B53EC112BFCF7B9FDBDEC9A
:10693000028B41EC100B70BD10B553EC102B51ECD9
:10694000100BFCF7ADFD41EC100B10BD000000007A
:106950009FED050B10B553EC102B51EC100BFCF711
:1069600046FE41EC100B10BD00000000000000705E
:106970009FED050B10B553EC102B51EC100BFCF7F1
:1069800036FE41EC100B10BD0000000000000010AE
:1069900002E008C8121F08C1002AFAD170477047E8
:1069A000002001E001C1121F002AFBD17047000046
:1069B0000121202803DA81400548014003E04028F6
:1069C00002DA2038814009B1012070470020704769
:1069D000FC06FFBD014908607047000068280020E0
:1069E00010B501F0D3FD08480021417081700749BE
:1069F0004160074981600749C16001F0C4FCBDE8FE
:106A00001040014806F0C2BDE037002019E1020045
:106A100041E10200DDE002002DE9FF5FDDE9022037
:106A2000010DDDF838B0024318D044F61050A1F241
:106A3000FF3141430D140F98012820D0A5EB0B0026
:106A4000401C5FEA000A4FF00004474EDFF81C913B
:106A5000A046504616D5CAF1000728E00F98012439
:106A600043A2012808D0002100980F9BC0E9002113
:106A7000C0E90243BDE8FF9F6FEA0B01F4E7CBF1E9
:106A80000000DEE7074612E0F80707D0224633464B
:106A900040464946FCF7ABFD8046894622463346D0
:106AA00010461946FCF7A3FD04460E467F10002F42
:106AB000EAD1DDE90201BAF1000F42464B4602DAA3
:106AC000FCF795FD01E0FCF704FE04460E460022AB
:106AD000284BFCF7D5FE03D84FF0FF30014607E006
:106AE0000022254B20463146FCF7DAFCFDF70FF873
:106AF000102409E0002C0ADB0A220023FCF738FCF2
:106B0000019B30321A55641E50EA0102F2D1641C16
:106B1000019AC4F1110314440F9A012A03D00122EF
:106B200008430DD10AE0084304D000204FF0110BB8
:106B30000F9080E7A3EB0B056D1E0DE05B4504DDB8
:106B40004FF0000205F1010504E003DA4FF0000206
:106B5000A5F10105002AECD000980F99C0E9023197
:106B6000C0E9004586E70000000024400000F03F37
:106B7000300000000000F0430000E03F2DE9FF4F2F
:106B800095B09B468946064600250FE2252877D119
:106B900000242746F84A0121059400E0044316F832
:106BA000013F203B01FA03F01042F7D130782A2848
:106BB00011D06FF02F033078A0F13002092A16D8D7
:106BC000059A44F0020402EB820203EB42021044F5
:106BD000761C0590EFE759F8042B0592002A03DA9A
:106BE000504244F40054059044F00204761C30787E
:106BF0002E2816D116F8010F44F004042A280DD0CF
:106C00006FF02F023078A0F13003092B09D807EB81
:106C1000870302EB4303C718761CF3E759F8047B9C
:106C2000761C30786C280FD006DC4C2817D06828EA
:106C30000DD06A2814D104E0742810D07A280FD11E
:106C40000DE044F400140AE044F4801401E044F43C
:106C500040147278824202D104F58014761C761CAE
:106C6000307866280BD013DC582877D009DC002850
:106C700075D04528F6D04628F4D047281AD19DE192
:106C800018E0632835D0642879D0652812D195E1C1
:106C9000702873D008DC6728F1D069286FD06E287F
:106CA0000DD06F2806D1B5E073282CD0752875D08B
:106CB000782874D05A46179990476D1C75E1C4F333
:106CC0000250022809D003280DD0D9F8001004285A
:106CD0000DD00D6009F1040967E1D9F80010EA1739
:106CE000C1E90052F6E7D9F800100D80F2E70D7007
:106CF000F0E719F8041B8DF8001000208DF8010052
:106D0000EA46012003E059F804AB4FF0FF30610779
:106D10004FF0000102D40DE008F101018846B942AC
:106D20000FDA8045F8DB1AF808100029F4D108E0E2
:106D300008F1010188468142FADB1AF8081000299F
:106D4000F6D105985B46A0EB080721463846179A0E
:106D500000F094FA284400EB080507E04DE029E133
:106D60000DE01AF8010B5A4617999047B8F101083F
:106D7000F7D25B4621463846179A13E142E00A22D1
:106D80000092C4F302524FF0000A022A08D059F8C8
:106D900004CB032A4FEAEC710AD00DE029E02AE087
:106DA00009F1070121F00702F2E802C1914609E06A
:106DB0000FFA8CFC4FEAEC71042A03D14FFA8CFCD9
:106DC0004FEAEC71002907DA0A460021DCF1000CD9
:106DD00061EB02012D2202E0220504D52B228DF861
:106DE0000420012203E0E20701D02022F7E79046C9
:106DF00059E00A2102E010220DE010214FF0000AB4
:106E000000910BE010224FF0000A44F00404082720
:106E1000009203E008224FF0000A0092C4F30252ED
:106E2000022A05D059F804CB0021032A08D009E032
:106E300009F1070121F00702F2E802C1914605E0DD
:106E40001FFA8CFC042A01D10CF0FF0C4FF0000853
:106E5000220728D5702806D0009B83F0100353EA40
:106E60000A0305D00EE040228DF80420012208E03C
:106E70005CEA010206D030228DF804208DF805006E
:106E800002229046009B83F0080353EA0A030AD1CA
:106E90005CEA010201D1620705D530228DF8042099
:106EA0004FF001087F1E582804D034A003900EA88C
:106EB00002900DE036A0F9E753466046009AFCF7D1
:106EC00057FA84460398825C0298401E0290027032
:106ED0005CEA0100F0D1029806A9081A00F1200A24
:106EE000600702D524F4803400E00127574502DD15
:106EF000A7EB0A0000E0002000EB0A0100900598D3
:106F00004144401A0590E00306D45B462146179A97
:106F1000059800F0B3F90544002706E001A85A4699
:106F2000C05D179990476D1C7F1C4745F6DBE00359
:106F30000CD55B462146179A059800F09FF9054449
:106F400004E030205A46179990476D1C0099481E5E
:106F500000900029F5DC08E0029802995A46007872
:106F6000491C0291179990476D1CBAF10001AAF1D2
:106F7000010AF1DC65E100000928010030313233FB
:106F80003435363738396162636465660000000065
:106F9000303132333435363738394142434445464F
:106FA0000000000000F058F90544761C30780028F5
:106FB0007FF4ECAD19B02846BDE8F08F620700D42D
:106FC000062709F1070222F0070CFCE80223E1463C
:106FD00003F000485FEA080C02D00FF2702C0DE0BD
:106FE0005FEA045C02D50FF2682C07E05FEAC47C1C
:106FF00002D00FF2602C01E0AFF2700C4FF0FF38BE
:1070000023F00043CDF850C065280CD006DC45289D
:1070100009D046281DD047283DD13DE0662818D02C
:1070200067287ED138E00021112F01DB112000E01C
:10703000781CCDE9000106A90EA8FFF7EDFCDDE9FB
:107040000F010E9A03910021009207F1010A0491A9
:107050004DE04FF000400097CDE9011006A90EA8C1
:10706000FFF7DAFCDDE90F0203920E9B1199002273
:10707000DDF80CA00093049211B9791C00EB010A11
:10708000B7EB0A0004D4C0F1FF3007F1010A049005
:10709000AAEB0700019044E0012F00DA012700214C
:1070A000112F01DD112000E03846CDE9000106A9CD
:1070B0000EA8FFF7B1FCDDE90F010E9A0391002144
:1070C00004910092BA4621070CD40399514500DA85
:1070D0008A46BAF1010F05DD009AAAF10101515C5F
:1070E000302908D0B84202DA10F1040F06DA012183
:1070F000CDE9011015E0AAF10101E9E7002805DC5E
:10710000049901440491AAEB000102E0411C51459D
:1071100000DD8A460499401A401C01904FF000405F
:107120000290200704D40198504501DBCDF804807B
:1071300000208DF84F0002980DF14F07B0F1004F7D
:1071400025D02B200E9002984FF0020800280CDA70
:10715000404202902D200E9007E00A210298FCF791
:10716000C3FB3031029007F8011DB8F10001A8F10E
:107170000108F2DC02980028EFD1791E0E98087001
:10718000307800F0200040F0450007F8020D12A80A
:10719000C01B00F107081498007800B1012000EB33
:1071A0000A01019801EBE07105984144401A401E24
:1071B0000590E00306D45B462146179A059800F037
:1071C0005DF805441498007818B15A46179990470D
:1071D0006D1CE00324D55B462146179A059800F004
:1071E0004DF805441CE00498002807DBDDE90301A5
:1071F000884203DD0098405C179901E01799302020
:107200005A469047049805F10105401C04900198E6
:10721000401E019004D12E205A46179990476D1CAC
:10722000BAF10001AAF1010ADDDC05E017F8010B53
:107230005A46179990476D1CB8F10001A8F1010852
:10724000F4DC5B462146179A0598ABE62D0000005A
:107250002B000000200000002DE9F041044600252D
:107260001E461746880404D405E039462020B0475E
:107270006D1C641EF9D52846BDE8F0812DE9F0416A
:10728000044600251E469046C80301D5302700E07D
:107290002027880404D505E041463846B0476D1CD8
:1072A000641EF9D52846BDE8F0810000014901209F
:1072B00048707047602700200A68531C0B601070EC
:1072C000704710B501220221002001F02DFA08B10B
:1072D000072810D107220221012001F025FA08B168
:1072E000072808D100210A22084601F01DFA08B13A
:1072F000072800D1002010BD134C0121208801EB8C
:10730000004012A104F01AFB04F0DAFB04F040FA8A
:107310000028FBD10F480068C00700D000BE2088BD
:10732000032101EB00400CA104F008FBBFF34F8FD9
:107330000848E43801680D4A01F4E0611143016036
:10734000BFF34F8F00BFFDE7D8280020466174616E
:107350006C000000F0ED00E0486974207765616B17
:107360002068616E646C6572000000000400FA051C
:107370000EB500210091CDE901106A4644F20100EA
:10738000FFF7BAFF0EBD10B58268C368934203D001
:1073900001F051FF002010BD052010BD29B112B130
:1073A000531E134203D0092070470E20704701601E
:1073B000838000218160C1600846704710B58268F3
:1073C000C3689A1A83889A4203D801F03EFF0020CE
:1073D00010BD042010BD0000074B9B7823B12AB1DB
:1073E00020B10068037C1BB108207047072070475C
:1073F00041744261002070475040002070B505F094
:1074000013FA104800240B21047044700E4D817053
:1074100014206C602C706C70FEF7C8F907211420E2
:10742000FEF7E5F91420FEF7CCF9084804600721BF
:107430001120FEF7DCF90548001F0068A860002055
:1074400070BD000050400020D827002008150140E2
:107450002DE9FC47DFF8789099F8023073B368B3F0
:10746000052902D20720BDE8FC87436933B3437C7A
:10747000012B25D0002704460025884616468DF8A6
:107480000050684600F0D2F801A806F02DFEC8B101
:10749000012101700F4944600968C0E90218C0E980
:1074A00004769DF8040089F801009DF8000000F0C2
:1074B000E1F81420FEF790F92846D4E70820D2E737
:1074C0000F46D8E704259DF8000000F0D3F8F3E755
:1074D00050400020041501400649897839B130B187
:1074E000416921B100210174022106F0F7B808209A
:1074F000704700005040002010B5024803F0D0FD56
:10750000002010BDF427002070B50A4E01460A483D
:10751000B578FFF738FF04464DB10020B070711CFC
:107520000122C81D03F00EFC08B1FFF721FF204621
:1075300070BD0000EC2700205C410020F0B5284E13
:1075400089B01F460D00044672603BD0A8882968A8
:1075500082B22448FFF722FF002834D1A889A96805
:1075600082B220481030FFF719FF00282BD12022CB
:107570001D496846FBF732FF60690690207C00B128
:1075800001208DF814008DF81C70607C00B10E2075
:107590008DF81500E0680290A068039020680190C3
:1075A000606800900E48114A6946083003F096FB67
:1075B000002808D1B0702068401C04D09DF81D0040
:1075C00018B106E0072009B0F0BD0548083003F007
:1075D00011FC03490122491CC81D03F0B3FBF2E76B
:1075E000EC2700205C4100206CE3020009DD020072
:1075F00010B501460B48FFF7E1FE040010D10A4820
:1076000003F042FD60B9084906480839FFF7BBFEA0
:1076100030B9054901220839034803F0AFFC04469C
:10762000204610BD6C410020F427002030B5EFF358
:10763000108172B60D4A9468012324B103700029A9
:1076400000D162B630BD93604FF0E023D3F8805193
:10765000074C25401560C3F88041D3F8844154603D
:107660005A17C3F8842100220270E8E77C41002009
:10767000FC06FFBD0B498A68002A11D000280FD1F3
:10768000EFF3108072B60B684FF0E022C2F80031C1
:107690004B68C2F8043100228A60002800D162B62B
:1076A000704700007C4100202DE9F0410646086843
:1076B0000C46411C4FF0A0474FF0010506D005FADB
:1076C00000F1C7F80815206803F0FCFE6068411C53
:1076D00002D0002103F0E5FE3079204901EB401093
:1076E000A169007F00283068C0F8241525D0607D8E
:1076F000227D31681043C1F86C05D4E9001230686E
:10770000C0F80C15C0F8142524E0A068411C02D074
:10771000002103F0C6FEE068411C05D08540C7F893
:107720000855E06803F0CEFED4E902123068C0F8D4
:107730000825C0F81015BDE8F081607D217D326814
:107740000843C2F86C05D4E900123068C0F814256B
:10775000C0F80C15207D0128D7D0ECE7E43F0020CD
:10776000024600200A4200D0012070472DE9FC4764
:10777000002517880646158090F82D001446894686
:1077800030B13A462146484600F0EAFA050009D1F0
:10779000B0784FF00C0A18B32088C846001DB842D4
:1077A00002D95046BDE8FC87684679DF0028F9D148
:1077B0002088032108F8001020881921401C80B27D
:1077C000208008F800102088401C80B2208000EB48
:1077D0000801BDF8000006F0EEFB21880844208077
:1077E000F0780222C8B1218896F9033001F1030C28
:1077F0004846BC45D5D8425421884FF0010C491C5D
:1078000089B2218000F801C02188491C89B22180F9
:1078100009F801302088401C20807068B8B12188A8
:1078200090F9003001F1030C4846BC45B9D84254E8
:1078300021880A22491C89B2218042542188491C8E
:1078400089B2218009F801302088401C20803089CD
:1078500050B1CDE900474B460622022106F108004F
:1078600006F082FC05009DD1308A50B1CDE9004779
:107870004B460722032106F1100006F075FC0500B7
:1078800090D1308B50B1CDE900474B4615221421E1
:1078900006F1180006F068FC050083D1306A30B1AB
:1078A0003B462246494601F007FC0500DBD1706AE1
:1078B00030B13B462246494602F02AFB0500D2D1B0
:1078C00096F82C0038B13B4622464946304605F032
:1078D00051FC0500C7D1307838B13B4622464946B5
:1078E000304602F0A7FB0500BDD128465AE7F0B5A7
:1078F0000C4693B01F210726ADF80010ADF8041018
:10790000002750B1C17849070DD56A4602A9FFF793
:107910002DFF002808D102AD02E00025ADF800706F
:107920006CB1E07810B1304613B0F0BD01AA0AA9DD
:107930002046FFF71BFF0028F6D10AAA02E000222A
:10794000ADF80470BDF80400C3B2BDF80000C1B2C8
:10795000284672DFE8E780F82410704770B50D0004
:10796000044653D0F4B3012020700026E670202294
:1079700005F17801201DFBF731FD84F82460D5F86E
:107980009800C4F8CC00D5F89C00C4F8D0004FF69D
:10799000FF70A4F8C800C4F82560A4F8296084F832
:1079A0002B6004F130003C210646FBF730FD2878BF
:1079B00084F83000A87884F83200E87884F833003E
:1079C000687884F83100D5E90401C4E91001D5E9EB
:1079D0000201C4E90E01D5E90601C4E9120195F8D6
:1079E0002D0000E012E084F85D00686AD8B104F16F
:1079F000780104F16C0061676065696A098801803B
:107A0000686A616D80888880002008E00E2070BD63
:107A1000696A22188968095C82F87810401C616DD7
:107A200089888142F4D8A86AE8B104F1A400C4F8B6
:107A3000A0000C38A065A96A89888180A86AA16D18
:107A400000880880002006E0A96A22188968095C7D
:107A500082F8A410401CA16D89888142F4D895F861
:107A60002C0084F85C00286A48B104F1C400206549
:107A7000296A49884180286A216D008808806868E1
:107A800000B1606305F13C013046BDE87040FFF78E
:107A90002EBF10B50288102A1AD0112A1FD01B2A17
:107AA0001CD1007A0C46002818D1E0780521401C32
:107AB000B0FBF1F201FB1201204600F037F800287C
:107AC0000CD0D4F8D010002908D0BDE810400847E9
:107AD000C27B012A02D18088A1F8C80010BD0C46E3
:107AE000002184F8D4108088B4F8C8108842F5D1F9
:107AF00020790028F2D10121DEE710B50C460228DA
:107B000001D0032811D1607800280ED000206070C9
:107B1000E178204600F00AF8002806D0D4F8D0100A
:107B2000002902D0BDE81040084710BD2DE9FF47ED
:107B3000044600780F4638B1E770002003F0E0FB00
:107B4000012628B16670D2E0082004B0BDE8F087B5
:107B50000025C4F82550A4F8295084F82B50A079AA
:107B600010B1E078012806D0E07970B1E078012802
:107B700001D0022809D1D4F8CC1021B184F82C60AE
:107B80000820884701E084F82C5004F126010020E9
:107B90000A5C0AB1304603E0401C0628F8D30020F6
:107BA0004FF002084FF0030A4FF00409012F06D0EE
:107BB000022F09D0032F0CD0042F12D10DE0A17990
:107BC00011B108B130460DE0E17911B108B140467C
:107BD00008E0207A08B1504604E0607A08B14846CF
:107BE00000E02846E070D4F8CC1041B1032801D061
:107BF000042804D1607910B194F8D400A8B184F8B5
:107C0000D55000950295019503958DF800508DF89B
:107C10000850E17804F1250004F13002052958D21A
:107C2000DFE801F0670A131F3B0084F8D65084F8A0
:107C3000D56007208847E4E7A67001908DF80060C2
:107C4000ADF80C50ADF80A5043E084F80280019082
:107C50008DF80060208AADF80C00A089ADF80A000C
:107C600037E0A08AADF80A00208BADF80C006079EF
:107C700080B194F8D40068B994F8D60050B18DF86A
:107C8000088084F8339000211046FFF730FE00BBD7
:107C900005211AE084F802A01BE0A08BADF80A00D1
:107CA000208CADF80C00607988B194F8D40070B9DC
:107CB00094F8D60058B18DF8088084F833900021EC
:107CC0001046FFF714FE20B90621A17001E084F8E8
:107CD0000290E07830B194F82410684673DF0028F1
:107CE0007FF433AFD4F8CC1009B1A07888470020D6
:107CF0002BE7A570F6E7000070B5040012D001462E
:107D00001C221448FBF76AFB1248134D05602068DB
:107D100050B17ADF002806D12068016829604068E8
:107D2000686005E00E2070BD0B487BDF0028FAD1AB
:107D300008484FF6FF711438084A20F8041B05491B
:107D4000343901600021FFF747FB0028EBD0032006
:107D500070BD0000A43E0020C827002075E002008E
:107D60007CB5054608880C460930904201D90C20A4
:107D70007CBD68466DDF0028FAD121880820685450
:107D800020881B21401C80B2208029542088401C60
:107D900080B220802844DDF801100160BDF8051094
:107DA00081802088801D80B220809DF800104908C5
:107DB00000D0012129542088401C208000207CBD57
:107DC00070B5454D018800226E8888B0044623298D
:107DD00045D020DC41484FF003031129008803EB14
:107DE000004024D00EDC012952D010292BD13CA117
:107DF00003F0A4FD072000F0B9FC08B1FFF7B8FAC2
:107E0000A0881FE0132924D021291CD10092A0882A
:107E100069468FDF29E03B2936D051293CD05229D1
:107E200026D056290FD18088132176DF25E02FA197
:107E300003F084FD002000F099FC08B1FFF798FAE8
:107E40004FF6FF70688008B070BD00BFFFF790FA72
:107E5000F9E700231A46852130467FDF0DE00092C6
:107E6000019280880022694690DF0028EED1EAE77F
:107E700000231A4619463046A9DF0028E3D008B08F
:107E8000BDE87040FFF774BA8088132176DFF4E70D
:107E9000A088002166DFF0E71022A11D04A8FBF7EF
:107EA0009DFA9DF810100029CDD09DF818000428E7
:107EB00003D0062801D00528C5D102290AD0012007
:107EC0008DF800004FF4C170ADF80400A088694639
:107ED000A8DFCAE70220F3E760270020D8280020A7
:107EE000436F6E6E6563746564000000446973637C
:107EF0006F6E6E65637465640000000010B51A4C07
:107F00000188606810290ED011292BD1401E6060B5
:107F100028D1FFF7D6F9002824D02168002921D0E4
:107F2000BDE810400847D0B900210122084600F002
:107F3000FBFB08B107280FD107220221012000F026
:107F4000F3FB08B1072807D104220221002000F02A
:107F5000EBFB20B1072802D0216801B18847606897
:107F6000401C606010BD0000C02700202DE9F047D4
:107F700001883B4E40F2F3194FF6FF7510291BD0D4
:107F800011293ED0122954D0502946D1C188F289F6
:107F9000841D914241D1618902293ED186883046B3
:107FA00001F046FB050038D004F10C0000F05AF94E
:107FB000A8B3294630464EE0C17B87880446012994
:107FC0002BD1A846284601F033FB050017D02F809F
:107FD00000202872234843464A460168C5F80A1023
:107FE0004068C5F80E0004F1100105F10A0001F027
:107FF00014FC6872F08900280FD129462AE0042079
:1080000013E0808801F014FB040006D06068FFF7DD
:1080100063FA08B104F0ECFD2580BDE8F087FFE7C6
:108020006868FFF759FA0028F7D0BDE8F04704F078
:10803000DFBD87880646384601F0FAFA0400ECD026
:108040002B464A4606F1080104F10A0001F0E5FB5F
:10805000607221463846BDE8F04701F073B8000071
:10806000A43E0020C82700202DE9F04704460388DD
:108070003F480122A4B000F1480A102B09D0112B6F
:1080800054D01A2B70D1217AB2EB111F53D2012395
:1080900052E0D0E911218A430546011D12A804F0DF
:1080A0007AFD442212A901A8FBF798F9DFF8C090E5
:1080B0000026374609F144090DF104080AE000BF23
:1080C00008EB46001D2283884946281D009704F0CE
:1080D00027FD761C0198B042F2D8686CA688C04390
:1080E00004F040FDA0F57F41FF3917D005EB4000BB
:1080F0000123868032465146281D04F071FD01237C
:1081000032464946281D04F06BFDE07B02280BD067
:1081100000231749A2884C31281D20E024B00420F8
:10812000BDE8F047FFF724B90123F2E70023A28856
:108130005146001D13E000230D490546A288503129
:10814000001D04F04DFD207A0221B1EB101F01D279
:10815000012300E000230649A2885431281D24B0E1
:10816000BDE8F04704F03CBD24B0BDE8F087000056
:10817000C03E002030B5174B0D4604000FCB85B034
:108180008DE80F0023D015B34FF6FF70A08228684A
:10819000A0610020A0752146684662DF002814D146
:1081A00020788DF812000120ADF81000A21C04A95F
:1081B000A0DF002809D12946204604F093FB0028BF
:1081C00003D12946204605F005FD05B030BD0E203F
:1081D000FBE700004CE302007FB5002917D0002820
:1081E00015D00288102A0DD0112A0DD0502A0FD098
:1081F000572A0CD11A4B1868D3E902238DE80F00D7
:1082000089692AE0808801E04FF6FF7088827FBD8F
:1082100001910C46821DC3880989002512308B42CA
:1082200002D1518902290CD0A1898B42EFD1A169D9
:108230000029ECD002905089ADF80C008DF8005068
:108240000AE000F00FF818B10120A075022001E04B
:10825000A57503208DF80000A169684688477FBD99
:108260003CE30200007800F0010070472DE9F04186
:1082700014465FEA010805461F464FF0000622D06B
:108280000CB307B39FED120B680784ED020B84ED6E
:10829000000B84ED040B05D01946404600F050FE5B
:1082A00084ED020BE80705D03946404600F0E6FCB5
:1082B00084ED000B680708D53946404600F0FEFB08
:1082C00084ED040B01E04FF0FF363046BDE8F0814D
:1082D00000000000000000002DE9F04105461646B0
:1082E0000F461C46184603F01EFF00280ED1A0784A
:1082F000012801D045F080056078646833463A462D
:108300002946A047002801D06FF00300BDE8F081A6
:1083100070B586B00646002005900490009001904C
:1083200002900D461446104603F0FDFEA8B9A5B113
:108330002346082204A9F720FFF7CEFF00280AD120
:10834000694604A800F04AF804F110032A46694679
:108350003046FFF78BFF06B070BD4FF0FF30FAE7F5
:1083600070B504460D46084603F0DDFE002809D12D
:108370002B4601222146F420FFF7AEFF217801F0C1
:108380000301217070BD38B5054600208DF800004E
:108390000524284603F0C7FE00281ED12B460122E3
:1083A0006946D020FFF798FF18B99DF800006028B3
:1083B00007D0E96801208847641E14F0FF04EDD15E
:1083C00009E02870284600F0C8F810B9284601F0E6
:1083D0004DF8002C01D16FF0010038BD10B50278C6
:1083E00043781203847842EA031242EA14120A60C4
:1083F000C27803791203447942EA031242EA141262
:108400004A608279C07940EA0220886010BDF0B5E8
:1084100085B014460E4605461F460A2A00D90A248E
:10842000184603F080FE90BB8DB386B384B33078DA
:108430008DF80000B878012809D0002005E0295CFB
:1084400001F07F012954401CC0B2A042F7D3012C97
:1084500011D96946012009E001EB40032A5C03F8C9
:10846000012C325C01F81020401CC0B22246A04210
:10847000F2D3530000E02346BC68297878786A4636
:10848000A047002801D06FF0030005B0F0BD03E065
:10849000FFE76FF00200F8E74FF0FF30F5E73EB579
:1084A00005460C46084603F03EFE002823D121462F
:1084B00001A8FFF755FF00281DD19DF8040020B149
:1084C000204604F06FF8002815D1F4208DF808003C
:1084D000234601226946FFF7FFFE00280BD19DF8D5
:1084E0000000234665F301008DF800000122694673
:1084F00002A8FFF78CFF3EBDF8B507460D460846BB
:1085000003F011FE040026D129466846FFF728FF34
:10851000040020D19DF8000020B1284604F042F864
:10852000040018D139460720FFF71AF905F138067B
:1085300030B12A463146384604F087FE04000AD19D
:1085400039461820FFF70CF928B12A46314638463B
:1085500004F054FE04462046F8BD7CB50546E020F4
:108560008DF80000B6208DF80400284603F0DBFDEE
:10857000040009D12B46012201A96846FFF747FFF5
:108580000446E9680220884720467CBD1FB50B4B96
:108590000FCB8DE80F0002208DF8030005208DF829
:1085A000020003208DF8010004208DF8000004F083
:1085B000D5F8684604F0D8F804B010BD7CE202009B
:1085C0000149085C70470000F4E2020007490B5CB7
:1085D0004FF0A041D1F804250120984020EA020381
:1085E000C1F808351040C1F80C057047F0E20200F0
:1085F0000249085C012102F0CABF0000F0E202005B
:108600000249085C002102F0C2BF0000F0E2020053
:108610000649095C4FF0A040D0F80405C84010F0AE
:10862000010000D0012080F001007047F0E202005C
:1086300010B500242046FFF7DBFF641C042CF9D39F
:1086400010BD10B500242046FFF7DAFF641C042C8F
:10865000F9D310BD10B50246064B4FF0FF30002194
:108660005C5C944201D1084610BD491C0429F7D333
:1086700010BD0000F4E2020010B5002000F05EF929
:1086800008B1062806D1012000F058F908B10628E3
:1086900000D1002010BD00002DE9F0470D468146B5
:1086A000FFF7D8FF0446042836D2DFF874801B4851
:1086B0001C4EA8F10C0725B3012D0ED0022D2BD195
:1086C00004EB440030444578002D25D0B9680029DA
:1086D00022D02846BDE8F047084704EB4401755C0A
:1086E0000E44717849B10E4A4FF40041093A80684E
:1086F000FEF7AEFE08B987F80390B17808F80410C9
:10870000E2E78068FEF7E8FE04EB4401314418F824
:1087100004008D78A842D7D0BDE8F087F8E20200C7
:10872000BC270020443E002070B50023042810D24E
:108730000D4D00EB4004012A02D101290CD000228A
:10874000094E00EB4000304461B1012906D00229F6
:1087500006D00723184670BD0E30C2B22A55F9E77D
:108760004270F7E78270F5E7443E0020044A014674
:1087700000201279D20702D0084600F003B87047F3
:10878000B02700202DE9F05F6A4C0546002660788E
:10879000B34618B184F801B001F06AF8664F4FF49F
:1087A0007A694FF4C87A4FF00108182D62D2DFE8D9
:1087B00005F0AC0C0C31404D62676B746B74BE7D80
:1087C0007D7D7D7DACAFB2B5BEBE0020FFF720FF42
:1087D00000284FF0000008D0FFF70AFF022D02D159
:1087E0004FF4E16008E0484606E0FFF709FF022D7C
:1087F00001D1C82000E05046410CC0034FF4FA728A
:10880000801841F10001257052000023FAF7B0FDF5
:1088100001462AE00020FFF7FBFE00284FF0000091
:1088200004D0FFF7E5FE4FF44870E5E7FFF7E8FEF8
:10883000DFE70020FFF7ECFE00284FF0000002D039
:10884000FFF7D6FECFE7FFF7DBFED4E70020FFF708
:10885000DFFE00284FF0000002D0FFF7C9FE01E064
:10886000FFF7CEFE257041F69A1100223868FEF718
:10887000EFFD064646E00020FFF7A8FE257008E061
:10888000002051E025703DE084F801800120FFF7D1
:108890009DFE002240F6CD41E8E784F801800120EA
:1088A000FFF794FE00224FF48041DFE77868FEF77F
:1088B00013FE0646D5F1110000D02EB10220FFF7BD
:1088C00097FE84F802B01DE0012816D980B2C821B5
:1088D0004843C117C90341EA5041C0034FF4FA723B
:1088E000801841F1000152000023FAF741FD0146D2
:1088F00000227868FEF7ACFD06460220FFF780FEF6
:1089000084F802803046BDE8F09F00F0B1FFB9E77F
:1089100000F0AEFFB4E700F0ABFF04E000F0A8FF0A
:108920000020FFF76DFE0120FFF76AFEAAE7FFF7C0
:1089300088FEA7E7B0270020F8E2020010B5FFF795
:108940003FFE032102F0D2FD002010BDF8B5861CC9
:1089500000208DF800000C4601276846FEF766FEF1
:108960000F4801682160D0E90012891A8268044624
:10897000511AB51C07E000BF01F086F9D4E90001E7
:10898000401AA168091A491C8D42F5D82068304464
:1089900020609DF80000FEF76DFE3846F8BD00002F
:1089A0000043002030B482680468531C8360A154E3
:1089B000D0E901128A4202D330BC02F0A8BB30BC1D
:1089C00070470000034803C8814201D1012070476D
:1089D00000207047004300200249084490F930000D
:1089E000704700008C3F002070B5084C050009D08E
:1089F00010342168002907D008682060496828469B
:108A00008847F6E70834F4E770BD0000783F00209F
:108A10002DE9F05F26484168F1B3DFF898B00E68A1
:108A20008146DBF8004087688078E11B21F07F45B4
:108A3000ED1CB0B9DFF880804FF48030C8F84403F3
:108A4000C8F804031120FCF7B1FE1120FCF7B9FEB1
:108A50004FF0010AC8F800A02F2001F0CFFD89F8DF
:108A600002A0B54200D23546124BE8193C3320F043
:108A70007F401860DBF800105A46091B21F07F4147
:108A8000001B20F07F40C91C81420FD9106818607C
:108A90002F2001F0B3FD00E004E0BDE8F05F1120FD
:108AA000FCF79ABEBDE8F05F03F0BEBEBDE8F09FE4
:108AB000D8270020041501400010014070B505467C
:108AC0002DED108B0C469FED5BAB9FED5C9B486AD8
:108AD000FAF76EFE9FED5B1B53EC112BFAF781FD4D
