:020000040002F8
:10300000A09E00204D3302005533020057330200CA
:10301000593302005B3302005D3302000000000000
:103020000000000000000000000000005F3302000C
:1030300061330200000000006333020065330200C8
:10304000F9660200673302001D6D0200CD690200BF
:10305000DD69020067330200DD41020067330200D0
:1030600067330200673302006733020067330200F0
:1030700067330200673302006733020067330200E0
:1030800067330200516702006733020067330200B2
:10309000256A020067330200296A020067330200D2
:1030A00067330200673302006733020067330200B0
:1030B00067330200673302000000000000000000D8
:1030C0006733020067330200673302006733020090
:1030D00075670200673302006733020000000000DA
:1030E00000000000000000000000000000000000E0
:1030F00000000000000000000000000000000000D0
:1031000000000000000000000000000000000000BF
:1031100000000000000000000000000000000000AF
:10312000000000000000000000000000000000009F
:10313000000000000000000000000000000000008F
:10314000000000000000000000000000000000007F
:10315000000000000000000000000000000000006F
:10316000000000000000000000000000000000005F
:10317000000000000000000000000000000000004F
:10318000000000000000000000000000000000003F
:10319000000000000000000000000000000000002F
:1031A000000000000000000000000000000000001F
:1031B000000000000000000000000000000000000F
:1031C00000000000000000000000000000000000FF
:1031D00000000000000000000000000000000000EF
:1031E00000000000000000000000000000000000DF
:1031F00000000000000000000000000000000000CF
:10320000DFF80CD000F04EFD0048004705BF02007B
:10321000A09E002030B4044654E8000F0D4644E858
:103220000053002BF8D1156030BC704730B4044611
:1032300054E8000F40EA010544E80053002BF7D1A1
:10324000156030BC704730B4044654E8000F00EA03
:10325000010544E80053002BF7D1156030BC7047DE
:1032600030B4044654E8000F80EA010544E80053F6
:10327000002BF7D1156030BC704730B4044654E8D9
:10328000000F00EB010544E80053002BF7D1156057
:1032900030BC704730B4044654E8000FA0EB010581
:1032A00044E80053002BF7D1156030BC7047000094
:1032B00030B4044654E8000F0D4644E80053002B98
:1032C000F8D1156030BC704730B4044654E8000FA4
:1032D00040EA010544E80053002BF7D1156030BCEB
:1032E000704730B4044654E8000F00EA010544E892
:1032F0000053002BF7D1156030BC704730B4044642
:1033000054E8000F80EA010544E80053002BF7D190
:10331000156030BC704730B4044654E8000F00EB31
:10332000010544E80053002BF7D1156030BC70470D
:1033300030B4044654E8000FA0EB010544E8005304
:10334000002BF7D1156030BC70470000064880475D
:1033500006480047FEE7FEE7FEE7FEE7FEE7FEE77A
:10336000FEE7FEE7FEE7FEE72D6A020001320200FB
:103370002DE9F05F0546002092469B4688460646AA
:10338000814640241BE0284641464746224600F03D
:1033900034FB53465A46C01A914110D31146184681
:1033A000224600F01BFB2D1A67EB01084F46224610
:1033B0000120002100F012FB17EB00094E41201EF6
:1033C000A4F10104DFDC484631462A464346BDE805
:1033D000F09F0000004870479033030010B504468A
:1033E000FFF7F8FF0068005D00F0010010BD10B5A8
:1033F00040EA01040346A40703D009E010C9121FE4
:1034000010C3042AFAD203E011F8014B03F8014B70
:10341000521EF9D210BDD2B201E000F8012B491EB4
:10342000FBD270470022F6E710B513460A46044661
:103430001946FFF7F0FF204610BD421E12F8013F6B
:10344000002BFBD111F8013B02F8013B002BF9D115
:10345000704730B505462A460B4612F8010B13F8A3
:10346000014B08B1A042F8D01CB1002802D06D1C5D
:10347000F1E7284630BD10B5044604E00B7800F8AB
:10348000013B03B1491C521EF8D2204610BD421C1C
:1034900010F8011B0029FBD1801A704710B50022DB
:1034A00000E0521C835C8C5CA34201D1002BF8D15C
:1034B000D8B2E1B2401A10BD30B504460020034630
:1034C00000E05B1C934203D2E05CCD5C401BF8D073
:1034D00030BD034611F8012B00F8012B002AF9D169
:1034E0001846704730B505460020034600E05B1CD7
:1034F000934205D2EC5CC85C201A01D1002CF6D1B5
:1035000030BD70B5064603F0D7FD046805460A22B3
:103510000021304600F0E2FA2C6070BD70B506461E
:1035200003F0CAFD046805460A220021304600F077
:10353000D5FA2C6070BD2DE9FE4F804681EA03006C
:10354000C00F0C46009021F0004123F00045B8EB7D
:103550000200A94105D24046214690461C460B4632
:10356000024623F00040104347D0270DC7F30A005E
:10357000C3F30A510290401A019040286BDAC3F35A
:10358000130040F4801B0098924620B10023D2EB38
:10359000030A63EB0B0B01985946C0F140025046F9
:1035A00000F01CFA06460D4650465946019A00F0B6
:1035B00034FA10EB08006141002487EA115284EAD2
:1035C000E7731A4340D0009A62B3019A012A4FEA86
:1035D000075215DC001B61EB02014FF0004202EACA
:1035E0000752CDE90042001C41F5801132462B46BE
:1035F00000F0F2FA03B0BDE8F08F40462146F9E74B
:10360000001B61EB0201001C41F5801300185B41B7
:103610002018A2F5001747EB030140EAD570B61950
:103620006D4111E06D084FEA360645EAC0754FEA74
:103630000752001B61EB0201001C41F58011490893
:103640004FEA30000019514132462B4603B0BDE825
:10365000F04F00F0B2BA0098012240000023D0EBF6
:10366000020263EBE073009821464FEAE074B8EB86
:10367000000061EB0401E9E783F000435BE781F0C0
:10368000004158E72DE9FE4F81EA030404F00044AD
:1036900021F0004100944FF0000B23F0004350EA6A
:1036A00001045ED052EA03045BD0C3F30A54C1F3B1
:1036B0000A552C44A4F2F3340194A0FB0254C1F344
:1036C000130141F48011C3F3130343F4801301FB8E
:1036D000024400FB034E840A970A44EA815447EAF5
:1036E0008357A4FB076802958D0A05FB07854FEAFF
:1036F000932C04FB0C542705029D4FEA065847EA19
:103700001637B5EB08056EEB070C870E920E47EAED
:10371000811742EA8312A7FB0201B6EB0B0164EBAF
:1037200000042B0D43EA0C335E1844EB1C50DA46C0
:103730005146E7FB0201C5F313044FEA0B3343EA9A
:1037400014534FEA0432019C43EA0603A4F10C042B
:103750000294009CCDE900B400F03EFA03B0BDE84D
:10376000F08F00200146F9E72DE9F04D81EA0304CE
:1037700004F0004B21F0004514464FF0000A23F0FE
:10378000004150EA050220D054EA01021DD0C5F3E1
:103790000A570246C5F31303C1F31300C1F30A56D7
:1037A00040F4801543F48013A7EB0608101BD6469F
:1037B00008F2FD3873EB050002D308F1010801E0BF
:1037C00092185B41B8F1000F03DA00200146BDE812
:1037D000F08D00204FF48011064684460EE0171B42
:1037E00073EB050705D3121B63EB050306434CEA95
:1037F000010C49084FEA300092185B4150EA01077A
:10380000EDD152EA030012D082EA040083EA0501F6
:10381000084305D0101BAB4106D20122002306E06D
:1038200000224FF0004302E06FF0010253101AEB48
:1038300006004CEB085110EB0A0041EB0B01BDE810
:10384000F04D00F0BAB90EB5C10F80EAE07008443F
:10385000CA07002140F233438DE80E000A460B46AA
:1038600000F0BAF903B000BD0EB540F23341029149
:103870000021CDE900110A460B4600F0ADF903B076
:1038800000BD70B5C1F30A5201F000450024C1F338
:10389000130140F2FF3341F480119A4201DA002013
:1038A00070BD40F233439A42A2F2334203DC5242EB
:1038B00000F0A3F800E090402C43F1D0404270BDEE
:1038C000C1F30A5210B5C1F3130140F2FF3341F4C2
:1038D00080119A4201DA002010BD40F233439A422F
:1038E000A2F2334203DC524200F087F810BD904050
:1038F00010BD00F0004230F000400AD0C10D01F5CB
:103900006071C0F3160042EA0151C208400711433A
:10391000704700200146704730B5041E71F1000465
:1039200004DB4FF00044404264EB0101141E73F1CC
:10393000000405DB1C464FF00043524263EB0403D6
:103940008B4208BF824230BD30B5041E71F10004C5
:1039500004DB4FF00044404264EB0101141E73F19C
:10396000000405DB1C464FF00043524263EB0403A6
:10397000994208BF904230BD01F0004330B421F0BD
:10398000004150EA010206D00A0DA2F56072C1F3AF
:103990001301002A02DC30BC00207047440F44EAC7
:1039A000C104C100E01830BC00EBC25000F0CEB83A
:1039B00030B50B46014600202022012409E021FAFF
:1039C00002F59D4205D303FA02F5491B04FA02F5FC
:1039D0002844151EA2F10102F1DC30BD202A04DBCF
:1039E000203A00FA02F1002070479140C2F1200312
:1039F00020FA03F3194390407047202A04DB203A51
:103A000021FA02F00021704721FA02F3D040C2F1FE
:103A100020029140084319467047202A06DBCB1745
:103A2000203A41FA02F043EAE07306E041FA02F379
:103A3000D040C2F12002914008431946704700006F
:103A40000FB4002300B589B00CA900910B996FF059
:103A50000042CB601E4B06931E4B07930423CDE917
:103A600001321D4A089202466B46002000F0C0F960
:103A700009B05DF814FB70B586B006464FF0FF3014
:103A80000091CDE90101002015460C460490324614
:103A9000694604A8FFF7D4FF02460498211825B10F
:103AA00008B1084600E020462860049800280DD0A0
:103AB000002A02DD0098884208D0081B0094CDE956
:103AC00001043246694604A8FFF7BAFF06B070BD8C
:103AD0002940020047400200DD3302002DE9F04793
:103AE00091460F4680460446002614F8015B2DB12E
:103AF000FFF770FC0068405DC007F6D12B2D02D0A7
:103B00002D2D18D0641E4A463946204600F0ACFAE6
:103B100027B13968A14201D1C7F8008071054FF083
:103B200002040BD54042002803DD03F0C5FA04600F
:103B3000A007BDE8F08746F48066E4E70028F8DADD
:103B400003F0BAFA04606FF00040F2E70029A8BF62
:103B50007047401C490008BF20F00100704710B4B6
:103B6000B0FA80FC00FA0CF050EA010404BF10BC6B
:103B7000704749B1CCF1200421FA04F411FA0CF198
:103B800018BF012121430843A3EB0C01CB1D4FEAD1
:103B900000614FEA102042BF002010BC704700EBCC
:103BA000C35010440029A4BF10BC7047401C4900FA
:103BB00008BF20F0010010BC704710B5141E73F14F
:103BC000000408DA401C41F1000192185B411A43DD
:103BD00001D120F0010010BD2DE9F04D92469B4629
:103BE00011B1B1FA81F202E0B0FA80F220329046CF
:103BF000FFF7F4FE04460F4640EA0A0041EA0B01D3
:103C000053465A46084313D0114653EA010019D0CF
:103C1000C8F140025046FFF7F0FE05460E465046FA
:103C200059464246FFF7DAFE084305D0012004E07A
:103C300020463946BDE8F08D0020054346EAE0768F
:103C40002C4337430A986305E40AA0EB08000022DE
:103C5000FD0A44EA47540A3002D500200146E9E74C
:103C6000010510196941DDE9084500196941BDE800
:103C7000F04DA2E7C1F30A52C1F3130140F2FF3342
:103C800041F480119A4202DA00200146704740F266
:103C900033439A42A2F2334202DC5242FFF7ADBEF6
:103CA000FFF79CBE064C074D06E0E06840F00103BC
:103CB00094E8070098471034AC42F6D3FFF7A4FA13
:103CC000883C0300A83C03002DE9FF4F087883B02F
:103CD0009946FF2805D0491C2D2804D00024002037
:103CE00008E000200BE00124F9E700EB800003EB83
:103CF0004000491C0B78FF2BF7D104B14042002350
:103D00000293147819461D462D2C01D02B2C04D17A
:103D1000521C2D2C13D000240294AA461478FF2C98
:103D20000FD00A25A3FB057801FB05814FF0000C9D
:103D300003FB0C11521CE3194AEB0101EEE70124CD
:103D4000EAE7814453EA010002D019F5C87F06DA98
:103D500003980021C0E9001107B0BDE8F08F0025ED
:103D6000AE4E2F46DFF8B882184600F0F1F9CDE9E3
:103D70000001B9F1000002DAC9F1000400E00446D4
:103D80000023A74A1AEB030B42EB045A12E0E007A8
:103D900007D02A46334638464146FFF773FC0746AC
:103DA00088462A46334610461946FFF76BFC0546FF
:103DB0000E466410002CEAD1DDE90001B9F1000FD4
:103DC0005A46534606DAFFF7CFFC3A464346FFF71A
:103DD000CBFC05E0FFF756FC3A464346FFF752FCA2
:103DE000029A0AB181F00041039AC2E90001B3E7E7
:103DF0002DE9FF4F1F468DB0D7E901464FF0FF3840
:103E00002E2045464FF000090B90B9696D1C0E98A5
:103E10008847396A824688470028F6D1BAF1FF3FC1
:103E20000AD024F4D064002E11DDBAF12B0F08D093
:103E3000BAF12D0F0BD102E0404611B08DE744F4EA
:103E40008064B9696D1C0E9888478246761E694663
:103E5000600501D52D2000E02B208DF8000001F138
:103E6000010B0DF1200809E0B9696D1C0E98884717
:103E700082460F9844F40074761E0560002E02DD21
:103E8000BAF1300FF0D00B998A453ED144F080044E
:103E900006E00F99681CA9F1010944F40074086058
:103EA000B9696D1C761E0E98884782463028F0D07E
:103EB0002BE00B998A4505D1200603D444F08004F9
:103EC000761E18E0504603F090FE08B30DF1130182
:103ED000761E44F400748B4508D2AAF130000BF82A
:103EE000010B200607D5A9F1010003E0200602D44A
:103EF00009F101008146A00502D50F99681C0860F0
:103F0000B9696D1C0E9888478246002ED1DC53E0BB
:103F1000002E51DDBAF1650F02D0BAF1450F4BD139
:103F2000A00549D5B9696D1C24F44074761E0E981D
:103F300088478246002E0CDD2B2804D0BAF12D0FC5
:103F400007D144F48074B9696D1C0E988847824685
:103F5000761EE00501D52D2100E02B2108F8011B7C
:103F6000CDF82C8021E00DF12901761E44F4007477
:103F700088450CD2AAF1300010F0FF0088F800004C
:103F800002D10B99884509D908F1010806E0E0053E
:103F900001D5244801E042F20F708146B9696D1CD9
:103FA0000E98884782460F980560002E04DD504623
:103FB00003F01BFE0028D6D1F9690E988847FF2030
:103FC0008BF8000088F800000020069007904B4610
:103FD0006A4608A906A8FFF777FEA00502D46FF08D
:103FE00001002AE714F0240F0AD0E00714D1DDE91C
:103FF00006123868031D3B600068C0E900120BE040
:10400000DDE90601FFF7B8FC0146E00704D1386896
:10401000021D3A600068016028460EE70000144067
:104020000000F03FF1D8FFFF426842B1016811F88B
:10403000013B23B1521EC0E900121846704701210E
:10404000C160881E704742685AB1C368016843B9AD
:1040500083688B4205D0491E521CC0E90012002023
:1040600070474FF0FF3070472DE9F05F82460078CF
:10407000002715468B460AF10104B946302801D0C5
:104080009DB113E014F8010B0127782803D05828BC
:1040900001D045B10AE00DB1102D07D10027102540
:1040A00014F8010B02E0082500E00A250026B046BE
:1040B0000EE005FB080005FB06F1012701EB1046A9
:1040C0001FFA80F8B6F5803F00D3B94614F8010B0B
:1040D000294600F02FF80028EBDABBF1000F05D0DD
:1040E0000FB1641E00E05446CBF80040B9F1000F58
:1040F00006D002F0E1FF02210160C81EBDE8F09F7A
:1041000048EA0640FAE770B521F0004303430CD0BB
:10411000C1F30A550024D5EB040564EB0403D6175C
:10412000AD1AB34102DB0020014670BD201841EBFF
:10413000025170BD3A2800D2303820F02002412AC6
:1041400001D3A2F13700884201D34FF0FF3070470E
:104150000EB540F2334202920022CDE9002213460E
:10416000FFF73AFD03B000BD70B58C1810F8015B85
:1041700015F0070301D110F8013B2A1106D110F800
:10418000012B03E010F8016B01F8016B5B1EF9D104
:104190002B0705D40023521E0DD401F8013BFAE78A
:1041A00010F8013BCB1A921C03E013F8015B01F8F5
:1041B000015B521EF9D5A142D8D3002070BD00008A
:1041C0000346104605E000BF13F8012B00EB40103A
:1041D00010440A1EA1F10101F6DC70472DE9F047F9
:1041E00000268CB0DFF86091B0464FF48075012452
:1041F00037460696284609F0E7FA38B1D9F804039D
:10420000204203D0284609F0D5FA26432D1D64002C
:104210007F1CADB2082FEDD34FF4BE74204609F0D9
:10422000D3FA48B1204609F0C5FA46F0004606AA7E
:104230000121002009F0AAFA444D16F0FF0F15D015
:104240000127002437420DD009EB8401D1F8100575
:10425000D1F81015C0F3042055F82420C1F3014112
:1042600002B190477F00641C082CEBD3002E67DA64
:104270004FF0FF30CDE9088000263446281910F8A9
:10428000507F90F9000027F0C008401C44D009A9D5
:10429000404608F08AF858B34FEA9719404605F0AF
:1042A0005FFE55F820701FB1B9F1030F03D00FE086
:1042B000B9F1030F30D108A84FEAD80208F007037C
:1042C000815C4FF0010C0CFA03FC41EA0C018154B3
:1042D0004FF0A04101EB8800D0F8000706A9C0F319
:1042E000014A404608F061F818B1BAF1020F03D054
:1042F00012E0BAF1030F0FD1B9F1030F08D1BAF1EF
:10430000020F1BD00221404609F0F5F9761CF6B2E7
:1043100017B149464046B847641C042CAED3002E62
:104320000ED06A460121002009F030FA0699009863
:10433000884205D00690089809909DE70321E2E79E
:104340000CB0BDE8F0870000006000409C410020F8
:104350002DE9F0410F460646002509E0705D04F0A6
:10436000F9FB040003D0112CF8D004F0ABFA6D1C5B
:10437000BD42F3D32046BDE8F081000070B58A4C01
:1043800000202DED108B2118401C0A28CA7C02F059
:104390000F02CA74F7DB207DFFF766FA41EC190BB8
:1043A000E07CFFF761FA9FED818B53EC182BFFF750
:1043B00069F953EC192BFFF7BEF841EC1B0BA07DFC
:1043C000FFF752FA41EC190B607DFFF74DFA53EC01
:1043D000182BFFF757F953EC192BFFF7ACF841EC0A
:1043E0001C0BE07EFFF740FA41EC1A0BA07EFFF7B2
:1043F0003BFA53EC182BFFF745F941EC1F0B607E9D
:10440000FFF732FA9FED6B9B53EC192BFFF73AF94C
:1044100041EC1E0B207EFFF727FA9FED68DB53EC83
:104420001D2BFFF72FF953EC1E2BFFF784F853ECED
:104430001F2BFFF780F853EC1A2BFFF77CF89FED4A
:1044400061EB53EC1E2BFFF71DF953EC1C2BFFF710
:1044500072F89FED5EAB53EC1A2BFFF785F953EC26
:104460001B2BFFF768F85B4D41EC100B85ED060B3D
:10447000607F532805D151EC100B81F00041C5E954
:10448000060100202118401CCA7F0A2802F00F02F2
:10449000CA77F7DB94F821001F34FFF7E5F941EC08
:1044A0001B0B6078FFF7E0F953EC182BFFF7EAF8E5
:1044B00041EC1C0B2078FFF7D7F953EC192BFFF7D1
:1044C000E1F853EC1C2BFFF736F853EC1B2BFFF7EE
:1044D00032F841EC1B0B2079FFF7C6F941EC1C0BBD
:1044E000E078FFF7C1F953EC182BFFF7CBF853EC4A
:1044F0001C2BFFF720F841EC1C0BE079FFF7B4F917
:1045000053EC192BFFF7BEF841EC190BA079FFF71C
:10451000ABF953EC1D2BFFF7B5F853EC192BFFF754
:104520000AF841EC190B607AFFF79EF941EC1D0B7C
:10453000207AFFF799F953EC182BFFF7A3F853EC07
:104540001D2BFEF7F8FF41EC100B51EC190B53EC4F
:10455000102BFEF7F0FF53EC1E2BFFF793F853ECF4
:104560001A2BFFF701F941EC180B53EC1A2B51EC05
:104570001C0BFFF7F9F853EC1B2BFEF7DCFF53EC99
:10458000182BFEF7D8FF41EC100B85ED080BE07AF5
:10459000572805D151EC100B81F00041C5E9080105
:1045A000BDEC108B70BD0000303B0020000000000F
:1045B00000002440000000000000594000000000FE
:1045C00000408F402D431CEBE2361A3F00000000F4
:1045D00000004E408027002010B52D4C2DED0A8B99
:1045E0009FED258B94ED060B9FED1FCB9FED209B40
:1045F0009FED23AB9FED24BB53EC182B51EC100B1C
:10460000FFF7A2F902D853EC1A2B01E053EC1B2B55
:1046100094ED060B51EC100BFFF734F853EC1C2B08
:10462000FFF7A2F8FFF72DF9606094ED080B53EC4B
:10463000182B51EC100BFFF787F902D853EC1A2B0B
:1046400001E053EC1B2B94ED080B51EC100BFFF722
:1046500019F853EC192BFFF787F8FFF712F9A06050
:10466000BDEC0A8B10BD0000000000000080564029
:104670000000000000806640000000000000000014
:10468000000000C0FFFF5F4100000000000060412B
:104690008027002070B5052211491248FEF722FF3D
:1046A000104D114C38B10E490522891D2846FEF7E0
:1046B00019FF88B10AE095F82C00302801D90120B3
:1046C00000E00020FFF7D0F8C4E90401FFF756FE30
:1046D000BDE87040FFF780BF687C4128F1D1EEE76C
:1046E000D02D0300303B002080270020024900200D
:1046F000087000F003B8000080270020064810B5BD
:10470000002101700121817000F0A4FA00F0ACFAE0
:10471000BDE8104000F04EB8A827002038B5684624
:1047200004F0A4F900282DD19DF800000025164CB6
:10473000242802D021787F2900D32570134A2178BC
:104740005054491CC9B221700A281BD15554491C28
:10475000C9B22170104600F06FF86078401CC0B2FA
:1047600060701E280ED9657009A406F059FC024637
:10477000234609A1002002F053F8044A09A10020B1
:1047800002F04EF838BD0000A8270020933B00201F
:10479000494E464F000000005B25645D205B257399
:1047A0005D3A20004E6D6561537472696E67202515
:1047B0007300000010B500210A2008F0C6FF0A4867
:1047C00007F058FF01210A2008F0BFFF00211F2039
:1047D00008F0BBFF054807F04DFF0121BDE8104080
:1047E0001F2008F0B2BF000040420F0080841E006E
:1047F00070B5002416462546631E60B15EB10129DE
:1048000009DD0278242A08D1012406E06A40641CEC
:10481000D5B28C4201DB184670BD02572A2AF5D169
:10482000280901F05DFF307005F00F0001F058FF1E
:104830007070601C70BD0000F8B50546007801245A
:104840000026242815D10F466A462846FFF7D0FFD8
:1048500000280EDBBF1EB8420BDA29569DF9002056
:104860009142EFD128449DF9011090F9010088424E
:1048700002D0E9E1062EFCD8A019761C285CF6B21D
:104880002C28F7D10020F14F05E0295D3954401C58
:10489000641CC0B2E4B2B042F7D30522EC49EB4845
:1048A000FEF720FE50B1EA490522891DE748FEF7D0
:1048B00019FE002874D0C7E10B28DAD82118401C53
:1048C000695CC0B22C29F7D1002106E07B182A5D73
:1048D000491C641C9A71C9B2E4B28142F6D300202B
:1048E00001E00A28C5D82118401C695CC0B22C29F7
:1048F000F7D1002106E07B182A5D491C641CDA749C
:10490000C9B2E4B28142F6D3002001E00228B0D857
:104910002118401C695CC0B22C29F7D1002106E0A7
:104920007B182A5D491C641C5A77C9B2E4B28142E3
:10493000F6D3002001E00B289BD82118401C695CAD
:10494000C0B22C29F7D1002106E07B182A5D491C52
:10495000641CDA77C9B2E4B28142F6D3002001E0E8
:10496000022886D82118401C695CC0B22C29F7D1D6
:10497000002107E07B182A5D491C641C83F82A206B
:10498000C9B2E4B28142F5D3002001E0022892D8F6
:104990002118401C695CC0B22C29F7D1002108E025
:1049A00090E07B182A5D491C641C83F82C20C9B256
:1049B000E4B28142F5D3002001E0032892D8211807
:1049C000401C695CC0B22C29F7D1002107E07B189C
:1049D0002A5D491C641C83F82E20C9B2E4B28142CE
:1049E000F5D3002001E0062891D82118401C695C0D
:1049F000C0B22C29F7D1002107E07B182A5D491CA1
:104A0000641C83F83120C9B2E4B28142F5D300209E
:104A100001E0082890D82118401C695CC0B22C29FC
:104A2000F7D1002107E07B182A5D491C641C83F83C
:104A30003720C9B2E4B28142F5D3002001E0022858
:104A40008FD82118401C695CC0B22C29F7D10021F5
:104A500007E07B182A5D491C641C83F83F20C9B21B
:104A6000E4B28142F5D3002001E0082871D8211872
:104A7000401C695CC0B22C29F7D1002107E07B18EB
:104A80002A5D491C641C83F84120C9B2E4B281420A
:104A9000F5D3002001E002285BD82118401C695C96
:104AA000C0B22C29F7D1002107E07B182A5D491CF0
:104AB000641C83F84920C9B2E4B28142F5D3BFE057
:104AC0000B2846D82118401C695CC0B22C29F7D1AC
:104AD000002106E07B182A5D491C641C9A71C9B24A
:104AE000E4B28142F6D3002001E0022831D8211837
:104AF000401C695CC0B22C29F7D1002106E07B186C
:104B00002A5D491C641C5A74C9B2E4B28142F6D3CE
:104B1000002001E00A281CD82118401C695CC0B2A2
:104B20002C29F7D1002106E07B182A5D491C641C62
:104B3000DA74C9B2E4B28142F6D3002001E002285F
:104B400007D82118401C695CC0B22C29F7D100217C
:104B500007E079E07B182A5D491C641C5A77C9B2CA
:104B6000E4B28142F6D3002001E00B286CD8211872
:104B7000401C695CC0B22C29F7D1002106E07B18EB
:104B80002A5D491C641CDA77C9B2E4B28142F6D3CB
:104B9000002001E0022857D82118401C695CC0B2EF
:104BA0002C29F7D1002107E07B182A5D491C641CE1
:104BB00083F82A20C9B2E4B28142F5D3002001E093
:104BC000082841D82118401C695CC0B22C29F7D1B3
:104BD000002107E07B182A5D491C641C83F84B20E8
:104BE000C9B2E4B28142F5D3002001E008282BD8F5
:104BF0002118401C695CC0B22C29F7D1002107E0C4
:104C00007B182A5D491C641C83F85320C9B2E4B2A6
:104C10008142F5D3002001E0082815D82118401C56
:104C2000695CC0B22C29F7D1002107E07B182A5D0E
:104C3000491C641C83F85B20C9B2E4B28142F5D3FD
:104C4000FFF728FD0120F8BD0020F8BD303B002013
:104C5000D02D030010B50A2008F020FDBDE810405B
:104C60001F2008F01BBD000010B5114C8AB0207841
:104C700003281AD003F0F2FE18220E496846FEF708
:104C8000B6FBA01C0690012007900B4808904FF43B
:104C9000807009900623094A06A9684603F000FFC0
:104CA00008B103F00FFE032020700AB010BD000011
:104CB000AB270020042E0300133D002041270300F2
:104CC0002DE9F041042007F0ABF8044606F0A8F9FE
:104CD0000246234679A1002001F0A2FD7AA100201E
:104CE00001F09EFD00F098F9042007F099F80446C1
:104CF00006F096F90246234670A1002001F090FDCF
:104D000076A1002001F08CFD002000F037FE042089
:104D100007F086F8044606F083F90246234667A1A9
:104D2000002001F07DFD70A1002001F079FD00243C
:104D3000661E4FF4FA6713E0384605F099FD641CCF
:104D40000A2C0DDD022007F06BF8044606F068F926
:104D50000246234659A1002001F062FD67A153E0FD
:104D600000F022FA0028E7DB042007F059F8044697
:104D700006F056F90246234650A1002001F050FDEE
:104D800065A1002001F04CFD00253C4613E02046C3
:104D900005F06EFD6D1C0A2D0DDD022007F040F8B8
:104DA000044606F03DF90246234644A1002001F0E6
:104DB00037FD5DA128E000F0ADF90028E7DB042015
:104DC00007F02EF8054606F02BF902462B463BA1CC
:104DD000002001F025FD5AA1002001F021FD002551
:104DE00018E0204605F044FD6D1C0A2D12DD02205E
:104DF00007F016F8044606F013F9024623462FA1E1
:104E0000002001F00DFD52A1002001F009FD304607
:104E1000BDE8F08100F042F90028E2DB042006F052
:104E2000FFFF044606F0FCF80246234623A10020BB
:104E300001F0F6FC4CA1002001F0F2FC00F03EFD78
:104E4000012000F0C3FD042006F0EAFF044606F04E
:104E5000E7F80246234619A1002001F0E1FC46A133
:104E6000002001F0DDFC00F059FD00F0FBFC042007
:104E700006F0D6FF044606F0D3F8024623460FA1FB
:104E8000002001F0CDFC40A1002001F0C9FC00F0A1
:104E90003DFA0546042006F0C3FF044606F0C0F8BC
:104EA0000246234605A1002001F0BAFC2A463DA196
:104EB000002001F0B5FC0020AAE700005B25645D3E
:104EC000205B25735D3A2000636865636B20617524
:104ED000746F20626175640D0A00000073657420B0
:104EE0006563686F0D0A0000636865636B20736912
:104EF0006D20636172640D0A0000000063686563E1
:104F00006B2073696D20636172642074696D656FD5
:104F100075740D0A00000000636865636B206E65A0
:104F200074776F726B0D0A00636865636B206E6542
:104F300074776F726B2074696D656F75740D0A00FC
:104F4000636865636B20475052530D0A00000000F0
:104F5000636865636B20475052532074696D656FB9
:104F600075740D0A0000000073657420636F6E7421
:104F700065787420300D0A0073657420646E7320A8
:104F80006D6F64650D0A0000636865636B204753AD
:104F90004D204E6574776F726B206F6B21210D0A67
:104FA00000000000727373693D25640D0A00000063
:104FB0002DE9F0414FF0FF350A24402007F080F83A
:104FC00007001FD04021FEF72DFA10A210A138468D
:104FD00002F046F800F0FF084FF4FA7641463846F2
:104FE000FFF7B6F900223146104600F06BFE054689
:104FF000304605F03DFC641E0DB1002CEEDC384659
:1050000005F046FE2846BDE8F0810000415400004E
:1050100025730D0A000000002DE9F04300254FF430
:10502000487791B001262C46384605F021FC4021F6
:105030006846FEF7F7F9B946E8464FF47A7700BFBD
:1050400000F054FB002805DC641CA4B2022005F02B
:105050000FFC11E0402D03D208F805006D1CEDB2E5
:10506000032D09D9012E07D10AA16846FEF7F1F9EF
:1050700010B100264C46E3E7BC42E1D3012E05D136
:10508000FFF796FF4FF4E13000F010F911B0BDE8E2
:10509000F08300005244590D0A00000070B54FF033
:1050A000FF352C46402007F00BF8060020D04021A9
:1050B000FEF7B8F90FA212A1304601F0D1FFC1B23C
:1050C0003046FFF745F940213046FEF7ABF90122A3
:1050D0004FF4FA71304600F0F5FD040005D40AA142
:1050E0003046FEF7B6F900B92C46304605F0D0FD43
:1050F000204670BD41542B43474154543F000000AB
:1051000025730D0A000000002B43474154543A20F8
:105110003100000070B54FF0FF352C46402006F0FE
:10512000CFFF060027D04021FEF77CF913A216A17D
:10513000304601F095FFC1B23046FFF709F9402132
:105140003046FEF76FF901224FF4FA71304600F055
:10515000B9FD04000CD40EA13046FEF77AF920B94F
:105160000EA13046FEF775F908B1002400E02C4688
:10517000304605F08DFD204670BD000041542B43A4
:105180005245473F0000000025730D0A0000000053
:105190002B435245473A20302C3100002B435245D7
:1051A000473A20302C35000070B54FF0FF363446BA
:1051B000402006F085FF05002ED04021FEF732F991
:1051C00016A219A1284601F04BFFC1B22846FFF7ED
:1051D000BFF803F0ABFB024615A1002001F020FB55
:1051E0002A4614A1002001F01BFB40212846FEF7AF
:1051F00019F901224FF4FA71284600F063FD04000A
:1052000007D411A12846FEF724F908B1002400E0D4
:105210003446284605F03CFD204670BD41542B43E2
:1052200050494E3F0000000025730D0A00000000A9
:105230002575200041545F434F4D4D414E4420524F
:1052400045512025730D0A002B4350494E3A2052F8
:10525000454144590000000070B54FF0FF34402034
:1052600006F02EFF050015D04021FEF7DBF80AA25C
:105270000CA1284601F0F4FEC1B22846FFF768F8F9
:1052800001224FF4FA71002000F01CFD044628466C
:1052900005F0FEFC204670BD41542B5149434C4F54
:1052A0005345000025730D0A00000000F8B50646BE
:1052B0004FF0FF34402006F003FF050018D04021D6
:1052C000FEF7B0F80BA0009033460BA20CA12846C5
:1052D00001F0C6FEC1B22846FFF73AF801224FF4AA
:1052E000FA71002000F0EEFC0446284605F0D0FCE0
:1052F0002046F8BD2657000041542B4950523D002E
:105300002573256425730D0A0000000070B54FF069
:10531000FF363446402006F0D3FE050039D0402148
:10532000FEF780F81CA21EA1284601F099FEC1B22A
:105330002846FFF70DF840212846FEF773F80122B2
:105340004FF4FA71284600F0BDFC04001ED416A1EB
:105350002846FEF77EF880B105F10800FEF7D1F887
:1053600004000CD0012C0CD0A01E1C280BD8A41EAD
:1053700060426D2101EB400408E0344606E035242C
:1053800004E06F2402E01F2C00DB3324284605F0E4
:105390007FFC204670BD000041542B435351000058
:1053A00025730D0A000000002B4353513A200000E2
:1053B00010B5062008F072F90E2008F06FF9BDE86C
:1053C00010400F2008F06AB92DE9FC4180461646CE
:1053D0000F464FF0FF34402006F072FE050032D039
:1053E0004021FEF71FF8CDE90076B8F1000F2DD06F
:1053F00017A319A21BA1284601F032FEC1B228460C
:10540000FEF7A6FF03F092FA02461BA1002001F06E
:1054100007FA2A4619A1002001F002FA4021284685
:10542000FEF700F801224FF47A71002000F04AFCE8
:10543000040005D443F69821002000F0D1FC044676
:10544000284605F025FC2046BDE8FC8112A3D0E7E4
:10545000225544502200000041542B51494F5045E1
:105460004E3D0000257325732C222573222C222506
:1054700064220D0A000000002575200047736D5F4F
:105480004F70656E536F636B6574436D6420524556
:10549000512025730D0A00002254435022000000C1
:1054A00010B50021062008F05BF9C82005F0E0F9EE
:1054B0000121062008F054F9642005F0D9F90121F2
:1054C0000F2008F04DF94FF47A74204605F0D0F91A
:1054D00000210F2008F044F92046BDE8104005F0F7
:1054E000C7B900002DE9F04391B081460D460B4647
:1054F0004FF0FF3700243EA241A1684601F0B0FD05
:10550000C6B241A005F094FD31466846FEF720FF83
:1055100003F00CFA024640A1002001F081F96A462E
:105520003EA1002001F07CF94FF4FA784021684652
:10553000FDF778FF4146684600F06AFB060004D597
:105540006FF0020011B0BDE8F08303F0EFF90246FE
:1055500031A1002001F064F96B46324633A10020EE
:1055600001F05EF936A16846FDF773FF064636A1E5
:105570006846FDF76EFF56EA0001D7D008B13846FD
:10558000E0E733A13046FDF764FF20B1001DFDF7D1
:10559000B8FF06460DE06FF00100D3E700F0A6F873
:1055A000002803DA012005F063F902E009F804009D
:1055B000641CB44201DAAC42F0DB01224146002017
:1055C00000F080FB24A005F033FD03F0AFF90246A4
:1055D00011A1002001F024F9224623A1002001F0AE
:1055E0001FF92146484605F0F1F92046AAE70000D8
:1055F00041542B514952443D302C312C302C000069
:10560000257325640D0A000047736D5F51495244AC
:105610005F73746172740000257520005245435613
:105620005F434D443A25730A00000000434D442077
:1056300072657370206C696E652025643A2573006D
:105640002B514952443A00004F4B0D0A0000000014
:105650005443502C0000000047736D5F5149524481
:105660005F656E640000000047736D5F51495244EE
:10567000207265742025640A0000000070B514468D
:105680000D460646FFF72EFF411C08D10123224696
:1056900006A1002000F00CFA10B14FF0FF3070BDF1
:1056A00029463046BDE87040FFF71CBF2B514952D8
:1056B00044493A000C4910B50A4B4A884FF400742B
:1056C0009854521C93B24B808888401C82B20020B0
:1056D0008A80A34200D14880A24202D148808880BB
:1056E000088010BD133E0020AE2700204FF0FF3091
:1056F00072B609498A8862B108480B88C05C5B1C95
:105700009BB20B80B3F5007F01D100230B80521EAA
:105710008A8062B670470000AE270020133E00204A
:105720002DE9F04107460D464FF0FF341FA005F06C
:105730007FFC402006F0C4FC060031D04021FDF77C
:1057400071FE2B461FA222A1304601F089FCC1B296
:105750003046FEF7FDFD20A005F06AFC4FF4FA602C
:1057600000F090FB044622A005F062FCACB929468B
:105770003846FEF7EDFD24A005F05AFC28A005F000
:1057800057FC01224FF4FA71002000F09BFA044606
:1057900029A005F04DFC04B92C46304605F078FAF6
:1057A0002BA005F045FC2046BDE8F08147736D5FF6
:1057B00053656E6444617461436D645F73746172B8
:1057C0007400000041542B514953454E443D0000A4
:1057D000257325640D0A000047736D5F53656E6481
:1057E00044617461436D645F6D6964310000000061
:1057F00047736D5F53656E6444617461436D645FAC
:105800006D6964316200000047736D5F53656E64BB
:1058100044617461436D645F6D696432000000002F
:1058200047736D5F53656E6444617461436D645F7B
:105830006D6964330000000047736D5F53656E64EB
:1058400044617461436D645F6D696433620000009C
:1058500047736D5F53656E6444617461436D645F4B
:10586000656E640070B54FF0FF34402006F028FCF0
:10587000050019D04021FDF7D5FD0CA20DA1284649
:1058800001F0EEFBC1B22846FEF762FD402128463A
:10589000FDF7C8FD01224FF4FA71002000F012FA62
:1058A0000446284605F0F4F9204670BD41545330B3
:1058B0003D31000025730D0A0000000070B54FF067
:1058C000FF34402006F0FCFB050019D04021FDF715
:1058D000A9FD0CA20FA1284601F0C2FBC1B22846C7
:1058E000FEF736FD40212846FDF79CFD01224FF4CE
:1058F000FA71002000F0E6F90446284605F0C8F9E0
:10590000204670BD41542B51494647434E543D30CB
:105910000000000025730D0A0000000070B54FF074
:10592000FF34402006F0CCFB050019D04021FDF7E4
:1059300079FD0CA20FA1284601F092FBC1B22846C6
:10594000FEF706FD40212846FDF76CFD01224FF4CD
:10595000FA71002000F0B6F90446284605F098F9DF
:10596000204670BD41542B5149444E5349503D315E
:105970000000000025730D0A0000000070B5064607
:105980004FF0FF34402006F09BFB050016D040216D
:10599000FDF748FD33460AA20AA1284601F060FB44
:1059A000C1B22846FEF7D4FC01224FF4FA71002060
:1059B00000F088F90446284605F06AF9204670BDD3
:1059C00041544500257325640D0A000070B5064654
:1059D0004FF0FF35402006F073FB040026D0402135
:1059E000FDF720FD334612A214A1204601F038FB3A
:1059F000C1B22046FEF7ACFC02F098FF024611A1AE
:105A0000002000F00DFF22460FA1002000F008FF4B
:105A100040212046FDF706FD01224FF4FA710020D7
:105A200000F050F90546204605F032F9284670BDD1
:105A300041542B51494E44493D00000025732564D3
:105A40000D0A00002575200047736D5F5365745182
:105A50004E44492025730A0010B5114C8AB02078B5
:105A600002281AD002F0FAFF18220E496846FDF704
:105A7000BEFC601C0690012007900B4808904FF474
:105A8000807009900623094A06A9684603F008F8C1
:105A900008B102F017FF022020700AB010BD00000C
:105AA000AB270020EC2D0300133C0020412703000E
:105AB0002DE9FF4F91B0074600244FF0FF36154601
:105AC000A04640216846FDF7ADFCA246E9466FF0CE
:105AD000010B00BFFFF70AFE002805DA6D1EADB20C
:105AE000012004F0C5FE3EE009F80400641CE4B2A5
:105AF000402C0FD302F01AFF024628A1002000F02C
:105B00008FFE224626A1002000F08AFE584615B0DE
:105B1000BDE8F08FB8F100000FD029A1FDF799FC86
:105B200008B3002F37D0A0EB090214466946384667
:105B3000FDF75DFC07F804A02DE068461299FDF71B
:105B400088FC5FEA00080ED002F0F0FE024613A1C6
:105B5000002000F065FE6A461AA1002000F060FEF9
:105B600014985E4690B1002DB4D11DA405F058FAEA
:105B7000024623461CA1002000F052FE6B4632462E
:105B80001CA1002000F04CFE3046C0E71FB1A8EB7E
:105B900009042246CAE70026E7E700002575200031
:105BA00047736D5F5761697434436D642062756635
:105BB000666572206F766572666C6F772C2025643F
:105BC0000D0A000047736D5F5761697434436D645B
:105BD00020666F756E6420636D642025730D0A0066
:105BE000494E464F000000005B25645D205B257335
:105BF0005D3A200047736D5F5761697434436D648B
:105C000020726574202564203A2025730D0A000057
:105C10002DE9F04190B080460D464FF0FF3600244C
:105C200040216846FDF7FEFB4FEA0D07FFF75EFDDA
:105C3000002805DA6D1EADB2012004F019FE1FE048
:105C40003855641C402C10DB02F070FE024612A195
:105C5000002000F0E5FD224610A1002000F0E0FD4C
:105C60006FF0010010B0BDE8F081022C08D33819A4
:105C700010F8021C0D2903D110F8010C0A2803D0DA
:105C8000002DD3D13046EDE7224669464046FDF768
:105C9000AEFB2646F6E700002575200047736D5FD2
:105CA000576169744E65774C696E652062756666EA
:105CB0006572206F766572666C6F772C2025640D97
:105CC0000A0000002DE9F04790B082460E4691464A
:105CD0004FF0FF37002440216846FDF7A3FBB9F1E0
:105CE000000F01D0042500E00225E846FFF7FEFC86
:105CF000002805DA761EB6B2012004F0B9FD36E0C0
:105D000008F80400641CE4B2AC4216DBB9F1000FE1
:105D100001D020A100E021A16846FDF79AFB60B107
:105D2000AC4208DDBAF1000F05D0A0EB08026946CD
:105D30005046FDF75CFB00271BE0402C17D302F018
:105D4000F5FD024616A1002000F06AFD224615A1CD
:105D5000002000F065FD4021684604F037FEA8EB06
:105D600005012A4668464031FDF741FB2C46002ECE
:105D7000BCD102F0DBFD024609A1002000F050FD7D
:105D80006B463A460FA1002000F04AFD10B038469D
:105D9000BDE8F0874F4B0D0A000000004F4B00009C
:105DA0002575200041545F434F4D4D414E442052D4
:105DB0004553505F6F766572666C6F772025640D72
:105DC0000A00000041545F434F4D4D414E44207244
:105DD000657420256420524553502025730D0A0018
:105DE0002DE9F04790B082460D464FF0FF36002473
:105DF00040216846FDF716FB0C27E846FFF776FCC6
:105E0000002805DA6D1EADB2012004F031FD23E05B
:105E100008F80400641CE4B2BC421DDB11A1684612
:105E2000FDF717FB814613A16846FDF712FB0146FB
:105E3000B9F1000F0CD0BC4208DDBAF1000F05D05B
:105E4000A9EB080269465046FDF7D1FA002605E0A5
:105E500011B16FF0010601E0002DCFD110B0304636
:105E6000BDE8F087434F4E4E454354204F4B0D0A3B
:105E700000000000434F4E4E454354204641494CDC
:105E80000D0A000070B54FF0FF350446FFF72EFCF9
:105E9000002805DA641EA4B2012004F0E9FC07E042
:105EA000C0B23E2801D00DB102E00025202801D06B
:105EB000002CEBD1284670BDF8B56D4604466E1C2B
:105EC0002946282000F02BF8002827D03146292029
:105ED00000F025F8002821D0BDF8000020802946D8
:105EE0002A2000F01CF8002818D031462B2000F0A2
:105EF00016F8002812D0BDF80000608029462C203A
:105F000000F00DF8002809D031462D2000F007F8E8
:105F1000002803D0BDF80000A0800120F8BD10B516
:105F200006F07AFD08B1002010BD012010BD38B583
:105F3000044669462020FFF7F2FF00280ED09DF8A6
:105F4000000004F0070100F0F80001438DF8001094
:105F5000202000F08BF8002800D0012038BD38B593
:105F6000044669462320FFF7DAFF00280ED09DF88B
:105F7000000000F0CF0040EA0410C1B28DF800101C
:105F8000232000F073F8002800D0012038BD000065
:105F90001CB5044669462020FFF7C1FF002816D033
:105FA00001A92320FFF7BBFF002810D09DF80010A7
:105FB00021480A0905D1027802F0F0020A438DF85F
:105FC00000202CB1012C18D0022C09D000201CBDBF
:105FD0009DF80010017001F00F008DF800001AE02C
:105FE0009DF8000000F0F7008DF800009DF8040017
:105FF00000F0F70040F008000BE09DF8000000F012
:10600000F70040F008008DF800009DF8040000F053
:10601000F7008DF804009DF80010202000F026F80D
:106020000028D4D09DF80410232000F01FF8002889
:10603000CDD001201CBD00007827002038B50446D3
:1060400069462020FFF76BFF00280ED09DF8000066
:1060500000F00F0040EA0410C1B28DF800102020BB
:1060600000F004F8002800D0012038BD10B506F07B
:10607000D9FC08B1002010BD012010BD2DE9FC4164
:10608000074615460E4600246846009308F0C2FCF9
:1060900060F30704C4F3C00030702009387001A910
:1060A000009800F0DDF80099019A014400910A443B
:1060B000511A022904DB684608F0B2FC288001204E
:1060C000BDE8FC812DE9FC41074600240E4625462B
:1060D0006846009208F09EFC0146204661F30700E6
:1060E0000009022819D101A9009800F0B9F8009917
:1060F00005460844019900900144081A02280CDB67
:10610000684608F087FC60F3070404F0010038706B
:10611000684608F07FFC307001252846BDE8FC8108
:106120002DE9FC5F8046DDE90EA00024CDE90004E6
:10613000994617460E462546DDF834B0684608F005
:1061400069FC60F30704200903282CD1C4F3C001C3
:1061500088F80010C4F34100306004F0010038708A
:1061600001A9009800F07CF80099054608440199BF
:1061700000904418224669460C9808F05AFC90B1E9
:106180000098201A0FD43068002804DD684608F013
:1061900047FCA9F800000098211ACAF800100099DD
:1061A0000125CBF800102846BDE8FC9F2DE9FC47EF
:1061B00081460A98002400909A461646884625464D
:1061C000684608F027FC0146204661F307000009F5
:1061D000092826D101A9009800F042F80099054647
:1061E0000844019900904718381A022819DB6846BC
:1061F00008F016FCA9F8000034600EE03168414553
:1062000002DD4FF0FF350CE0684608F003FC316812
:106210008B00491C31604AF803000098B842EDD366
:1062200001252846BDE8FC87F8B5012500240E4667
:1062300007460C60641C042C0FDC01216846B8473B
:1062400001280AD19DF80000316800F07F0202FBAE
:106250000511ED0131600006ECD42046F8BD0000C8
:10626000024A10600248FFF7DFBF000078280020D4
:10627000099F020010B503460020CA1701EB5264C3
:1062800024F07F02891ACAB2E111002902DD00BFA1
:1062900042F080021A5400F10100EEDC10BD70B52E
:1062A00004680E4624B12046FDF7F1F8054601E0EA
:1062B000D0E901543046FDF7EAF8854205D12A4677
:1062C00031462046FDF70EF908B1002070BD0120CF
:1062D00070BD0000401C802801DA401C7047B0F5FA
:1062E000804F01DA801C70470349884201DAC01CE4
:1062F0007047001D70470000FFFF1F00F8B5002425
:10630000069E05460090042901DAA01EF8BD62F33E
:10631000071463F3C304062A24F0060000D1801C8E
:10632000C1B268460CF0F1FC02210098FFF7A2FF11
:10633000009908440090314668460CF0ECFC009847
:10634000401BF8BD2DE9F8430746009088461446E7
:106350000025104600F082F88146FFF7BBFF40455C
:1063600002DDA81EBDE8F8832E46314666F307011C
:10637000684610310CF0C9FC49460098FFF77AFFD7
:10638000009908440090207A04281DD02FA1684667
:106390000CF0A7FC032168460CF0B7FCA07E66F366
:1063A000070560F34105E07E08B145F00405680784
:1063B00007D594F83D0060F3C40594F83C0060F301
:1063C0004515206C40B905E022A168460CF089FC17
:1063D0000421E0E7A06C08B145F08005E06C08B945
:1063E000606D08B145F04005294668460CF08DFC0B
:1063F000218B68460CF08FFC04F10C0168460EC935
:106400000CF098FCE07E68B12434684694E80E00F5
:10641000243C0CF08FFC3034684694E80E00303C8D
:106420000CF088FC280605D504F1400168460EC929
:106430000CF080FC680605D54C34684694E80E00E4
:106440000CF078FC0098C01B8CE700004D5149739C
:10645000647000004D5154540000000070B50446B3
:10646000007A0025032802D0042802D002E00C257F
:1064700000E00A2504F10C0007C800F0F9F8054413
:10648000E07EAD1C78B1243494E80700243C00F091
:10649000EFF83034064694E80700303C00F0E8F8A6
:1064A000304405442D1D206C08B9A16C29B1D4E9F4
:1064B000111200F0DDF80544AD1CE06C08B9616D07
:1064C00029B1D4E9141200F0D3F80544AD1C2846D4
:1064D00070BD0E2200F0B3B80C2200F0B0B82DE968
:1064E000FC5F1C46129ECDE90060DDF838B0904696
:1064F000DDF830A0DDE90F238946074659462046DE
:1065000000F030F80546FFF7E5FE484503DD6FF083
:106510000100BDE8FC9F302168F3C30164F3420130
:106520006AF3000101A80CF0F0FB29460198FFF77F
:10653000A1FE019908440190DDE90F23594601A805
:106540000CF0F8FB002C03DD01A80D990CF0E3FB27
:10655000324611990198FCF74AFF019830440190A6
:10656000C01BD6E770B50E46114604461A463046A3
:10657000049D00F07DF82844801C002C00DD801C68
:1065800070BD00002DE9FF4F83B0064610A8894674
:1065900090E88009002492462546414638460096F8
:1065A00000F036F80190FFF795FE484503DDA01E88
:1065B00007B0BDE8F08F64F3070480346AF3C304C6
:1065C00024F00600801CC1B268460CF09EFBDDE999
:1065D0000001FFF74FFE00990844009068460699B5
:1065E0000CF099FB0FE000BF05EB450108EB8100C3
:1065F00090E80E0068460CF09DFB1BF825106846DD
:106600000CF083FB6D1CBD42EEDB0098801BCFE7D6
:106610002DE9F04102250F46064600240AE000BF9E
:1066200004EB440007EB800007C800F021F80544A4
:10663000641CED1CB442F3DB2846BDE8F08138B59C
:10664000002304460090022901DA981E38BD19463D
:1066500063F3070162F3071168460CF056FB002153
:106660000098FFF707FE009908440090001B38BD12
:1066700010B510B1FCF70BFF0146084610BD00F045
:106680001F02012191404009800000F1E020C0F884
:106690008012704700F01F020121914040098000E4
:1066A00000F1E020C0F80011704700F01F02012146
:1066B00091404009800000F1E020C0F800127047CE
:1066C0004907090E002806DA00F00F0000F1E0206B
:1066D00080F8141D704700F1E02080F80014704726
:1066E0000A2801D2303002E0102802D2373040B2FE
:1066F00070473F20704700002DE9F0414FF480774C
:10670000384605F01BFF0124104EA50748B1384656
:1067100005F01BFF0120C5F808037470002003F08A
:1067200027FC4FF48277384605F008FF00280BD08D
:10673000384605F00AFF0220C5F80803B470BDE82A
:10674000F041012003F014BCBDE8F0818841002035
:1067500007480021C0F84011C0F84411C0F84811A2
:10676000C0F84C11C0F80011C0F804110BF014BDB2
:106770000010014004220021014806F05BB900002E
:106780000040024000F0D8BAF8B50D4B064614465A
:1067900018780D4608B900F0CFFA00208DF80000F7
:1067A000684602F0F5F922462946304600F00AF81C
:1067B00004469DF8000002F00FFA2046F8BD0000E4
:1067C0003049002070B50E46144900EB400001EB43
:1067D000C0051446E86A183520B101280FD00228F8
:1067E00005D113E0284600F0DBFAA04201D20024D4
:1067F00011E022463146284600F0F8FB0BE028461F
:1068000000F0CEFAA042F4D20446F2E73146284620
:1068100000F0BFFB0446204670BD00003049002058
:106820000FB408B504A900916A46039900F003F873
:1068300001B05DF814FB2DE9F04198B0064607A8B9
:10684000029040200025CDE90305CDE9055690468C
:106850000C4614F8011B002973D0252908D002A882
:1068600000F078FB05980028F3DA18B0BDE8F08155
:10687000002001212278232A1ED02B2A19D02D2A6C
:1068800002D0302A08D102E040F0010001E040F0DF
:106890000200641C0029EDD100222178A1F130030F
:1068A0000A2B0CD202EB820201EB4202303A641C4A
:1068B000F3E740F00400ECE740F00800E9E70023CC
:1068C000CFB22E2F0BD114F8011FA1F130070A2FE0
:1068D00005D203EB830301EB4303303BF3E76C2961
:1068E0000DD068290BD0702954D00BDC252916D087
:1068F000582931D063290CD0642913D114E014F83D
:10690000011FECE7732934D075291BD0782909D1F0
:1069100022E0D8F80000011DC8F80010017802A894
:1069200000F018FB641C9DE7D8F800100F1DC8F894
:1069300000700968CDE900200A2202A800F03CFAA4
:10694000F0E733E0D8F800100F1DC8F800700968B0
:10695000CDE900200A2208E0D8F800100F1DC8F881
:1069600000700968CDE90020102202A800F088FA22
:10697000D8E7D8F80000011DC8F80010076817F81C
:10698000011B0029CED002A800F0E4FA05980028E7
:10699000F5DAC7E7D8F80000011DC8F80010016853
:1069A0000820CDE9000503461022DEE705980028FF
:1069B0007FF75BAF049820B1024607A93046FFF786
:1069C000E3FEDDE90410084405904EE70149024862
:1069D00004F0B8BD3842002000300040F8B54FF058
:1069E00040200F4D04464FF48C7107F03EFC002808
:1069F00015D00026C4F81861D4F818010090A87FBB
:106A00002C46FF2801D006F087FE66772672D4E96F
:106A1000002101B004F10800BDE8F0401047F8BDC6
:106A2000144200200BF006BB07F0B4BBF0B5AB4836
:106A30000023021D01780124101D4FF08055062906
:106A40000BD11678360708D10678C6F30316032E45
:106A500006D0042E04D0052E02D0062907D00EE061
:106A6000B5F824639E4FC6F304263E6002E0167814
:106A7000360704D10678C6F30316032E02D0062982
:106A800004D00FE0984F974E7E670EE016783607D9
:106A900008D10678C6F30316032E06D0042E04D0C0
:106AA000052E02D0062907D00EE0D5F844628F4F9C
:106AB000C6F342363E6002E01678360704D1067807
:106AC000C6F30316032E02D0062906D011E0884E25
:106AD000376827F0807737600EE01678360708D1E0
:106AE0000678C6F30316032E06D0042E04D0052E16
:106AF00002D006290AD011E04FF08046C6F80C31CA
:106B0000C6F81031794E361F336002E0167836072A
:106B100004D10678C6F30316032E02D0062905D049
:106B20000CE0724F032664373E600AE016783607A1
:106B300004D10678C6F30316032E02D006290DD021
:106B400014E06C4F05263E606A4E78363460694E1C
:106B5000083633603F263F1D3E6002E01678360758
:106B600004D10678C6F30316052E02D0062957D0A5
:106B700062E0614E3668614F3E605F4E361D36689A
:106B80003F1D3E605C4E083636683F1D3E605A4EE3
:106B90000C3636683F1D3E60574E103636683F1D36
:106BA0003E60554E143636683F1D3E60524E1836D4
:106BB0003668524F20373E604F4E1C3636683F1DB8
:106BC0003E604D4E203636683F1D3E604A4E2436AC
:106BD00036683F1D3E60484E283636683F1D3E6091
:106BE000454E2C3636683F1D3E60434E3036366883
:106BF000424F40373E60404E343636683F1D3E605F
:106C00003D4E383636683F1D3E603B4E3C3636685A
:106C10003F1D3E60384E403636683F1D3E6002E004
:106C20001678360708D10678C6F30316032E06D069
:106C3000042E04D0052E02D0062907D019E0D5F87D
:106C400058122F4A01F04F01116002E01178090734
:106C50000FD10078C0F30310032803D0042801D01B
:106C6000052806D127480168C90702D06FF0010145
:106C700001601F487438016841F470010160BFF37E
:106C80004F8FBFF36F8F4FF01021D1F80C02C00768
:106C900020D01D4A14601D480468002CFCD0D1F897
:106CA0000C4224F00104C1F80C4201680029FCD018
:106CB000136001680029FCD0BFF34F8F0C48F038F7
:106CC0000168134A01F4E06111430160BFF34F8F83
:106CD00000BFFDE710490F480860F0BDE00F00F06D
:106CE000403501400DF0ADBA00C007403C05004002
:106CF000FCED00E0105600400404001020C50040E8
:106D0000E40E00400004004004E5014000E40140BE
:106D10000400FA050090D003682C00200448017F8D
:106D200004480029024901D00BF007BE0BF076BDE4
:106D3000F44100200020004010B5124C02202061D8
:106D4000606111A0A06104F17800E0614FF400706F
:106D500020620020A06260620BA1A164E06204F5E1
:106D60001E71E1641021A065C4E91410E06509A159
:106D7000E01DFCF7AEFB08A12046FCF7AAFB202093
:106D8000A07110BD304900205465726D696E616C50
:106D9000000000005254540053454747455200003C
:106DA0000269C1688A4203D88068401A104400E032
:106DB000501A401E704700002DE9FC5F0E0081460E
:106DC000DDE90C47C6F1000098469346824600D4A0
:106DD0000846012503E000BF90FBFBF06D1C584501
:106DE000FADAA84500D9454624B1002E01DB780720
:106DF00000D5641EB80702D5B8F1000F0FD0F80710
:106E00000DD164B1A5420AD220214846641E00F08B
:106E1000A1F8D9F80C000028F3DABDE8FC9FD9F8F6
:106E20000C000028F9DB002E02DA56462D2102E084
:106E3000780707D52B21484600F08CF8D9F80C00CC
:106E40000028EADB07F0030002280FD1B8F1000F99
:106E50000CD15CB1A54209D230214846641E00F035
:106E600079F8D9F80C000028F3DAD6E7CDE9004725
:106E700043465A463146484600F002F8CDE7000046
:106E80002DE9F84F8246DDE90A4B012698469146E6
:106E90000D460846374602E0B0FBF9F07F1C484536
:106EA000FAD2B84500D947465FEACB7017D1B4B1E2
:106EB0005FEA8B7002D5B8F1000F02D0202000905D
:106EC0000BE03020FBE75046641E009900F042F8CA
:106ED000DAF80C00002838DB0CB1A742F3D3DAF85B
:106EE0000C00002831DB00BFB8F1010F02D9A8F176
:106EF000010803E0B5FBF6F0484502D306FB09F6AE
:106F0000F2E7DFF84C8000BFB5FBF6F000FB16554A
:106F100018F80010504600F01DF8DAF80C000028B0
:106F200003DBB6FBF9F6002EEED15FEACB700CD096
:106F3000002C0AD0A74208D220215046641E00F03F
:106F400009F8DAF80C000028F2DABDE8F88F000042
:106F5000EC2F030010B50446D4E90130421C9342E3
:106F600005D323681954A260E068401CE060D4E9AE
:106F70000102824209D121682069FFF705FCA1685E
:106F8000884203D04FF0FF30E06010BD0020A060C9
:106F900010BD2DE9F047C4681746894606464FF0F4
:106FA00000083069A04201D9051B02E0B168201A2F
:106FB0000D1AB0686D1E001BA84200D80546BD42E0
:106FC00000D33D4670682A4620444946FCF70FFA34
:106FD000B0687F1B2C44A844A944A04200D10024DF
:106FE000F460002FDDD14046BDE8F0872DE9F04187
:106FF00004468846D4E90207C51BE1686068164666
:107000000844B54206D94146FCF7F1F9B819E060E9
:10701000BDE8F0812A464146FCF7E9F9761B08EB0A
:10702000050132466068FCF7E2F9E660F0E700002F
:107030000FB41CB50246002007AC00290BD0491E36
:10704000CDE90021054B6A462146069800F0E2FD95
:10705000009A002111701CBC5DF814FB058402002D
:107060000FB4084B10B504A902AA039800F0D2FD92
:10707000044602A9002001F0D0F9204610BC5DF8BA
:1070800014FB00001B84020003B401984100009827
:1070900050EAC12018BF04204A0D18BF40F001007B
:1070A00040F2FF72B2EB515F08BF40F002000128CE
:1070B00008BF052002B0704700487047742C0020BC
:1070C00030B583B0044600F0FFFB9FED090B054689
:1070D0008DED000B002221466846FCF7CCFC2846CB
:1070E00000F01AFC9DED000B03B030BD0000000065
:1070F000000000000000000070B52DED020B2DED2A
:107100000A8B82B00D98C40F20F00045AE4885422E
:1071100048D3AE48854219D30C99C5F313000843F0
:1071200009D09DED0C0B02B0BDEC0A8B02B0BDE89E
:10713000704000F09DBB002C14BF9FEDA50B9DED92
:107140000C0B02B0BDEC0A8B02B070BD9FEDA20B20
:1071500053EC102B9DED0C0B51EC100BFCF7F4FBDA
:107160000AD2022000F0D8FB02B0BDEC0A8B02B0BC
:10717000BDE8704000F088BB9FED990B53EC102BDD
:107180009DED0C0B51EC100BFCF7C6FB0AD2022054
:1071900000F0C2FB02B0BDEC0A8B02B0BDE870404B
:1071A00000F082BB90489FED92BBA8425CD292480F
:1071B000854219D29148784400EBC40090ED000B51
:1071C00053EC102B9DED0C0B51EC100BFCF754FA0B
:1071D00041EC1A0B8A48784400EBC40090ED009B08
:1071E000C4F10100041B36E09FED870B53EC102B1C
:1071F0009DED0C0B51EC100BFCF744FA41EC100B1D
:107200008348784400EBC40090ED001B51EC100B58
:1072100053EC112BFCF78FF9FCF733FB0446FCF71A
:1072200012FB41EC180B9FED7C0B53EC102BFCF781
:1072300029FA9DED0C1B53EC112BFCF720FA41ECC5
:107240001A0B9FED770B51EC180B53EC102BFCF73E
:1072500019FA41EC190B51EC1A0B53EC192BFCF7F2
:107260000BFACDE90C011BE06F48854217D29FED68
:10727000700B53EC102B9DED0C0B51EC100BFCF72D
:107280005AF953EC1B2BFCF75FFB08D29DED0C0B5E
:1072900053EC1B2B51EC100BFCF74DF96EE0002466
:1072A0009DED0C0B53EC102B51EC100BFCF7EAF995
:1072B00041EC180B60480521B0EE480AF0EE680A70
:1072C000784400F059FA53EC182B51EC100BFCF7F2
:1072D000D9F99DED0C1B53EC112BFCF7D0F941ECC7
:1072E000180B9FED570B5CB353EC182B51EC100BA4
:1072F000FCF7C2F99DED0C0B41EC1C0B53EC182B69
:1073000051EC100BFCF7BEF953EC1C2BFCF72CFADC
:1073100053EC192BFCF7B3F953EC1A2BFCF7ACF92F
:1073200053EC1B2BFCF7ABF9CDE900016FF47F7038
:10733000844226DB01EB045001909DED000B00E739
:1073400053EC102B51EC180BFCF796F99DED0C0B40
:1073500041EC190B53EC182B51EC100BFCF792F984
:1073600053EC192BFCF700FA9DED0C1B53EC112B81
:10737000FCF782F953EC1B2BFCF781F941EC100B65
:10738000DFE608464FF07A5101EB04519FED2E0BDA
:10739000084453EC102B01909DED000B51EC100BA9
:1073A000FCF770F90D4645EC100B044651EC100B40
:1073B000FFF76AFE042808BF00F076FA45EC104B90
:1073C000BFE6000000000000422E86400000F07F73
:1073D0000000000000000000EF39FAFE422E864057
:1073E00051302DD5104987C0422ED63F00000000F5
:1073F000000000000000F03FB2A2F03FEEC100002C
:10740000DEC1000000000000FE822B654715F73F3B
:1074100092C10000000000000000E0FE422EE63FA6
:10742000763C7935EF39EA3D0000303E000000003F
:107430009C7500883CE4377E04C100000000000019
:10744000000000000000004000000000000070018B
:1074500010B52DED068BB0EE408AF0EE608A18EE86
:10746000101A84B018EE900A8DED008B002918BF19
:107470000121084320F00040C0F17F6000F1E040AE
:10748000C00F9FED47AB9FED489B06D153EC192BE6
:1074900051EC180BFCF740FA09D1B0EE480AF0EEB7
:1074A000680A00F0E5F904B0BDEC068B10BD9FED55
:1074B000400B51EC180B53EC102BFCF72DFA01BFCD
:1074C000B0EE4A0AF0EE6A0A04B0BDEC068B08BFC3
:1074D00010BD02AA51EC180B04F095FE9FED360B7F
:1074E00041EC180B53EC102B9DED020B51EC100BE3
:1074F000FCF712FA38BF324C14D39FED330B53EC28
:10750000102B9DED020B51EC100BFCF71DFA38BF50
:107510004FF4006406D39DED020B51EC100BFCF709
:10752000B0F904469FED2A0B51EC180B53EC102BCD
:10753000FCF7A8F803F091FB224604F086FA41EC30
:10754000180B04F57F7040F2FB71884221D353EC95
:107550001A2B51EC180BFCF7DFF905D1022000F0D3
:10756000DBF900F0A1F99EE753EC192B51EC180B55
:10757000FCF7D2F905D1022000F0CEF900F084F931
:1075800091E751EC180BFFF77FFD042808BF00F0CE
:107590008BF9B0EE480AF0EE680A84E700000000BC
:1075A0000000000000000000000000000000F07F6C
:1075B000000000000000F0FF000000000000A0C07C
:1075C00000F8FFFF00000000000000000000A040E5
:1075D000EF39FAFE422EE63F30B540F2FF742DED52
:1075E000048BF0EE608A18EE901A85B0B0EE408AF7
:1075F0009FED2B9B05468DED008B34EA115147D052
:1076000053EC192B51EC180BFCF786F940D02A46A5
:1076100051EC180BFCF777FD41EC180B18EE900AB3
:107620008DED008B34EA10501CD053EC192B51EC2B
:10763000180BFCF771F92BD1022000F06DF900F066
:1076400033F910EE901A18EE900A8DED020B8DEDC5
:10765000008B61F31E0003909DED020B05B0BDECA5
:10766000048B30BD022000F057F900F00DF910EE48
:10767000901A18EE900A8DED020B8DED008B61F3E0
:107680001E0003909DED020B05B0BDEC048B30BDD8
:1076900005B0B0EE480AF0EE680ABDEC048B30BDD0
:1076A000000000000000000031B52DED020BDDE907
:1076B00000C2BCF1000F14BF0121002141EA4201C8
:1076C00011F5001F07D99DED000B80ED000B9DED1E
:1076D000000B03B030BDC2F30A510024A1F2FF3108
:1076E00002F0004314291EDA0029B8BFC0E90043A4
:1076F00029DB204D25FA01F102EA010555EA0C0CBF
:107700001BD022EA0101C0E9004190ED000B53ECCF
:10771000102B9DED000B51EC100BFBF7ADFF03B0F0
:1077200041EC100B30BD332907DC4FF0FF35143925
:1077300025FA01F11CEA010F09D19DED000B80ED46
:10774000000BCDE900439DED000B03B030BD2CEAEA
:107750000101C0E9001290ED000B53EC102B9DEDE0
:10776000000B51EC100BFBF787FF03B041EC100B43
:1077700030BD0000FFFF0F0070B504462DED028BF9
:107780004D1E00EBC500B0EE408AF0EE608A90ED31
:10779000000B35F0060017D053EC182B51EC100BF2
:1077A000FBF770FF41EC100B6D1E04EBC50090ED74
:1077B000001B51EC100B53EC112BFBF7BCFE41EC02
:1077C000100B35F00600E7D1022D36D0042D1CD069
:1077D000062D1CBFBDEC028B70BD53EC182B51EC79
:1077E000100BFBF74FFF94ED0A1B53EC112BFBF72B
:1077F000A2FE53EC182BFBF745FF94ED081B53EC4E
:10780000112BFBF798FE41EC100B53EC182B51ECAD
:10781000100BFBF737FF94ED061B53EC112BFBF716
:107820008AFE53EC182BFBF72DFF94ED040B53EC61
:10783000102BFBF780FE41EC100B53EC182B51EC96
:10784000100BFBF71FFF94ED021B53EC112BFBF702
:1078500072FE53EC182BFBF715FF94ED001B53EC55
:10786000112BFBF768FEBDEC028B41EC100B70BDD9
:1078700010B553EC102B51EC100BFBF75CFE41ECF8
:10788000100B10BD000000009FED050B10B553EC70
:10789000102B51EC100BFBF7F5FE41EC100B10BD5B
:1078A00000000000000000709FED050B10B553ECC8
:1078B000102B51EC100BFBF7E5FE41EC100B10BD4B
:1078C0000000000000000010014800687047000040
:1078D000742C002002E008C8121F08C1002AFAD147
:1078E00070477047002001E001C1121F002AFBD140
:1078F000704700000121202803DA8140054801403B
:1079000003E0402802DA2038814009B101207047A5
:1079100000207047FC06FFBD014908607047000069
:10792000742C002010B502F0E3F8084800214170E3
:10793000817007494160074981600749C16001F0D2
:10794000D4FFBDE81040014807F014BFF03A002012
:107950008D2B0300B52B0300512B030010B5010044
:1079600004D009F0E9F820B1002010BD6FF05B00F1
:1079700010BD084609F064F820B1BDE81040084683
:1079800000F0EAB86FF0980010BD002802D0002186
:1079900080F82018704700002DE9FF5F82B00021B9
:1079A000DDE90430020DDDF840B0034318D044F6A1
:1079B0001050A2F2FF3242431514119801281FD033
:1079C000A5EB0B00401C5FEA000A4FF000064E4F8B
:1079D000DFF83891B046504615D5CAF1000413E0DF
:1079E000119801244AA3012801D16FEA0B010298E2
:1079F000119AC0E90031C0E9024206B0BDE8F09F2B
:107A0000CBF10000DFE704460021404A491842EB71
:107A10000450CDE9001012E0E00707D032463B46A3
:107A200040464946FBF72EFE8046894632463B4695
:107A300010461946FBF726FE06460F466410002C3A
:107A4000EAD1DDE90401DDE90023BAF1000F06DA2D
:107A5000FBF718FE42464B46FBF714FE05E0FBF72A
:107A600083FE42464B46FBF77FFE04460E4600224D
:107A7000284BFBF769FF03D84FF0FF30014607E0C2
:107A80000022254B20463146FBF755FDFCF7F2F866
:107A9000102409E0002C0ADB0A220023FBF768FC13
:107AA000039B30321A55641E50EA0102F2D1641C65
:107AB000039AC4F111031444119A012A03D001223C
:107AC00008430DD10AE0084304D000204FF0110B09
:107AD000119072E7A3EB0B056D1E0DE05B4504DD15
:107AE0004FF0000205F1010504E003DA4FF0000257
:107AF000A5F10105002AECD002981199C0E90231E4
:107B0000C0E9004579E70000000014400000F03FA4
:107B1000300000000000F0430000E03F60B1D0F80A
:107B20001C18A1F57F42FF3A04D0491CC0F81C186C
:107B3000084670470121F9E76FF05B0070470000CD
:107B4000B0F81409034903040888421C0A80C0EAFB
:107B50000300704770280020F8B504004FF00005BE
:107B60001BD004F51160074608F097FB6FF09606EE
:107B7000B0B1204608F064FFA0B1204609F06CF8CF
:107B800098B1D4F8140838B340004EF66021C4F818
:107B90001408884224D9701EF8BD6FF05B00F8BD50
:107BA0003046F8BD6FF09800F8BDD4F8180888B1D9
:107BB00004EB0510D0F87C1849B1D0F88828009261
:107BC00090F88028D0F88438204609F025F96D1CFB
:107BD000052DEDDB0020F8BD4FF47A70C4F81408D1
:107BE0000146384608F048FBDAE730380A2801D267
:107BF000012070470020704710B50028029C07D074
:107C0000002905D0002A03D0C0E90021C0E90243C1
:107C100010BD00002DE9FF4F95B09B4689460646F2
:107C200000250FE2252877D100242746F84A0121B4
:107C3000059400E0044316F8013F203B01FA03F0ED
:107C40001042F7D130782A2811D06FF02F03307806
:107C5000A0F13002092A16D8059A44F0020402EB7A
:107C6000820203EB42021044761C0590EFE759F8BC
:107C7000042B0592002A03DA504244F40054059084
:107C800044F00204761C30782E2816D116F8010F25
:107C900044F004042A280DD06FF02F023078A0F1B0
:107CA0003003092B09D807EB870302EB4303C718FE
:107CB000761CF3E759F8047B761C30786C280FD0DB
:107CC00006DC4C2817D068280DD06A2814D104E0AF
:107CD000742810D07A280FD10DE044F400140AE083
:107CE00044F4801401E044F440147278824202D1DA
:107CF00004F58014761C761C307866280BD013DCD3
:107D0000582877D009DC002875D04528F6D04628B9
:107D1000F4D047281AD19DE118E0632835D06428B3
:107D200079D0652812D195E1702873D008DC6728D6
:107D3000F1D069286FD06E280DD06F2806D1B5E03C
:107D400073282CD0752875D0782874D05A46179986
:107D500090476D1C75E1C4F30250022809D0032836
:107D60000DD0D9F8001004280DD00D6009F10409D8
:107D700067E1D9F80010EA17C1E90052F6E7D9F82F
:107D800000100D80F2E70D70F0E719F8041B8DF874
:107D9000001000208DF80100EA46012003E059F8A8
:107DA00004AB4FF0FF3061074FF0000102D40DE04B
:107DB00008F101018846B9420FDA8045F8DB1AF86C
:107DC00008100029F4D108E008F101018846814239
:107DD000FADB1AF808100029F6D105985B46A0EBEB
:107DE000080721463846179A00F094FA284400EB19
:107DF000080507E04DE029E10DE01AF8010B5A46AD
:107E000017999047B8F10108F7D25B4621463846EA
:107E1000179A13E142E00A220092C4F302524FF093
:107E2000000A022A08D059F804CB032A4FEAEC7161
:107E30000AD00DE029E02AE009F1070121F007024C
:107E4000F2E802C1914609E00FFA8CFC4FEAEC71AE
:107E5000042A03D14FFA8CFC4FEAEC71002907DAAF
:107E60000A460021DCF1000C61EB02012D2202E048
:107E7000220504D52B228DF80420012203E0E2071D
:107E800001D02022F7E7904659E00A2102E01022B3
:107E90000DE010214FF0000A00910BE010224FF08E
:107EA000000A44F004040827009203E008224FF07F
:107EB000000A0092C4F30252022A05D059F804CBFA
:107EC0000021032A08D009E009F1070121F0070287
:107ED000F2E802C1914605E01FFA8CFC042A01D1A8
:107EE0000CF0FF0C4FF00008220728D5702806D0B0
:107EF000009B83F0100353EA0A0305D00EE04022F2
:107F00008DF80420012208E05CEA010206D030224C
:107F10008DF804208DF8050002229046009B83F026
:107F2000080353EA0A030AD15CEA010201D162079D
:107F300005D530228DF804204FF001087F1E582807
:107F400004D034A003900EA802900DE036A0F9E70B
:107F500053466046009AFBF70BFA84460398825C0E
:107F60000298401E029002705CEA0100F0D1029873
:107F700006A9081A00F1200A600702D524F480340B
:107F800000E00127574502DDA7EB0A0000E00020D2
:107F900000EB0A01009005984144401A0590E00367
:107FA00006D45B462146179A059800F0B3F90544BC
:107FB000002706E001A85A46C05D179990476D1C3E
:107FC0007F1C4745F6DBE0030CD55B462146179A3C
:107FD000059800F09FF9054404E030205A461799AF
:107FE00090476D1C0099481E00900029F5DC08E0C0
:107FF000029802995A460078491C029117999047B5
:108000006D1CBAF10001AAF1010AF1DC65E1000082
:10801000092801003031323334353637383961625E
:108020006364656600000000303132333435363722
:1080300038394142434445460000000000F058F9F9
:108040000544761C307800287FF4ECAD19B0284642
:10805000BDE8F08F620700D4062709F1070222F07D
:10806000070CFCE80223E14603F000485FEA080C35
:1080700002D00FF2702C0DE05FEA045C02D50FF223
:10808000682C07E05FEAC47C02D00FF2602C01E0AC
:10809000AFF2700C4FF0FF3823F00043CDF850C022
:1080A00065280CD006DC452809D046281DD0472875
:1080B0003DD13DE0662818D067287ED138E0002108
:1080C000112F01DB112000E0781CCDE9000106A989
:1080D0000EA8FFF761FCDDE90F010E9A0391002164
:1080E000009207F1010A04914DE04FF00040009723
:1080F000CDE9011006A90EA8FFF74EFCDDE90F023D
:1081000003920E9B11990022DDF80CA000930492BB
:1081100011B9791C00EB010AB7EB0A0004D4C0F1D5
:10812000FF3007F1010A0490AAEB0700019044E038
:10813000012F00DA01270021112F01DD112000E0BD
:108140003846CDE9000106A90EA8FFF725FCDDE9B8
:108150000F010E9A0391002104910092BA46210763
:108160000CD40399514500DA8A46BAF1010F05DDB6
:10817000009AAAF10101515C302908D0B84202DA14
:1081800010F1040F06DA0121CDE9011015E0AAF182
:108190000101E9E7002805DC049901440491AAEBF8
:1081A000000102E0411C514500DD8A460499401A55
:1081B000401C01904FF000400290200704D4019829
:1081C000504501DBCDF8048000208DF84F00029867
:1081D0000DF14F07B0F1004F25D02B200E900298E3
:1081E0004FF0020800280CDA404202902D200E9039
:1081F00007E00A210298FBF7DBFB3031029007F819
:10820000011DB8F10001A8F10108F2DC0298002874
:10821000EFD1791E0E980870307800F0200040F001
:10822000450007F8020D12A8C01B00F107081498BA
:10823000007800B1012000EB0A01019801EBE07128
:1082400005984144401A401E0590E00306D45B4661
:108250002146179A059800F05DF8054414980078B7
:1082600018B15A46179990476D1CE00324D55B4618
:108270002146179A059800F04DF805441CE0049833
:10828000002807DBDDE90301884203DD0098405C3C
:10829000179901E0179930205A469047049805F144
:1082A0000105401C04900198401E019004D12E202D
:1082B0005A46179990476D1CBAF10001AAF1010ABC
:1082C000DDDC05E017F8010B5A46179990476D1C45
:1082D000B8F10001A8F10108F4DC5B462146179AC9
:1082E0000598ABE62D0000002B00000020000000E8
:1082F0002DE9F041044600251E461746880404D4A3
:1083000005E039462020B0476D1C641EF9D528468B
:10831000BDE8F0812DE9F041044600251E46904657
:10832000C80301D5302700E02027880404D505E0E4
:1083300041463846B0476D1C641EF9D52846BDE855
:10834000F0812DE9F04190460E4604004FF0000503
:1083500012D004F6D407B54203DA404607F09DFF79
:1083600068B1B5421AD104F60410D4F80C1807F01D
:1083700087FF0020BDE8F0816FF05B00FAE7404620
:1083800007F096FF0346721B6119D4F8D8C8384627
:108390000C31E0470028E4DB0544DCE76FF06700C0
:1083A000E8E700000C4910B501204870042003F0F4
:1083B00037FD044602F034FE0246234607A10020A2
:1083C000FEF72EFA06F0D6FB0246BDE8104006A1E5
:1083D0000020FEF725BA0000602700205B25645DC1
:1083E000205B25735D3A2000727463315F676574AA
:1083F0005F7379735F7469636B2072657420257590
:108400000D0A00004A68002A06D00A68531C0B6057
:1084100010704868401E486070470A68531C0B6023
:1084200010707047002802D1084607F05FBD704702
:1084300070470000F0B5046885B00746C668D4E907
:10844000020178231E4A08F03FF9021E2CDD0921A3
:1084500002A8CDE900011BA31949A06808F0BCF8E7
:10846000002816DD5FF0000505EB450006EBC004B3
:1084700094F81C0904F61C1440B102A8FBF707F895
:10848000024602A92046FBF72DF878B16D1C032D9A
:10849000EADB002E08D03068002805D0D0F80013A1
:1084A000002901D03846884705B0F0BD23691BB1CB
:1084B0003946002062699847204608F0D7FDF3E767
:1084C000B84B0020706173737468726F7567682EA3
:1084D0007369640030B587B06FF0590578B30178DF
:1084E0000024652902D066292CD03DE03AB35368B8
:1084F0001E4A4168052B23D2DFE803F003080D1262
:10850000170091ED000B82ED000B12E091ED000BD6
:1085100082ED020B0DE091ED000B82ED040B08E003
:1085200091ED000B82ED060B03E091ED000B82ED67
:10853000080B0E4806F00EF8204607B030BDFFE7E6
:108540002846FAE70BA10CA20594CDE903210749BF
:108550000CA30EA27C318DE80E00A1F11402044898
:108560000CA30EA108F09CFD0020E6E7D028002017
:1085700018550020312E30006669726D2D766572B7
:1085800000000000322E302E3000000073646B2D8E
:1085900076657200646576696365000070726F6469
:1085A000756374002DE9FF4F97B05FEA020ADDE9B9
:1085B00025B489469FED550B249F8DED100B4FF090
:1085C00000008DF85400129013906FF05B000FD0F4
:1085D000002F0DD05FEA0B010AD03CB1182101A891
:1085E000FAF720FF002604EBD47886E06FF05A00FB
:1085F0001BB0BDE8F08F00BF06EB86010BEBC1019D
:108600008A69D3190B93C869801A0A90C86AC2197B
:108610000992096B081A002507906BE00AEB051414
:10862000DDE90A212068FAF75DFF002861D101A881
:10863000079A0999FAF71FFF079901AA00205054D9
:1086400001A934A0079AFAF74DFFE8B3207A012870
:1086500006D0022812D0032817D004281BD048E0E7
:1086600001A92EA0079AFAF73DFF28B15FF000009C
:108670008DF8540015A813E00120F9E701A8FEF7D2
:108680001FFD8DED100B10A80AE001A8FAF739FFC5
:10869000129012A804E001A8FAF733FF139013A870
:1086A000009017986168009A0068D0F818331798FE
:1086B00009F0F0F96068179900F0070301EBD001A9
:1086C000012091F8642900E013E09840024381F80A
:1086D000642923466521009A179809F01DF940B9CD
:1086E00017986168009A0068D0F81033179809F05D
:1086F000D1F96D1C4D4591DB761CB6EB680FFFF68A
:108700007BAF179807F070FA002071E700000000B7
:10871000000000006E756C6C0000000074727565DE
:10872000000000007047F0B500252C4620B16FF026
:108730005A0708291FDC19E06FF05B00F0BD435DAC
:10874000A3F13006092E01D8F3B20BE0A3F16106C4
:10875000052E01D8573B04E0A3F14106052E0AD8A7
:10876000373BDBB264F31F131C466D1C8D42E6DB06
:1087700000201460F0BD3846F0BD2DE9F041060040
:10878000984617466FF05B001AD0002918D0002FCA
:1087900016D0304609F0DEFB0546304609F015FCE0
:1087A0000446304609F0E9FB024623464146384676
:1087B00009F026FB04460146304609F0E4FB28197F
:1087C000BDE8F0812DE9F041060017466FF05B002F
:1087D00019D0002917D0304609F0BCFB05463046B9
:1087E00009F0CBFB0446304609F0EFFB01463B465F
:1087F00007A22046FEF71CFC041E06DD014630469B
:1088000009F0C1FB2819BDE8F0816FF05D00FAE7BF
:10881000256C640010B501220221002001F036FA17
:1088200008B1072810D107220221012001F02EFAF9
:1088300008B1072808D100210A22084601F026FACB
:1088400008B1072800D1002010BD0000134C012101
:10885000208801EB004012A105F064F905F024FA2C
:1088600005F08AF80028FBD10F480068C00700D047
:1088700000BE2088032101EB00400CA105F052F955
:10888000BFF34F8F0848E43801680D4A01F4E061F6
:1088900011430160BFF34F8F00BFFDE7E42C0020C0
:1088A000466174616C000000F0ED00E048697420DE
:1088B0007765616B2068616E646C65720000000012
:1088C0000400FA050EB500210091CDE901106A46B9
:1088D00044F20100FFF7BAFF0EBD10B58268C3680D
:1088E000934203D002F0C1F9002010BD052010BD55
:1088F00029B112B1531E134203D0092070470E2034
:1089000070470160838000218160C1600846704724
:1089100010B58268C3689A1A83889A4203D802F015
:10892000AEF9002010BD042010BD00000148006811
:108930007047000004150140084B9B7823B12AB111
:1089400020B10068037C1BB10820704707207047E6
:10895000002303744174426118467047604200204E
:1089600070B506F00DF9104800240B210470447016
:108970000E4D817014206C602C706C70FDF77FFEC2
:1089800007211420FDF79CFE1420FDF783FE084804
:10899000046007211120FDF793FE0548001F0068C1
:1089A000A860002070BD000060420020DC2700208D
:1089B000081501402DE9FC47DFF8789099F802305E
:1089C00073B368B3052902D20720BDE8FC87436969
:1089D00033B3437C012B25D000270446002588466D
:1089E00016468DF80050684600F0D2F801A80AF04B
:1089F000B5F8C8B1012101700F4944600968C0E9A8
:108A00000218C0E904769DF8040089F801009DF879
:108A1000000000F0E1F81420FDF747FE2846D4E7F7
:108A20000820D2E70F46D8E704259DF8000000F0A3
:108A3000D3F8F3E760420020041501400649897825
:108A400039B130B1416921B100210174022109F02D
:108A50007FBB0820704700006042002010B502482C
:108A600004F012FC002010BDF827002070B50A4E5B
:108A700001460A48B578FFF730FF04464DB10020A3
:108A8000B070711C0122C81D04F050FA08B1FFF744
:108A900019FF204670BD0000F02700206C43002025
:108AA000F0B5284E89B01F460D00044672603BD0D9
:108AB000A888296882B22448FFF71AFF002834D119
:108AC000A889A96882B220481030FFF711FF00285A
:108AD0002BD120221D496846FAF789FC606906906F
