:020000040002F8
:10300000607F00204D330200553302005733020029
:10301000593302005B3302005D3302000000000000
:103020000000000000000000000000005F3302000C
:1030300061330200000000006333020065330200C8
:10304000CD4E020067330200F1540200A15102008C
:10305000B151020067330200553C020067330200A1
:1030600067330200673302006733020067330200F0
:1030700067330200673302006733020067330200E0
:1030800067330200254F02006733020067330200F6
:10309000F951020067330200FD510200673302005C
:1030A00067330200673302006733020067330200B0
:1030B00067330200673302000000000000000000D8
:1030C0006733020067330200673302006733020090
:1030D000494F02006733020067330200000000001E
:1030E00000000000000000000000000000000000E0
:1030F00000000000000000000000000000000000D0
:1031000000000000000000000000000000000000BF
:1031100000000000000000000000000000000000AF
:10312000000000000000000000000000000000009F
:10313000000000000000000000000000000000008F
:10314000000000000000000000000000000000007F
:10315000000000000000000000000000000000006F
:10316000000000000000000000000000000000005F
:10317000000000000000000000000000000000004F
:10318000000000000000000000000000000000003F
:10319000000000000000000000000000000000002F
:1031A000000000000000000000000000000000001F
:1031B000000000000000000000000000000000000F
:1031C00000000000000000000000000000000000FF
:1031D00000000000000000000000000000000000EF
:1031E00000000000000000000000000000000000DF
:1031F00000000000000000000000000000000000CF
:10320000DFF80CD000F08CFC00480047A17D0200E4
:10321000607F002030B4044654E8000F0D4644E8B7
:103220000053002BF8D1156030BC704730B4044611
:1032300054E8000F40EA010544E80053002BF7D1A1
:10324000156030BC704730B4044654E8000F00EA03
:10325000010544E80053002BF7D1156030BC7047DE
:1032600030B4044654E8000F80EA010544E80053F6
:10327000002BF7D1156030BC704730B4044654E8D9
:10328000000F00EB010544E80053002BF7D1156057
:1032900030BC704730B4044654E8000FA0EB010581
:1032A00044E80053002BF7D1156030BC7047000094
:1032B00030B4044654E8000F0D4644E80053002B98
:1032C000F8D1156030BC704730B4044654E8000FA4
:1032D00040EA010544E80053002BF7D1156030BCEB
:1032E000704730B4044654E8000F00EA010544E892
:1032F0000053002BF7D1156030BC704730B4044642
:1033000054E8000F80EA010544E80053002BF7D190
:10331000156030BC704730B4044654E8000F00EB31
:10332000010544E80053002BF7D1156030BC70470D
:1033300030B4044654E8000FA0EB010544E8005304
:10334000002BF7D1156030BC70470000064880475D
:1033500006480047FEE7FEE7FEE7FEE7FEE7FEE77A
:10336000FEE7FEE7FEE7FEE701520200013202003F
:103370002DE9F05F0546002092469B4688460646AA
:10338000814640241BE0284641464746224600F03D
:10339000C0FA53465A46C01A914110D311461846F6
:1033A000224600F0A7FA2D1A67EB01084F46224685
:1033B0000120002100F09EFA17EB00094E41201E6B
:1033C000A4F10104DFDC484631462A464346BDE805
:1033D000F09F000000487047DCB4020040EA01039F
:1033E0009B0703D009E008C9121F08C0042AFAD2BB
:1033F00003E011F8013B00F8013B521EF9D270477F
:10340000D2B201E000F8012B491EFBD27047002226
:10341000F6E710B513460A4604461946FFF7F0FFD3
:10342000204610BD30B505462A460B4612F8010B62
:1034300013F8014B08B1A042F8D01CB1002802D00B
:103440006D1CF1E7284630BD421C10F8011B002915
:10345000FBD1801A7047034611F8012B00F8012BAD
:10346000002AF9D11846704730B5054600200346BA
:1034700000E05B1C934205D2EC5CC85C201A01D1D1
:10348000002CF6D130BD70B5064602F0CFF90468C5
:1034900005460A220021304600F05DFA2C6070BD1E
:1034A0002DE9FE4F804681EA0300C00F0C460090D4
:1034B00021F0004123F00045B8EB0200A94105D2FC
:1034C0004046214690461C460B46024623F00040EB
:1034D000104347D0270DC7F30A00C3F30A510290E7
:1034E000401A019040286BDAC3F3130040F4801BAC
:1034F0000098924620B10023D2EB030A63EB0B0B3A
:1035000001985946C0F14002504600F0F3F90646D2
:103510000D4650465946019A00F00BFA10EB080090
:103520006141002487EA115284EAE7731A4340D0CC
:10353000009A62B3019A012A4FEA075215DC001B78
:1035400061EB02014FF0004202EA0752CDE900426E
:10355000001C41F5801132462B4600F07AFA03B088
:10356000BDE8F08F40462146F9E7001B61EB020100
:10357000001C41F5801300185B412018A2F50017CC
:1035800047EB030140EAD570B6196D4111E06D08B3
:103590004FEA360645EAC0754FEA0752001B61EB59
:1035A0000201001C41F5801149084FEA3000001962
:1035B000514132462B4603B0BDE8F04F00F03ABA15
:1035C0000098012240000023D0EB020263EBE0737D
:1035D000009821464FEAE074B8EB000061EB04016B
:1035E000E9E783F000435BE781F0004158E72DE90C
:1035F000FE4F81EA030404F0004421F000410094EE
:103600004FF0000B23F0004350EA01045ED052EA71
:1036100003045BD0C3F30A54C1F30A552C44A4F24B
:10362000F3340194A0FB0254C1F3130141F480115F
:10363000C3F3130343F4801301FB024400FB034E66
:10364000840A970A44EA815447EA8357A4FB07682F
:1036500002958D0A05FB07854FEA932C04FB0C5459
:103660002705029D4FEA065847EA1637B5EB0805CD
:103670006EEB070C870E920E47EA811742EA83121F
:10368000A7FB0201B6EB0B0164EB00042B0D43EA30
:103690000C335E1844EB1C50DA465146E7FB02013E
:1036A000C5F313044FEA0B3343EA14534FEA0432D1
:1036B000019C43EA0603A4F10C040294009CCDE9AA
:1036C00000B400F0C6F903B0BDE8F08F0020014659
:1036D000F9E72DE9F04D81EA030404F0004B21F0F5
:1036E000004514464FF0000A23F0004150EA05025D
:1036F00020D054EA01021DD0C5F30A570246C5F393
:103700001303C1F31300C1F30A5640F4801543F4C8
:103710008013A7EB0608101BD64608F2FD3873EBA2
:10372000050002D308F1010801E092185B41B8F1ED
:10373000000F03DA00200146BDE8F08D00204FF4B1
:103740008011064684460EE0171B73EB050705D370
:10375000121B63EB050306434CEA010C49084FEAD0
:10376000300092185B4150EA0107EDD152EA0300A4
:1037700012D082EA040083EA0501084305D0101B39
:10378000AB4106D20122002306E000224FF00043A5
:1037900002E06FF0010253101AEB06004CEB0851E7
:1037A00010EB0A0041EB0B01BDE8F04D00F042B90F
:1037B0000EB540F2334102910021CDE900110A46D5
:1037C0000B4600F046F903B000BD70B5C1F30A52D4
:1037D00001F000450024C1F3130140F2FF3341F42E
:1037E00080119A4201DA002070BD40F233439A42C0
:1037F000A2F2334203DC524200F08BF800E090402A
:103800002C43F1D0404270BD00F0004230F0004047
:103810000AD0C10D01F56071C0F3160042EA0151F2
:10382000C20840071143704700200146704700005E
:1038300030B5041E71F1000404DB4FF00044404237
:1038400064EB0101141E73F1000405DB1C464FF00C
:103850000043524263EB04038B4208BF824230BDF7
:1038600030B5041E71F1000404DB4FF00044404207
:1038700064EB0101141E73F1000405DB1C464FF0DC
:103880000043524263EB0403994208BF904230BDAB
:1038900001F0004330B421F0004150EA010206D0AB
:1038A0000A0DA2F56072C1F31301002A02DC30BCDC
:1038B00000207047440F44EAC104C100E01830BC46
:1038C00000EBC25000F07FB830B50B460146002037
:1038D0002022012409E021FA02F59D4205D303FAD2
:1038E00002F5491B04FA02F52844151EA2F1010253
:1038F000F1DC30BD202A04DB203A00FA02F100207E
:1039000070479140C2F1200320FA03F3194390401D
:103910007047202A04DB203A21FA02F00021704788
:1039200021FA02F3D040C2F1200291400843194627
:103930007047202A06DBCB17203A41FA02F043EA0F
:10394000E07306E041FA02F3D040C2F12002914058
:103950000843194670472DE9F04791460F468046C7
:103960000446002614F8015B2DB1FFF733FD006813
:10397000405DC007F6D12B2D02D02D2D18D0641E2E
:103980004A463946204600F0DDF827B13968A142A1
:1039900001D1C7F8008071054FF002040BD54042F9
:1039A000002803DD01F042FF0460A007BDE8F087B6
:1039B00046F48066E4E70028F8DA01F037FF046097
:1039C0006FF00040F2E70029A8BF7047401C490093
:1039D00008BF20F00100704710B4B0FA80FC00FA74
:1039E0000CF050EA010404BF10BC704749B1CCF19F
:1039F000200421FA04F411FA0CF118BF012121432B
:103A00000843A3EB0C01CB1D4FEA00614FEA1020E5
:103A100042BF002010BC704700EBC3501044002987
:103A2000A4BF10BC7047401C490008BF20F0010033
:103A300010BC704710B5141E73F1000408DA401C66
:103A400041F1000192185B411A4301D120F00100BD
:103A500010BD2DE9F04D92469B4611B1B1FA81F2AD
:103A600002E0B0FA80F220329046FFF743FF0446AE
:103A70000F4640EA0A0041EA0B0153465A46084302
:103A800013D0114653EA010019D0C8F14002504644
:103A9000FFF73FFF05460E46504659464246FFF7A0
:103AA00029FF084305D0012004E020463946BDE83F
:103AB000F08D0020054346EAE0762C4337430A9810
:103AC0006305E40AA0EB08000022FD0A44EA47541B
:103AD0000A3002D500200146E9E7010510196941C5
:103AE000DDE9084500196941BDE8F04DA2E7C1F3E1
:103AF0000A52C1F3130140F2FF3341F480119A429C
:103B000002DA00200146704740F233439A42A2F2A3
:103B1000334202DC5242FFF7FCBEFFF7EBBE00006F
:103B2000064C074D06E0E06840F0010394E807000A
:103B300098471034AC42F6D3FFF766FBC4BC0200D2
:103B4000E4BC02002DE9F05F8246007800271546AC
:103B50008B460AF10104B946302801D09DB113E02B
:103B600014F8010B0127782803D0582801D045B15B
:103B70000AE00DB1102D07D10027102514F8010B14
:103B800002E0082500E00A250026B0460EE005FB0D
:103B9000080005FB06F1012701EB10461FFA80F82B
:103BA000B6F5803F00D3B94614F8010B294600F062
:103BB00018F80028EBDABBF1000F05D00FB1641E36
:103BC00000E05446CBF80040B9F1000F06D001F0F8
:103BD0002DFE02210160C81EBDE8F09F48EA0640A4
:103BE000FAE73A2800D2303820F02002412A01D3E7
:103BF000A2F13700884201D34FF0FF30704770B513
:103C00008C1810F8015B15F0070301D110F8013B87
:103C10002A1106D110F8012B03E010F8016B01F80E
:103C2000016B5B1EF9D12B0705D40023521E0DD466
:103C300001F8013BFAE710F8013BCB1A921C03E0B4
:103C400013F8015B01F8015B521EF9D5A142D8D3EC
:103C5000002070BD2DE9F04700268CB0DFF86091A0
:103C6000B0464FF48075012437460696284605F085
:103C7000CDF938B1D9F80403204203D0284605F025
:103C8000BBF926432D1D64007F1CADB2082FEDD378
:103C90004FF4BE74204605F0B9F948B1204605F04E
:103CA000ABF946F0004606AA0121002005F090F984
:103CB000444D16F0FF0F15D00127002437420DD0D8
:103CC00009EB8401D1F81005D1F81015C0F30420D8
:103CD00055F82420C1F3014102B190477F00641CD4
:103CE000082CEBD3002E67DA4FF0FF30CDE90880C7
:103CF00000263446281910F8507F90F9000027F06C
:103D0000C008401C44D009A9404604F06EFA58B3DC
:103D10004FEA9719404603F0DFFB55F820701FB1BA
:103D2000B9F1030F03D00FE0B9F1030F30D108A8A8
:103D30004FEAD80208F00703815C4FF0010C0CFA3F
:103D400003FC41EA0C0181544FF0A04101EB8800D3
:103D5000D0F8000706A9C0F3014A404604F045FA2E
:103D600018B1BAF1020F03D012E0BAF1030F0FD16C
:103D7000B9F1030F08D1BAF1020F1BD0022140465E
:103D800005F0F7F8761CF6B217B149464046B84739
:103D9000641C042CAED3002E0ED06A4601210020F4
:103DA00005F016F906990098884205D00690089803
:103DB00009909DE70321E2E70CB0BDE8F087000021
:103DC00000600040443500202DE9F0410F460646D2
:103DD000002509E0705D02F03BFB040003D0112CCC
:103DE000F8D002F0F5F96D1CBD42F3D32046BDE8D2
:103DF000F081000070B58A4C00202DED108B211849
:103E0000401C0A28CA7C02F00F02CA74F7DB207D2E
:103E1000FFF7CEFC41EC190BE07CFFF7C9FC9FEDEE
:103E2000818B53EC182BFFF7E2FB53EC192BFFF7B8
:103E300037FB41EC1B0BA07DFFF7BAFC41EC190BE3
:103E4000607DFFF7B5FC53EC182BFFF7D0FB53EC6C
:103E5000192BFFF725FB41EC1C0BE07EFFF7A8FCBC
:103E600041EC1A0BA07EFFF7A3FC53EC182BFFF7D5
:103E7000BEFB41EC1F0B607EFFF79AFC9FED6B9B36
:103E800053EC192BFFF7B3FB41EC1E0B207EFFF721
:103E90008FFC9FED68DB53EC1D2BFFF7A8FB53EC69
:103EA0001E2BFFF7FDFA53EC1F2BFFF7F9FA53EC2B
:103EB0001A2BFFF7F5FA9FED61EB53EC1E2BFFF782
:103EC00096FB53EC1C2BFFF7EBFA9FED5EAB53EC2C
:103ED0001A2BFFF7FEFB53EC1B2BFFF7E1FA5B4DB0
:103EE00041EC100B85ED060B607F532805D151EC9A
:103EF000100B81F00041C5E9060100202118401C8B
:103F0000CA7F0A2802F00F02CA77F7DB94F8210073
:103F10001F34FFF74DFC41EC1B0B6078FFF748FCAA
:103F200053EC182BFFF763FB41EC1C0B2078FFF7D9
:103F30003FFC53EC192BFFF75AFB53EC1C2BFFF7FC
:103F4000AFFA53EC1B2BFFF7ABFA41EC1B0B2079BC
:103F5000FFF72EFC41EC1C0BE078FFF729FC53EC3B
:103F6000182BFFF744FB53EC1C2BFFF799FA41EC9D
:103F70001C0BE079FFF71CFC53EC192BFFF737FB08
:103F800041EC190BA079FFF713FC53EC1D2BFFF745
:103F90002EFB53EC192BFFF783FA41EC190B607AD7
:103FA000FFF706FC41EC1D0B207AFFF701FC53ECF8
:103FB000182BFFF71CFB53EC1D2BFFF771FA41EC9C
:103FC000100B51EC190B53EC102BFFF769FA53EC63
:103FD0001E2BFFF70CFB53EC1A2BFFF77AFB41EC7F
:103FE000180B53EC1A2B51EC1C0BFFF772FB53EC24
:103FF0001B2BFFF755FA53EC182BFFF751FA41EC46
:10400000100B85ED080BE07A572805D151EC100B09
:1040100081F00041C5E90801BDEC108B70BD0000C6
:10402000982F002000000000000024400000000045
:10403000000059400000000000408F402D431CEB61
:10404000E2361A3F0000000000004E4070270020BA
:1040500010B52D4C2DED0A8B9FED258B94ED060BA5
:104060009FED1FCB9FED209B9FED23AB9FED24BBCE
:1040700053EC182B51EC100BFFF7F2FB02D853EC6A
:104080001A2B01E053EC1B2B94ED060B51EC100B9B
:10409000FFF7ADFA53EC1C2BFFF71BFBFFF795FB6B
:1040A000606094ED080B53EC182B51EC100BFFF7EC
:1040B000D7FB02D853EC1A2B01E053EC1B2B94EDE9
:1040C000080B51EC100BFFF792FA53EC192BFFF78A
:1040D00000FBFFF77AFBA060BDEC0A8B10BD00006F
:1040E0000000000000805640000000000080664094
:1040F0000000000000000000000000C0FFFF5F4162
:1041000000000000000060417027002070B505220B
:1041100011491248FFF7A8F9104D114C38B10E495A
:104120000522891D2846FFF79FF988B10AE095F816
:104130002C00302801D9012000E00020FFF738FBD7
:10414000C4E90401FFF756FEBDE87040FFF780BFE9
:10415000687C4128F1D1EEE780B10200982F002061
:10416000702700202DE9F0410E4C9FED0F0B0E46FD
:1041700053EC102B94ED040B0746002551EC100B6B
:10418000FFF756FB01D1012501E000F0BFFA94EDE5
:10419000060B284687ED000B94ED080B86ED000B0F
:1041A000BDE8F08170270020000000000000F03F13
:1041B00002490020087000F003B8000070270020BA
:1041C000064810B5002101700121817000F0B2FA9B
:1041D00000F0BAFABDE8104000F048B89827002077
:1041E00038B5684602F0C0F800282DD19DF80000CF
:1041F0000025164C242802D021787F2900D3257071
:10420000134A21785054491CC9B221700A281BD185
:104210005554491CC9B22170104600F069F8607805
:10422000401CC0B260701E280ED9657009A403F04E
:1042300071FB0246234609A1002000F0DBFE044A80
:1042400009A1002000F0D6FE38BD0000982700200C
:10425000FB2F0020494E464F000000005B25645DA7
:10426000205B25735D3A20002573000010B5002106
:104270000A2004F096FE0A4804F090F801210A2072
:1042800004F08FFE00211F2004F08BFE054804F08F
:1042900085F80121BDE810401F2004F082BE000017
:1042A00040420F0080841E0070B50024164625464B
:1042B000631E60B15EB1012909DD0278242A08D1AC
:1042C000012406E06A40641CD5B28C4201DB18462A
:1042D00070BD02572A2AF5D1280900F0EBFD307095
:1042E00005F00F0000F0E6FD7070601C70BD00006E
:1042F000F8B50546007801240026242815D10F467C
:104300006A462846FFF7D0FF00280EDBBF1EB842E2
:104310000BDA29569DF900209142EFD128449DF9EE
:10432000011090F90100884202D0E9E1062EFCD884
:10433000A019761C285CF6B22C28F7D10020F14F8A
:1043400005E0295D3954401C641CC0B2E4B2B0429F
:10435000F7D30522EC49EB48FFF786F850B1EA495C
:104360000522891DE748FFF77FF8002874D0C7E1D0
:104370000B28DAD82118401C695CC0B22C29F7D16F
:10438000002106E07B182A5D491C641C9A71C9B2A1
:10439000E4B28142F6D3002001E00A28C5D82118F2
:1043A000401C695CC0B22C29F7D1002106E07B18C3
:1043B0002A5D491C641CDA74C9B2E4B28142F6D3A6
:1043C000002001E00228B0D82118401C695CC0B26E
:1043D0002C29F7D1002106E07B182A5D491C641CBA
:1043E0005A77C9B2E4B28142F6D3002001E00B282B
:1043F0009BD82118401C695CC0B22C29F7D1002140
:1044000006E07B182A5D491C641CDA77C9B2E4B265
:104410008142F6D3002001E0022886D82118401CF2
:10442000695CC0B22C29F7D1002107E07B182A5D16
:10443000491C641C83F82A20C9B2E4B28142F5D336
:10444000002001E0022892D82118401C695CC0B20B
:104450002C29F7D1002108E090E07B182A5D491C47
:10446000641C83F82C20C9B2E4B28142F5D3002049
:1044700001E0032892D82118401C695CC0B22C29A5
:10448000F7D1002107E07B182A5D491C641C83F8E2
:104490002E20C9B2E4B28142F5D3002001E0062803
:1044A00091D82118401C695CC0B22C29F7D1002199
:1044B00007E07B182A5D491C641C83F83120C9B2CF
:1044C000E4B28142F5D3002001E0082890D82118F9
:1044D000401C695CC0B22C29F7D1002107E07B1891
:1044E0002A5D491C641C83F83720C9B2E4B28142BA
:1044F000F5D3002001E002288FD82118401C695C08
:10450000C0B22C29F7D1002107E07B182A5D491C95
:10451000641C83F83F20C9B2E4B28142F5D3002085
:1045200001E0082871D82118401C695CC0B22C2910
:10453000F7D1002107E07B182A5D491C641C83F831
:104540004120C9B2E4B28142F5D3002001E0022843
:104550005BD82118401C695CC0B22C29F7D100211E
:1045600007E07B182A5D491C641C83F84920C9B206
:10457000E4B28142F5D3BFE00B2846D82118401C95
:10458000695CC0B22C29F7D1002106E07B182A5DB6
:10459000491C641C9A71C9B2E4B28142F6D300206E
:1045A00001E0022831D82118401C695CC0B22C29D6
:1045B000F7D1002106E07B182A5D491C641C5A745F
:1045C000C9B2E4B28142F6D3002001E00A281CD827
:1045D0002118401C695CC0B22C29F7D1002106E0EB
:1045E0007B182A5D491C641CDA74C9B2E4B28142AA
:1045F000F6D3002001E0022807D82118401C695C8E
:10460000C0B22C29F7D1002107E079E07B182A5DA0
:10461000491C641C5A77C9B2E4B28142F6D3002027
:1046200001E00B286CD82118401C695CC0B22C2911
:10463000F7D1002106E07B182A5D491C641CDA775B
:10464000C9B2E4B28142F6D3002001E0022857D873
:104650002118401C695CC0B22C29F7D1002107E069
:104660007B182A5D491C641C83F82A20C9B2E4B275
:104670008142F5D3002001E0082841D82118401CD0
:10468000695CC0B22C29F7D1002107E07B182A5DB4
:10469000491C641C83F84B20C9B2E4B28142F5D3B3
:1046A000002001E008282BD82118401C695CC0B20A
:1046B0002C29F7D1002107E07B182A5D491C641CD6
:1046C00083F85320C9B2E4B28142F5D3002001E05F
:1046D000082815D82118401C695CC0B22C29F7D1D4
:1046E000002107E07B182A5D491C641C83F85B20CD
:1046F000C9B2E4B28142F5D3FFF708FD0120F8BD4D
:104700000020F8BD982F002080B1020006484FF02D
:10471000FF319FED060B418080ED060B80ED080B0D
:104720000021416081607047702700200000000078
:104730000000000010B50A2004F0F8FBBDE81040AE
:104740001F2004F0F3BB000010B5114C8AB0207894
:1047500003281AD001F000FE18220E496846FEF721
:104760003DFEE01C0690012007900B4808904FF496
:10477000807009900623094A06A9684601F00EFEDA
:1047800008B101F025FD032020700AB010BD000023
:104790009B270020CCB102007B3200206DAC0200D0
:1047A00070B54FF0FF34402003F0B2FB050015D088
:1047B0004021FEF72CFE0AA20CA1284601F022F8A7
:1047C000C1B22846FFF700FB01224FF4FA71002026
:1047D00000F08EFA0446284602F0E2FF204670BD43
:1047E00041542B5149434C4F5345000025730D0A4A
:1047F0000000000070B54FF0FF363446402003F053
:1048000087FB050039D04021FEF701FE1CA21EA146
:10481000284600F0F7FFC1B22846FFF7D5FA40213D
:104820002846FEF7F4FD01224FF4FA71284600F005
:104830005FFA04001ED416A12846FEF7F3FD80B1EE
:1048400005F10800FEF71FFE04000CD0012C0CD06F
:10485000A01E1C280BD8A41E60426D2101EB400451
:1048600008E0344606E0352404E06F2402E01F2C03
:1048700000DB3324284602F093FF204670BD000081
:1048800041542B435351000025730D0A00000000D2
:104890002B4353513A200000F8B50E4607464FF01F
:1048A000FF3540F6BB3237A1002000F023F910B1EC
:1048B000FFF776FF5EE04FF4807003F029FB040001
:1048C00048D030A334A23649009600F09BFF81B255
:1048D000204600F0A5F9082003F0F0F9054603F0A2
:1048E00019F802462B462FA1002000F083FB224638
:1048F0002FA1002000F07EFB3146384600F090F9F1
:104900000646082003F0DAF9054603F003F80246EC
:104910002B4624A1002000F06DFB3A4624A1002084
:1049200000F068FB002E27DA012003F0C7F90546E6
:1049300002F0F0FF02462B461AA1002000F05AFBBD
:104940001CA1002000F056FB204602F029FFFFF7D3
:1049500027FF14E0042003F0B1F9044602F0DAFF67
:10496000024623460FA1002000F044FB18A10020BE
:1049700000F040FB2846F8BD204602F011FF30460B
:10498000F8BD0000747261636B2E76697A69736595
:104990006E732E636F6D000069747261636B00004B
:1049A000E0B402005B25645D205B25735D3A200066
:1049B0002573000047736D5F48747470506F737493
:1049C0002073656E64206661696C2E2E2E0D0A00C0
:1049D0000D0A2D2D2D2D2D687474705F6275662063
:1049E0006D616C6C6F6320323536206661696C21B5
:1049F00021212D2D2D2D2D0D0A0000002DE9F04136
:104A00004FF0FF374FF4806003F082FA04002FD09C
:104A100041F2883100F0BEF80546082003F04EF957
:104A2000064602F077FF024633461AA1002000F046
:104A3000E1FA22461AA1002000F0DCFA85B1082034
:104A400003F03CF9064602F065FF0246334611A129
:104A5000002000F0CFFA2A4612A1002000F0CAFA86
:104A6000204602F09DFEFFF79BFE3846BDE8F08130
:104A7000042003F023F9044602F04CFF02462346CB
:104A800004A1002000F0B6FA0EA1002000F0B2FA56
:104A9000EBE700005B25645D205B25735D3A200039
:104AA0002573000047736D5F4874747052737020F3
:104AB000726573706F6E7365206C656E3D25640D55
:104AC0000A0000000D0A2D2D2D2D2D687474705FC5
:104AD00052656376427566206D616C6C6F63203140
:104AE000303234206661696C2121212D2D2D2D2D30
:104AF0000D0A00002DE9FC41804616460F464FF096
:104B0000FF34402003F004FA050026D04021FEF7D0
:104B10007EFCCDE90076B8F1000F21D011A313A2DD
:104B200015A1284600F06EFEC1B22846FFF74CF9E9
:104B300040212846FEF76BFC01224FF4FA71002059
:104B400000F0D6F8040005D443F69821002000F0C8
:104B500017F90446284602F023FE2046BDE8FC81F2
:104B60000AA3DCE7225544502200000041542B5197
:104B7000494F50454E3D0000257325732C22257367
:104B8000222C222564220D0A0000000022544350EA
:104B90002200000070B5064600250C4600F028F8FB
:104BA000002804DA0120641E02F072FD01E0705555
:104BB0006D1C002CF2DCA8B270BD00000B490A4B42
:104BC0004A889854521C93B24B808888401C82B209
:104BD00000208A80402B00D14880402A02D14880A2
:104BE00088800880704700007B330020A0270020C9
:104BF0004FF0FF3072B608498A885AB107480B88CF
:104C0000C05C5B1C9BB20B80402B01D100230B804E
:104C1000521E8A8062B67047A02700207B33002096
:104C20002DE9F04107460D464FF0FF34402003F0D8
:104C30006FF9060022D04021FEF7E9FB2B4611A2B6
:104C400013A1304600F0DEFDC1B23046FFF7BCF8DC
:104C50004FF4FA6000F0E6F804000CD1294638461B
:104C6000FFF7B2F801224FF4FA71002000F040F88B
:104C7000040000D12C46304602F092FD2046BDE8EB
:104C8000F081000041542B514953454E443D0000F2
:104C9000257325640D0A000010B5114C8AB02078E8
:104CA00002281AD001F058FB18220E496846FEF778
:104CB00095FB601C0690012007900B4808904FF46C
:104CC000807009900623094A06A9684601F066FB30
:104CD00008B101F07DFA022020700AB010BD00007A
:104CE0009B2700209CB102007B3000206DAC0200AD
:104CF0002DE9F04790B082460D4691464FF0FF37C0
:104D0000002440216846FEF782FBB9F1000F01D074
:104D1000042600E00226E846FFF76AFF002805DACD
:104D20006D1EADB2012002F0B3FC1CE008F80400D7
:104D3000641CE4B2B44216DBB9F1000F01D00DA13E
:104D400000E00EA16846FEF76DFB60B1B44208DDDD
:104D5000BAF1000F05D0A0EB080269465046FEF7F5
:104D60003DFB002701E0002DD6D110B03846BDE84C
:104D7000F08700004F4B0D0A000000004F4B000071
:104D80002DE9F04790B082460D464FF0FF360024E3
:104D900040216846FEF73BFB0C27E846FFF728FF5B
:104DA000002805DA6D1EADB2012002F071FC23E08F
:104DB00008F80400641CE4B2BC421DDB11A1684683
:104DC000FEF730FB814613A16846FEF72BFB014638
:104DD000B9F1000F0CD0BC4208DDBAF1000F05D0CC
:104DE000A9EB080269465046FEF7F8FA002605E0EE
:104DF00011B16FF0010601E0002DCFD110B03046A7
:104E0000BDE8F087434F4E4E454354204F4B0D0AAB
:104E100000000000434F4E4E454354204641494C4C
:104E20000D0A000070B54FF0FF350446FFF7E0FEB5
:104E3000002805DA641EA4B2012002F029FC02E079
:104E4000C0B23E2803D0002CF0D1284670BD00250A
:104E5000FBE700F01F02012191404009800000F1B2
:104E6000E020C0F88012704700F01F02012191403D
:104E70004009800000F1E020C0F80011704700F008
:104E80001F02012191404009800000F1E020C0F89C
:104E9000001270474907090E002806DA00F00F00DB
:104EA00000F1E02080F8141D704700F1E02080F848
:104EB000001470470A2801D2303002E0102802D2D4
:104EC000373040B270473F20704700002DE9F04175
:104ED0004FF48077384603F051FA0124104EA507AD
:104EE00048B1384603F051FA0120C5F80803747040
:104EF000002002F0F9FA4FF48277384603F03EFAC8
:104F000000280BD0384603F040FA0220C5F8080309
:104F1000B470BDE8F041012002F0E6BABDE8F081CE
:104F20003035002007480021C0F84011C0F8441176
:104F3000C0F84811C0F84C11C0F80011C0F80411B5
:104F400005F05CBC0010014004220021014803F080
:104F50009FBB00000040024000F0D8BAF8B50D4BEE
:104F60000646144618780D4608B900F0CFFA00201E
:104F70008DF80000684601F089FA2246294630463D
:104F800000F00AF804469DF8000001F0A3FA20465C
:104F9000F8BD0000D83C002070B50E46144900EB67
:104FA000400001EBC0051446E86A183520B101281D
:104FB0000FD0022805D113E0284600F0DBFAA0420A
:104FC00001D2002411E022463146284600F0F8FBC9
:104FD0000BE0284600F0CEFAA042F4D20446F2E7F5
:104FE0003146284600F0BFFB0446204670BD000055
:104FF000D83C00200FB408B504A900916A46039973
:1050000000F003F801B05DF814FB2DE9F04198B011
:10501000064607A8029040200025CDE90305CDE90A
:10502000055690460C4614F8011B002973D025291B
:1050300008D002A800F078FB05980028F3DA18B031
:10504000BDE8F081002001212278232A1ED02B2ADE
:1050500019D02D2A02D0302A08D102E040F00100F8
:1050600001E040F00200641C0029EDD1002221780B
:10507000A1F130030A2B0CD202EB820201EB4202B7
:10508000303A641CF3E740F00400ECE740F008001D
:10509000E9E70023CFB22E2F0BD114F8011FA1F1A5
:1050A00030070A2F05D203EB830301EB4303303BA8
:1050B000F3E76C290DD068290BD0702954D00BDC94
:1050C000252916D0582931D063290CD0642913D151
:1050D00014E014F8011FECE7732934D075291BD0B4
:1050E000782909D122E0D8F80000011DC8F8001085
:1050F000017802A800F018FB641C9DE7D8F80010A6
:105100000F1DC8F800700968CDE900200A2202A826
:1051100000F03CFAF0E733E0D8F800100F1DC8F8B3
:1051200000700968CDE900200A2208E0D8F80010D4
:105130000F1DC8F800700968CDE90020102202A8F0
:1051400000F088FAD8E7D8F80000011DC8F8001070
:10515000076817F8011B0029CED002A800F0E4FA76
:1051600005980028F5DAC7E7D8F80000011DC8F84F
:10517000001001680820CDE9000503461022DEE793
:10518000059800287FF75BAF049820B1024607A975
:105190003046FFF7E3FEDDE90410084405904EE7D2
:1051A0000149024802F058BCE035002000300040C0
:1051B000F8B54FF040200F4D04464FF48C7104F0C9
:1051C00076FC002815D00026C4F81861D4F8180120
:1051D0000090A87F2C46FF2801D003F0DBFE667705
:1051E0002672D4E9002101B004F10800BDE8F040C6
:1051F0001047F8BDBC35002005F04EBA04F0ECBBFA
:10520000F0B5AB480023021D01780124101D4FF0BA
:10521000805506290BD11678360708D10678C6F3D3
:105220000316032E06D0042E04D0052E02D0062924
:1052300007D00EE0B5F824639E4FC6F304263E6007
:1052400002E01678360704D10678C6F30316032E5B
:1052500002D0062904D00FE0984F974E7E670EE0EB
:105260001678360708D10678C6F30316032E06D043
:10527000042E04D0052E02D0062907D00EE0D5F862
:1052800044628F4FC6F342363E6002E0167836071E
:1052900004D10678C6F30316032E02D0062906D0E1
:1052A00011E0884E376827F0807737600EE0167877
:1052B000360708D10678C6F30316032E06D0042E4F
:1052C00004D0052E02D006290AD011E04FF0804606
:1052D000C6F80C31C6F81031794E361F336002E043
:1052E0001678360704D10678C6F30316032E02D0CB
:1052F000062905D00CE0724F032664373E600AE0B1
:105300001678360704D10678C6F30316032E02D0AA
:1053100006290DD014E06C4F05263E606A4E7836A3
:105320003460694E083633603F263F1D3E6002E020
:105330001678360704D10678C6F30316052E02D078
:10534000062957D062E0614E3668614F3E605F4E7D
:10535000361D36683F1D3E605C4E083636683F1D80
:105360003E605A4E0C3636683F1D3E60574E103632
:1053700036683F1D3E60554E143636683F1D3E6010
:10538000524E18363668524F20373E604F4E1C360C
:1053900036683F1D3E604D4E203636683F1D3E60EC
:1053A0004A4E243636683F1D3E60484E28363668E1
:1053B0003F1D3E60454E2C3636683F1D3E60434ED5
:1053C00030363668424F40373E60404E343636689D
:1053D0003F1D3E603D4E383636683F1D3E603B4EB9
:1053E0003C3636683F1D3E60384E403636683F1DBD
:1053F0003E6002E01678360708D10678C6F3031639
:10540000032E06D0042E04D0052E02D0062907D084
:1054100019E0D5F858122F4A01F04F01116002E04F
:10542000117809070FD10078C0F30310032803D0C7
:10543000042801D0052806D127480168C90702D0F1
:105440006FF0010101601F487438016841F4700178
:105450000160BFF34F8FBFF36F8F4FF01021D1F872
:105460000C02C00720D01D4A14601D480468002C9F
:10547000FCD0D1F80C4224F00104C1F80C420168C0
:105480000029FCD0136001680029FCD0BFF34F8FC6
:105490000C48F0380168134A01F4E06111430160DF
:1054A000BFF34F8F00BFFDE710490F480860F0BD04
:1054B000E00F00F0403501400DF0ADBA00C00740EC
:1054C0003C050040FCED00E01056004004040010D4
:1054D00020C50040E40E00400004004004E5014007
:1054E00000E401400400FA050090D0035428002095
:1054F0000448017F04480029024901D005F0B3BCEB
:1055000005F022BC9C3500200020004010B5124C54
:1055100002202061606111A0A06104F17800E061C7
:105520004FF4007020620020A06260620BA1A164B1
:10553000E06204F51E71E1641021A065C4E9141055
:10554000E06509A1E01DFDF786FF08A12046FDF7F3
:1055500082FF2020A07110BDD83C00205465726DE0
:10556000696E616C00000000525454005345474777
:10557000455200000269C1688A4203D88068401A17
:10558000104400E0501A401E704700002DE9FC5FF7
:105590000E008146DDE90C47C6F1000098469346AF
:1055A000824600D40846012503E000BF90FBFBF0D3
:1055B0006D1C5845FADAA84500D9454624B1002E9D
:1055C00001DB780700D5641EB80702D5B8F1000FDB
:1055D0000FD0F8070DD164B1A5420AD22021484668
:1055E000641E00F0A1F8D9F80C000028F3DABDE839
:1055F000FC9FD9F80C000028F9DB002E02DA564691
:105600002D2102E0780707D52B21484600F08CF8C1
:10561000D9F80C000028EADB07F0030002280FD1BC
:10562000B8F1000F0CD15CB1A54209D23021484637
:10563000641E00F079F8D9F80C000028F3DAD6E7F8
:10564000CDE9004743465A463146484600F002F845
:10565000CDE700002DE9F84F8246DDE90A4B01262F
:10566000984691460D460846374602E0B0FBF9F0F1
:105670007F1C4845FAD2B84500D947465FEACB704F
:1056800017D1B4B15FEA8B7002D5B8F1000F02D028
:10569000202000900BE03020FBE75046641E00996C
:1056A00000F042F8DAF80C00002838DB0CB1A74211
:1056B000F3D3DAF80C00002831DB00BFB8F1010F9A
:1056C00002D9A8F1010803E0B5FBF6F0484502D382
:1056D00006FB09F6F2E7DFF84C8000BFB5FBF6F0F9
:1056E00000FB165518F80010504600F01DF8DAF8C7
:1056F0000C00002803DBB6FBF9F6002EEED15FEAC2
:10570000CB700CD0002C0AD0A74208D220215046E2
:10571000641E00F009F8DAF80C000028F2DABDE89F
:10572000F88F0000A8B3020010B50446D4E9013098
:10573000421C934205D323681954A260E068401CC0
:10574000E060D4E90102824209D121682069FFF7B3
:1057500005FCA168884203D04FF0FF30E06010BD27
:105760000020A06010BD2DE9F047C46817468946A7
:1057700006464FF000083069A04201D9051B02E03F
:10578000B168201A0D1AB0686D1E001BA84200D81F
:105790000546BD4200D33D4670682A46204449462E
:1057A000FDF71CFEB0687F1B2C44A844A944A0420E
:1057B00000D10024F460002FDDD14046BDE8F08721
:1057C0002DE9F04104468846D4E90207C51BE1688B
:1057D000606816460844B54206D94146FDF7FEFD0D
:1057E000B819E060BDE8F0812A464146FDF7F6FDB4
:1057F000761B08EB050132466068FDF7EFFDE660B9
:10580000F0E700000FB4084B10B504A902AA0398F2
:1058100000F0E4F8044602A9002000F07DFC2046D8
:1058200010BC5DF814FB00001961020000487047CD
:105830006028002002E008C8121F08C1002AFAD11F
:1058400070477047002001E001C1121F002AFBD100
:10585000704700000121202803DA814005480140FB
:1058600003E0402802DA2038814009B10120704766
:1058700000207047FC06FFBD2DE9FF5FDDE9022037
:10588000010DDDF838B0024318D044F61050A1F2F3
:10589000FF3141430D140F98012820D0A5EB0B00D8
:1058A000401C5FEA000A4FF00004474EDFF81C91ED
:1058B000A046504616D5CAF1000728E00F980124EB
:1058C00043A2012808D0002100980F9BC0E90021C5
:1058D000C0E90243BDE8FF9F6FEA0B01F4E7CBF19B
:1058E0000000DEE7074612E0F80707D022463346FD
:1058F00040464946FDF77BFE8046894622463346B0
:1059000010461946FDF773FE04460E467F10002F21
:10591000EAD1DDE90201BAF1000F42464B4602DA54
:10592000FDF765FE01E0FDF7D4FE04460E460022B9
:10593000284BFDF795FF03D84FF0FF30014607E0F5
:105940000022254B20463146FDF7AAFDFEF7CFF891
:10595000102409E0002C0ADB0A220023FDF708FDD1
:10596000019B30321A55641E50EA0102F2D1641CC8
:10597000019AC4F1110314440F9A012A03D00122A1
:1059800008430DD10AE0084304D000204FF0110B6A
:105990000F9080E7A3EB0B056D1E0DE05B4504DD6A
:1059A0004FF0000205F1010504E003DA4FF00002B8
:1059B000A5F10105002AECD000980F99C0E9023149
:1059C000C0E9004586E70000000024400000F03FE9
:1059D000300000000000F0430000E03F2DE9FF4FE1
:1059E00095B09B468946064600250FE2252877D1CB
:1059F00000242746F84A0121059400E0044316F8E4
:105A0000013F203B01FA03F01042F7D130782A28F9
:105A100011D06FF02F033078A0F13002092A16D888
:105A2000059A44F0020402EB820203EB42021044A6
:105A3000761C0590EFE759F8042B0592002A03DA4B
:105A4000504244F40054059044F00204761C30782F
:105A50002E2816D116F8010F44F004042A280DD080
:105A60006FF02F023078A0F13003092B09D807EB33
:105A7000870302EB4303C718761CF3E759F8047B4E
:105A8000761C30786C280FD006DC4C2817D068289C
:105A90000DD06A2814D104E0742810D07A280FD1D0
:105AA0000DE044F400140AE044F4801401E044F4EE
:105AB00040147278824202D104F58014761C761C60
:105AC000307866280BD013DC582877D009DC002802
:105AD00075D04528F6D04628F4D047281AD19DE144
:105AE00018E0632835D0642879D0652812D195E173
:105AF000702873D008DC6728F1D069286FD06E2831
:105B00000DD06F2806D1B5E073282CD0752875D03C
:105B1000782874D05A46179990476D1C75E1C4F3E4
:105B20000250022809D003280DD0D9F8001004280B
:105B30000DD00D6009F1040967E1D9F80010EA17EA
:105B4000C1E90052F6E7D9F800100D80F2E70D70B8
:105B5000F0E719F8041B8DF8001000208DF8010003
:105B6000EA46012003E059F804AB4FF0FF3061072B
:105B70004FF0000102D40DE008F101018846B9425E
:105B80000FDA8045F8DB1AF808100029F4D108E094
:105B900008F1010188468142FADB1AF80810002951
:105BA000F6D105985B46A0EB080721463846179AC0
:105BB00000F094FA284400EB080507E04DE029E1E5
:105BC0000DE01AF8010B5A4617999047B8F10108F1
:105BD000F7D25B4621463846179A13E142E00A2283
:105BE0000092C4F302524FF0000A022A08D059F87A
:105BF00004CB032A4FEAEC710AD00DE029E02AE039
:105C000009F1070121F00702F2E802C1914609E01B
:105C10000FFA8CFC4FEAEC71042A03D14FFA8CFC8A
:105C20004FEAEC71002907DA0A460021DCF1000C8A
:105C300061EB02012D2202E0220504D52B228DF812
:105C40000420012203E0E20701D02022F7E790467A
:105C500059E00A2102E010220DE010214FF0000A65
:105C600000910BE010224FF0000A44F004040827D2
:105C7000009203E008224FF0000A0092C4F302529F
:105C8000022A05D059F804CB0021032A08D009E0E4
:105C900009F1070121F00702F2E802C1914605E08F
:105CA0001FFA8CFC042A01D10CF0FF0C4FF0000805
:105CB000220728D5702806D0009B83F0100353EAF2
:105CC0000A0305D00EE040228DF80420012208E0EE
:105CD0005CEA010206D030228DF804208DF8050020
:105CE00002229046009B83F0080353EA0A030AD17C
:105CF0005CEA010201D1620705D530228DF804204B
:105D00004FF001087F1E582804D034A003900EA83D
:105D100002900DE036A0F9E753466046009AFDF781
:105D200027FB84460398825C0298401E0290027012
:105D30005CEA0100F0D1029806A9081A00F1200AD5
:105D4000600702D524F4803400E00127574502DDC6
:105D5000A7EB0A0000E0002000EB0A010090059884
:105D60004144401A0590E00306D45B462146179A49
:105D7000059800F0B3F90544002706E001A85A464B
:105D8000C05D179990476D1C7F1C4745F6DBE0030B
:105D90000CD55B462146179A059800F09FF90544FB
:105DA00004E030205A46179990476D1C0099481E10
:105DB00000900029F5DC08E0029802995A46007824
:105DC000491C0291179990476D1CBAF10001AAF184
:105DD000010AF1DC65E100000928010030313233AD
:105DE0003435363738396162636465660000000017
:105DF0003031323334353637383941424344454601
:105E00000000000000F058F90544761C30780028A6
:105E10007FF4ECAD19B02846BDE8F08F620700D4DE
:105E2000062709F1070222F0070CFCE80223E146ED
:105E300003F000485FEA080C02D00FF2702C0DE06E
:105E40005FEA045C02D50FF2682C07E05FEAC47CCD
:105E500002D00FF2602C01E0AFF2700C4FF0FF386F
:105E600023F00043CDF850C065280CD006DC45284F
:105E700009D046281DD047283DD13DE0662818D0DE
:105E800067287ED138E00021112F01DB112000E0CE
:105E9000781CCDE9000106A90EA8FFF7EDFCDDE9AD
:105EA0000F010E9A03910021009207F1010A04915B
:105EB0004DE04FF000400097CDE9011006A90EA873
:105EC000FFF7DAFCDDE90F0203920E9B1199002225
:105ED000DDF80CA00093049211B9791C00EB010AC3
:105EE000B7EB0A0004D4C0F1FF3007F1010A0490B7
:105EF000AAEB0700019044E0012F00DA01270021FE
:105F0000112F01DD112000E03846CDE9000106A97E
:105F10000EA8FFF7B1FCDDE90F010E9A03910021F5
:105F200004910092BA4621070CD40399514500DA36
:105F30008A46BAF1010F05DD009AAAF10101515C10
:105F4000302908D0B84202DA10F1040F06DA012134
:105F5000CDE9011015E0AAF10101E9E7002805DC0F
:105F6000049901440491AAEB000102E0411C51454F
:105F700000DD8A460499401A401C01904FF0004011
:105F80000290200704D40198504501DBCDF804802D
:105F900000208DF84F0002980DF14F07B0F1004F2F
:105FA00025D02B200E9002984FF0020800280CDA22
:105FB000404202902D200E9007E00A210298FDF742
:105FC00083FC3031029007F8011DB8F10001A8F1FF
:105FD0000108F2DC02980028EFD1791E0E980870B3
:105FE000307800F0200040F0450007F8020D12A8BC
:105FF000C01B00F107081498007800B1012000EBE5
:106000000A01019801EBE07105984144401A401ED5
:106010000590E00306D45B462146179A059800F0E8
:106020005DF805441498007818B15A4617999047BE
:106030006D1CE00324D55B462146179A059800F0B5
:106040004DF805441CE00498002807DBDDE9030156
:10605000884203DD0098405C179901E017993020D1
:106060005A469047049805F10105401C0490019898
:10607000401E019004D12E205A46179990476D1C5E
:10608000BAF10001AAF1010ADDDC05E017F8010B05
:106090005A46179990476D1CB8F10001A8F1010804
:1060A000F4DC5B462146179A0598ABE62D0000000C
:1060B0002B000000200000002DE9F04104460025DF
:1060C0001E461746880404D405E039462020B04710
:1060D0006D1C641EF9D52846BDE8F0812DE9F0411C
:1060E000044600251E469046C80301D5302700E02F
:1060F0002027880404D505E041463846B0476D1C8A
:10610000641EF9D52846BDE8F08100000149012050
:1061100048707047602700200A68531C0B6010709D
:10612000704710B501220221002001F07DF808B16E
:10613000072810D107220221012001F075F808B1CB
:10614000072808D100210A22084601F06DF808B19D
:10615000072800D1002010BD134C0121208801EB3D
:10616000004012A103F000F903F0C0F903F026F893
:106170000028FBD10F480068C00700D000BE20886F
:10618000032101EB00400CA103F0EEF8BFF34F8FA9
:106190000848E43801680D4A01F4E06111430160E8
:1061A000BFF34F8F00BFFDE7D02800204661746128
:1061B0006C000000F0ED00E0486974207765616BC9
:1061C0002068616E646C6572000000000400FA05CE
:1061D0000EB500210091CDE901106A4644F201009C
:1061E000FFF7BAFF0EBD10B58268C368934203D0B3
:1061F00001F09BFA002010BD052010BD29B112B19D
:10620000531E134203D0092070470E2070470160CF
:10621000838000218160C1600846704710B58268A4
:10622000C3689A1A83889A4203D801F088FA00203A
:1062300010BD042010BD0000074B9B7823B12AB18C
:1062400020B10068037C1BB108207047072070470D
:1062500041744261002070470836002070B503F099
:106260005BFE104800240B21047044700E4D8170B9
:1062700014206C602C706C70FEF7EBFD072114206D
:10628000FEF708FE1420FEF7EFFD08480460072122
:106290001120FEF7FFFD0548001F0068A8600020E0
:1062A00070BD000008360020D027002008150140EE
:1062B0002DE9FC47DFF8789099F8023073B368B3A2
:1062C000052902D20720BDE8FC87436933B3437C2C
:1062D000012B25D0002704460025884616468DF858
:1062E0000050684600F0D2F801A804F0C7FEC8B11B
:1062F000012101700F4944600968C0E90218C0E932
:1063000004769DF8040089F801009DF8000000F073
:10631000E1F81420FEF7B3FD2846D4E70820D2E7C1
:106320000F46D8E704259DF8000000F0D3F8F3E706
:1063300008360020041501400649897839B130B18A
:10634000416921B100210174022104F033BA08200F
:10635000704700000836002010B5024802F0EEFB3E
:10636000002010BDEC27002070B50A4E01460A48F7
:10637000B578FFF738FF04464DB10020B070711CAE
:106380000122C81D02F02CFA08B1FFF721FF2046B8
:1063900070BD0000E427002014370020F0B5284E1F
:1063A00089B01F460D00044672603BD0A88829685A
:1063B00082B22448FFF722FF002834D1A889A968B7
:1063C00082B220481030FFF719FF00282BD120227D
:1063D0001D496846FDF702F860690690207C00B10F
:1063E00001208DF814008DF81C70607C00B10E2027
:1063F0008DF81500E0680290A06803902068019075
:10640000606800900E48114A6946083002F0B4F9FD
:10641000002808D1B0702068401C04D09DF81D00F1
:1064200018B106E0072009B0F0BD0548083002F0B9
:106430002FFA03490122491CC81D02F0D1F9F2E7E5
:10644000E42700201437002054B20200A9AC020057
:1064500010B501460B48FFF7E1FE040010D10A48D1
:1064600002F060FB60B9084906480839FFF7BBFE37
:1064700030B9054901220839034802F0CDFA044633
:10648000204610BD24370020EC27002030B5EFF364
:10649000108172B60D4A9468012324B1037000295B
:1064A00000D162B630BD93604FF0E023D3F8805145
:1064B000074C25401560C3F88041D3F884415460EF
:1064C0005A17C3F8842100220270E8E7343700200D
:1064D000FC06FFBD0B498A68002A11D000280FD1A5
:1064E000EFF3108072B60B684FF0E022C2F8003173
:1064F0004B68C2F8043100228A60002800D162B6DD
:1065000070470000343700202DE9F0410646086846
:106510000C46411C4FF0A0474FF0010506D005FA8C
:1065200000F1C7F80815206802F008FD6068411CFA
:1065300002D0002102F0F1FC3079204901EB40103B
:10654000A169007F00283068C0F8241525D0607D3F
:10655000227D31681043C1F86C05D4E9001230681F
:10656000C0F80C15C0F8142524E0A068411C02D026
:10657000002102F0D2FCE068411C05D08540C7F83C
:106580000855E06802F0DAFCD4E902123068C0F87D
:106590000825C0F81015BDE8F081607D217D3268C6
:1065A0000843C2F86C05D4E900123068C0F814251D
:1065B000C0F80C15207D0128D7D0ECE79C350020D1
:1065C0002DE9FC47002517880646158090F82D0018
:1065D0001446894630B13A462146484600F0EAFA68
:1065E000050009D1B0784FF00C0A18B32088C846CE
:1065F000001DB84202D95046BDE8FC87684679DFE5
:106600000028F9D12088032108F8001020881921DA
:10661000401C80B2208008F800102088401C80B206
:10662000208000EB0801BDF8000004F094FC2188F4
:1066300008442080F0780222C8B1218896F90330FE
:1066400001F1030C4846BC45D5D8425421884FF08F
:10665000010C491C89B2218000F801C02188491C25
:1066600089B2218009F801302088401C20807068A0
:10667000B8B1218890F9003001F1030C4846BC45BF
:10668000B9D8425421880A22491C89B22180425437
:106690002188491C89B2218009F801302088401CDA
:1066A0002080308950B1CDE900474B4606220221B7
:1066B00006F1080004F0FAFC05009DD1308A50B1C3
:1066C000CDE900474B460722032106F1100004F0F4
:1066D000EDFC050090D1308B50B1CDE900474B4621
:1066E0001522142106F1180004F0E0FC050083D106
:1066F000306A30B13B462246494600F05FFF050054
:10670000DBD1706A30B13B462246494601F036FC87
:106710000500D2D196F82C0038B13B4622464946B6
:10672000304603F00FFF0500C7D1307838B13B4643
:1067300022464946304601F0ABFC0500BDD1284653
:106740005AE7F0B50C4693B01F210726ADF80010AC
:10675000ADF80410002750B1C17849070DD56A463D
:1067600002A9FFF72DFF002808D102AD02E00025A5
:10677000ADF800706CB1E07810B1304613B0F0BDE8
:1067800001AA0AA92046FFF71BFF0028F6D10AAA92
:1067900002E00022ADF80470BDF80400C3B2BDF8F9
:1067A0000000C1B2284672DFE8E780F82410704785
:1067B00070B50D00044653D0F4B3012020700026BC
:1067C000E670202205F17801201DFCF707FE84F811
:1067D0002460D5F89800C4F8CC00D5F89C00C4F823
:1067E000D0004FF6FF70A4F8C800C4F82560A4F8E4
:1067F000296084F82B6004F130003C210646FCF748
:1068000006FE287884F83000A87884F83200E8780A
:1068100084F83300687884F83100D5E90401C4E9CC
:106820001001D5E90201C4E90E01D5E90601C4E968
:10683000120195F82D0000E012E084F85D00686A0E
:10684000D8B104F1780104F16C0061676065696A90
:1068500009880180686A616D80888880002008E06E
:106860000E2070BD696A22188968095C82F8781068
:10687000401C616D89888142F4D8A86AE8B104F1AE
:10688000A400C4F8A0000C38A065A96A898881809A
:10689000A86AA16D00880880002006E0A96A221875
:1068A0008968095C82F8A410401CA16D8988814226
:1068B000F4D895F82C0084F85C00286A48B104F1FB
:1068C000C4002065296A49884180286A216D0088B2
:1068D0000880686800B1606305F13C013046BDE89E
:1068E0007040FFF72EBF10B50288102A1AD0112A67
:1068F0001FD01B2A1CD1007A0C46002818D1E07842
:106900000521401CB0FBF1F201FB1201204600F012
:1069100037F800280CD0D4F8D010002908D0BDE8F2
:1069200010400847C27B012A02D18088A1F8C80024
:1069300010BD0C46002184F8D4108088B4F8C8102B
:106940008842F5D120790028F2D10121DEE710B587
:106950000C46022801D0032811D1607800280ED0FF
:1069600000206070E178204600F00AF8002806D088
:10697000D4F8D010002902D0BDE81040084710BD5F
:106980002DE9FF47044600780F4638B1E770002034
:1069900002F004FA012628B16670D2E0082004B0A3
:1069A000BDE8F0870025C4F82550A4F8295084F8E4
:1069B0002B50A07910B1E078012806D0E07970B1B1
:1069C000E078012801D0022809D1D4F8CC1021B1F7
:1069D00084F82C600820884701E084F82C5004F1EA
:1069E000260100200A5C0AB1304603E0401C06285C
:1069F000F8D300204FF002084FF0030A4FF00409CB
:106A0000012F06D0022F09D0032F0CD0042F12D152
:106A10000DE0A17911B108B130460DE0E17911B175
:106A200008B1404608E0207A08B1504604E0607A98
:106A300008B1484600E02846E070D4F8CC1041B1D7
:106A4000032801D0042804D1607910B194F8D4004F
:106A5000A8B184F8D55000950295019503958DF85D
:106A600000508DF80850E17804F1250004F130025F
:106A7000052958D2DFE801F0670A131F3B0084F8AC
:106A8000D65084F8D56007208847E4E7A6700190C7
:106A90008DF80060ADF80C50ADF80A5043E084F872
:106AA000028001908DF80060208AADF80C00A0896A
:106AB000ADF80A0037E0A08AADF80A00208BADF8E7
:106AC0000C00607980B194F8D40068B994F8D600CD
:106AD00050B18DF8088084F8339000211046FFF7FC
:106AE00030FE00BB05211AE084F802A01BE0A08B59
:106AF000ADF80A00208CADF80C00607988B194F8EC
:106B0000D40070B994F8D60058B18DF8088084F894
:106B1000339000211046FFF714FE20B90621A17022
:106B200001E084F80290E07830B194F824106846CF
:106B300073DF00287FF433AFD4F8CC1009B1A0780C
:106B4000884700202BE7A570F6E7000070B5040029
:106B500012D001461C221448FCF740FC1248134D89
:106B60000560206850B17ADF002806D120680168EE
:106B700029604068686005E00E2070BD0B487BDF2F
:106B80000028FAD108484FF6FF711438084A20F857
:106B9000041B0549343901600021FFF74DFB002833
:106BA000EBD0032070BD00005C340020C027002023
:106BB00015B002007CB5054608880C4609309042A5
:106BC00001D90C207CBD68466DDF0028FAD12188F0
:106BD0000820685420881B21401C80B22080295442
:106BE0002088401C80B220802844DDF8011001601C
:106BF000BDF8051081802088801D80B220809DF81E
:106C00000010490800D0012129542088401C208010
:106C100000207CBD70B5454D018800226E8888B08B
:106C20000446232945D020DC41484FF003031129B5
:106C3000008803EB004024D00EDC012952D010293B
:106C40002BD13CA102F090FB072000F00FFB08B114
:106C5000FFF7BEFAA0881FE0132924D021291CD1F8
:106C60000092A08869468FDF29E03B2936D0512960
:106C70003CD0522926D056290FD18088132176DFA7
:106C800025E02FA102F070FB002000F0EFFA08B120
:106C9000FFF79EFA4FF6FF70688008B070BD00BF26
:106CA000FFF796FAF9E700231A46852130467FDF81
:106CB0000DE00092019280880022694690DF002852
:106CC000EED1EAE700231A4619463046A9DF00282C
:106CD000E3D008B0BDE87040FFF77ABA808813218E
:106CE00076DFF4E7A088002166DFF0E71022A11D1F
:106CF00004A8FCF773FB9DF810100029CDD09DF877
:106D00001800042803D0062801D00528C5D102297F
:106D10000AD001208DF800004FF4C170ADF80400D6
:106D2000A0886946A8DFCAE70220F3E760270020B1
:106D3000D0280020436F6E6E6563746564000000A8
:106D4000446973636F6E6E65637465640000000070
:106D500010B51A4C0188606810290ED011292BD16A
:106D6000401E606028D1FFF7DCF9002824D021689C
:106D7000002921D0BDE810400847D0B900210122E8
:106D8000084600F051FA08B107280FD10722022166
:106D9000012000F049FA08B1072807D10422022196
:106DA000002000F041FA20B1072802D0216801B18B
:106DB00088476068401C606010BD0000B827002054
:106DC0002DE9F04701883B4E40F2F3194FF6FF756D
:106DD00010291BD011293ED0122954D0502946D158
:106DE000C188F289841D914241D1618902293ED135
:106DF0008688304600F096FD050038D004F10C007E
:106E000000F05AF9A8B3294630464EE0C17B878886
:106E1000044601292BD1A846284600F083FD050031
:106E200017D02F8000202872234843464A46016825
:106E3000C5F80A104068C5F80E0004F1100105F10C
:106E40000A0000F064FE6872F08900280FD129461C
:106E50002AE0042013E0808800F064FD040006D0DE
:106E60006068FFF769FA08B103F03AFA2580BDE8D7
:106E7000F087FFE76868FFF75FFA0028F7D0BDE802
:106E8000F04703F02DBA87880646384600F04AFDE1
:106E90000400ECD02B464A4606F1080104F10A0032
:106EA00000F035FE607221463846BDE8F04700F03C
:106EB000CBBB00005C340020C02700202DE9F04748
:106EC000044603883F480122A4B000F1480A102B71
:106ED00009D0112B54D01A2B70D1217AB2EB111F8B
:106EE00053D2012352E0D0E911218A430546011D06
:106EF00012A803F0C8F9442212A901A8FCF76EFAFF
:106F0000DFF8C0900026374609F144090DF1040866
:106F10000AE000BF08EB46001D2283884946281D71
:106F2000009703F075F9761C0198B042F2D8686CAE
:106F3000A688C04303F08EF9A0F57F41FF3917D032
:106F400005EB40000123868032465146281D03F0A0
:106F5000BFF9012332464946281D03F0B9F9E07B09
:106F600002280BD000231749A2884C31281D20E0AD
:106F700024B00420BDE8F047FFF72AB90123F2E767
:106F80000023A2885146001D13E000230D49054649
:106F9000A2885031001D03F09BF9207A0221B1EB49
:106FA000101F01D2012300E000230649A2885431BA
:106FB000281D24B0BDE8F04703F08AB924B0BDE82D
:106FC000F08700007834002030B5174B0D460400E0
:106FD0000FCB85B08DE80F0023D015B34FF6FF70AF
:106FE000A0822868A0610020A0752146684662DF63
:106FF000002814D120788DF812000120ADF810007F
:10700000A21C04A9A0DF002809D12946204602F0CD
:10701000E1FF002803D12946204603F0ACFD05B06E
:1070200030BD0E20FBE7000040B202007FB5002912
:1070300017D0002815D00288102A0DD0112A0DD0A3
:10704000502A0FD0572A0CD11A4B1868D3E90223C3
:107050008DE80F0089692AE0808801E04FF6FF7013
:1070600088827FBD01910C46821DC3880989002555
:1070700012308B4202D1518902290CD0A1898B4256
:10708000EFD1A1690029ECD002905089ADF80C0035
:107090008DF800500AE000F00FF818B10120A0753B
:1070A000022001E0A57503208DF80000A169684663
:1070B00088477FBD30B20200007800F001007047C1
:1070C0000149085C70470000E8B1020007490B5C09
:1070D0004FF0A041D1F804250120984020EA020396
:1070E000C1F808351040C1F80C057047E4B1020042
:1070F0000249085C012101F05FBF0000E4B1020019
:107100000249085C002101F057BF0000E4B1020011
:107110000649095C4FF0A040D0F80405C84010F0C3
:10712000010000D0012080F001007047E4B10200AE
:1071300010B500242046FFF7DBFF641C042CF9D3B4
:1071400010BD10B500242046FFF7DAFF641C042CA4
:10715000F9D310BD10B50246064B4FF0FF300021A9
:107160005C5C944201D1084610BD491C0429F7D348
:1071700010BD0000E8B1020010B5002000F05EF97B
:1071800008B1062806D1012000F058F908B10628F8
:1071900000D1002010BD00002DE9F0470D468146CA
:1071A000FFF7D8FF0446042836D2DFF874801B4866
:1071B0001C4EA8F10C0725B3012D0ED0022D2BD1AA
:1071C00004EB440030444578002D25D0B9680029EF
:1071D00022D02846BDE8F047084704EB4401755C1F
:1071E0000E44717849B10E4A4FF40041093A806863
:1071F000FFF75EF808B987F80390B17808F8041033
:10720000E2E78068FFF798F804EB4401314418F88E
:1072100004008D78A842D7D0BDE8F087ECB1020019
:10722000B4270020FC33002070B50023042810D2BE
:107230000D4D00EB4004012A02D101290CD000229F
:10724000094E00EB4000304461B1012906D002290B
:1072500006D00723184670BD0E30C2B22A55F9E792
:107260004270F7E78270F5E7FC330020044A0146DC
:1072700000201279D20702D0084600F003B8704708
:10728000A82700202DE9F05F6A4C054600266078AB
:10729000B34618B184F801B000F05CFC664F4FF4BF
:1072A0007A694FF4C87A4FF00108182D62D2DFE8EE
:1072B00005F0AC0C0C31404D62676B746B74BE7D95
:1072C0007D7D7D7DACAFB2B5BEBE0020FFF720FF57
:1072D00000284FF0000008D0FFF70AFF022D02D16E
:1072E0004FF4E16008E0484606E0FFF709FF022D91
:1072F00001D1C82000E05046410CC0034FF4FA729F
:10730000801841F10001257052000023FCF730F88D
:1073100001462AE00020FFF7FBFE00284FF00000A6
:1073200004D0FFF7E5FE4FF44870E5E7FFF7E8FE0D
:10733000DFE70020FFF7ECFE00284FF0000002D04E
:10734000FFF7D6FECFE7FFF7DBFED4E70020FFF71D
:10735000DFFE00284FF0000002D0FFF7C9FE01E079
:10736000FFF7CEFE257041F69A1100223868FEF72D
:107370009FFF064646E00020FFF7A8FE257008E0C4
:10738000002051E025703DE084F801800120FFF7E6
:107390009DFE002240F6CD41E8E784F801800120FF
:1073A000FFF794FE00224FF48041DFE77868FEF794
:1073B000C3FF0646D5F1110000D02EB10220FFF721
:1073C00097FE84F802B01DE0012816D980B2C821CA
:1073D0004843C117C90341EA5041C0034FF4FA7250
:1073E000801841F1000152000023FBF7C1FF014664
:1073F00000227868FEF75CFF06460220FFF780FE59
:1074000084F802803046BDE8F09F00F0A3FBB9E7A6
:1074100000F0A0FBB4E700F09DFB04E000F09AFB55
:107420000020FFF76DFE0120FFF76AFEAAE7FFF7D5
:1074300088FEA7E7A8270020ECB1020010B5FFF7EF
:107440003FFE032101F084FD002010BDF8B5861C2D
:1074500000208DF800000C4601276846FFF716F85B
:107460000F4801682160D0E90012891A8268044639
:10747000511AB51C07E000BF00F04AFCD4E9000136
:10748000401AA168091A491C8D42F5D82068304479
:1074900020609DF80000FFF71DF83846F8BD000099
:1074A000B838002030B482680468531C8360A1544B
:1074B000D0E901128A4202D330BC01F076BB30BC65
:1074C00070470000034803C8814201D10120704782
:1074D00000207047B83800200249084490F9300075
:1074E000704700004435002070B5084C050009D0F5
:1074F00010342168002907D00868206049682846B0
:107500008847F6E70834F4E770BD00003035002006
:107510002DE9F05F26484168F1B3DFF898B00E68B6
:107520008146DBF8004087688078E11B21F07F45C9
:10753000ED1CB0B9DFF880804FF48030C8F8440308
:10754000C8F804031120FDF784FC1120FDF78CFC22
:107550004FF0010AC8F800A02F2000F0ABFF89F817
:1075600002A0B54200D23546124BE8193C3320F058
:107570007F401860DBF800105A46091B21F07F415C
:10758000001B20F07F40C91C81420FD91068186091
:107590002F2000F08FFF00E004E0BDE8F05F112035
:1075A000FDF76DBCBDE8F05F02F0B6BCBDE8F09F32
:1075B000D027002004150140001001402DE9F041C2
:1075C00017880646B81D14460D46984202D90C206D
:1075D000BDE8F0813188072206290AD34FF4486CB0
:1075E0004FF6FF73614501D9994202D17088062890
:1075F00001D21046ECE7604501D99842F9D1994291
:1076000003D0984201D08142F3D80520E855208864
:107610001221401C80B2208029542088401C80B256
:1076200020804119308803F096FC2188084480B2FC
:1076300020804119708803F08EFC21880844208046
:107640000020C5E7FEF7C4BD38B54A7A0F4B62B1DA
:1076500000220A725969002906D001228DF8002003
:10766000ADF802006846884738BD0A7A62B19B6867
:107670004C68024619462046FEF71AFE0028F3D051
:10768000BDE8384002F02CBE5B68F1E75C340020B6
:107690004FF47A71484300F0C7BE00000E4910B5A0
:1076A0000A784C780023A24212D0521CD2B20A703F
:1076B000022A00D10B70084A0B780C3252F82320B2
:1076C00002608868104420F07F408860012010BD6F
:1076D0000360002010BD0000D027002030B5044614
:1076E000006885B00D46806800281CD014216846CB
:1076F000FBF78DFE0195A0680490207910B1012858
:107700000DD104E001208DF80000206904E0022082
:107710008DF80000E0680003029060690390206823
:1077200081686846884705B030BD826883881A4002
:1077300003689A5C0A708168491C81607047C2685E
:1077400083881A4003689954C168491CC160704716
:1077500070B505460C4610EE100AFCF755F841ECE2
:10776000100B0DA153EC102B2046FEF74BF8062D05
:107770000FDA2046FBF768FE0219521E501900214D
:10778000801F01E002F80119824202D91378302BE0
:10779000F8D0204670BD0000252E3666000000009F
:1077A00010B5002821D0114B0022001F196803E0FA
:1077B000814203D80A4649680029F9D152B11368B9
:1077C000841A9C4204D1006818441060104602E0FC
:1077D000506000E0186039B102680B1A934203D17F
:1077E0000B681A4402604968416010BD58280020A7
:1077F00000B58FB09DF8300020F00F00401C20F045
:10780000F00010308DF8300002A86DDF08B1FEF7EF
:10781000DFFC9DF809109DF80A00CDE900019DF8F4
:107820000B3013A215A104A8FDF7ECFF04A8FBF789
:107830000BFE82B204A90CA87CDF08B1FEF7C8FCDD
:1078400000200D900E901021ADF83800ADF83410E6
:107850004FF4C8703C21ADF83A00ADF836100DA8D1
:107860007ADF002801D0FEF7B3FC0FB000BD0000A6
:1078700069547261636B65720000000025732D25E9
:107880003032583A253032583A253032580000000C
:107890000B484A8843889A4211D10A88A2F520638E
:1078A000773B0CD18988C91E8AB2828005480321A2
:1078B0001346008801EB004003A101F060BD704752
:1078C00060270020D028002044617461206C656E20
:1078D0002069732073657420746F203078255828D0
:1078E0002564290010B50949094800F092FC08B147
:1078F000FEF76EFC4021064800F07FFC002803D014
:10790000BDE81040FEF764BC10BD00009178020095
:107910001C2D002002480068D0F80405C00B7047F9
:1079200094B102000146034802888A4200D0002038
:1079300070470000483400202DE9FC5F0E008346AC
:10794000DDE90C47C6F1000098469246814600D416
:107950000846012503E000BF90FBFAF06D1C50457E
:10796000FADAA84500D9454624B1002E01DB780794
:1079700000D5641EB80702D5B8F1000F0AD0F80789
:1079800008D13CB1A54205D220215846641EFFF71C
:1079900089FDF6E7002E02DA4E462D2102E0780737
:1079A00003D52B215846FFF77DFD07F00300022881
:1079B0000BD1B8F1000F08D13CB1A54205D230215E
:1079C0005846641EFFF76EFDF6E7CDE900474346D3
:1079D00052463146584603F0C3FABDE8FC9F00000A
:1079E00070B50E460446007918494FF4A27501EBB4
:1079F0004010017F2068A1B14FF4887102F0A3F814
:107A00004FF49071206802F09EF84FF49271206854
:107A100002F099F82946206802F095F80C49206890
:107A200009E04FF48E7102F07DF82946206802F0DB
:107A300079F808492068C0F80413206800F0E1FDD7
:107A40003146BDE8704000F0C0BD00009C3500200C
:107A500010030200800002007FB50C46054691F835
:107A6000211094F82000CDE9000104F12602D11E76
:107A70002846E36902F082FF002823D194F823000E
:107A800008BB207B022801D003281CD12269E169B0
:107A9000914218D16269E261E37B84F82030217E53
:107AA0000328C1F3401184F8211006D004B0294600
:107AB0002046BDE8704002F0EABE0091294620460B
:107AC00002F0E1FF7FBD04F10C0001AB07C883E8C1
:107AD000070094F82300002168B1D5F8C404C5F864
:107AE000C404820701D5012002E0400705D5022029
:107AF0008DF8000001E08DF8001084F82410207E3D
:107B00004007DFD4D4E90021684690477FBDF0B537
:107B10008488A518944200D82246A41AC288D61890
:107B20009A4200D81346D21A4B880788BB420CD31E
:107B30004088834209D88888A04206D3A84204D846
:107B4000C888904201D3B04201D90020F0BD012085
:107B5000F0BD00000A4810B5807860B1002401E053
:107B6000022C06D02046FFF7C3FA641C042CF7D37E
:107B700010BD0324F6E7BDE81040FFF7D9BA0000B6
:107B8000A827002006490120086006480168C1F3C3
:107B900000410029FAD10449002088707047000094
:107BA0000C0000401804004030350020F72101800F
:107BB00017214180002101714171FB2181711B213D
:107BC000C17170472DE9F047394E002780463D4688
:107BD000DFF8E090D6F804A057E003D00446D0F8D0
:107BE0001C8035E099F8002002EB4201521CD2B211
:107BF00089F8002009EBC10199F80230091D9A4269
:107C000001D189F8005048680A780446012A12D048
:107C1000022A02D0032A3BD108E002F09BFD00B10A
:107C20000127257434E00574C06900E070680028FD
:107C3000F9D170602CE0207C50BB88686060C86817
:107C4000A0600869E0604869A061F07800B16560F3
:107C50006268B168184B501A20F07F40984202D2F7
:107C6000A168084406E0881AA16820F07F4081429C
:107C700002D9081A206000E0256065600120A56037
:107C800020742046E56102F047FDB8F10000A4D160
:107C900099F8001099F801008142A3D117B97168D1
:107CA000514502D00120BDE8F0870020FBE700002D
:107CB000D027002008360020FFFF7F00014604285F
:107CC0000ED005DC012909D0022800D106A070479A
:107CD000082907D01028FAD105A0704706A07047E0
:107CE00007A0704708A070475741524E000000009F
:107CF00054524143450000004552524F520000008B
:107D0000494E464F000000004445425547000000E0
:107D10002DE9FE43214DD5E9014704EA070005EBB3
:107D2000800605F583600C3600F006FA05F2144073
:107D3000804600F001FA0AE0C0F3891101EB90508F
:107D4000641C044404EA070005EB80060C36306826
:107D50008107F1D00020694604EA070205EB8202A0
:107D6000641CD26841F82020401C0228F4D30098FB
:107D700000F00300022800980AD0C0F383100444E6
:107D8000404600F0D3F9002800D06C60BDE8FE83C7
:107D9000032101EB905004EB9004F1E7B838002088
:107DA000A8B0FEF75BFA08B1FEF712FA002001F066
:107DB00045FB08B1FEF70CFA01F0F2F901F0E0FD25
:107DC00008B1FEF705FA002469460120009401F08D
:107DD0007BFC08B1FEF7FCF9684601F021FD08B113
:107DE000FEF7F6F9FFF704FDFFF77CFD3A48009037
:107DF00069463A48FFF7E8F808B1FEF7E9F9A0212B
:107E00006846FBF704FB02208DF800008DF8024065
:107E100005208DF803000120ADF84C008DF87C00A2
:107E200040202F4922901491B42023902D48269071
:107E30002A4869463030FEF7BBFC08B1FEF7C8F9A6
:107E4000264801213030FEF7B0FC1C216846FBF7C4
:107E5000DEFA4FF42030CDE900404FF4702002905C
:107E600003208DF80C002048059020480690ADF8BE
:107E70000E408DF810406846FEF768FE08B1FEF728
:107E8000A7F902F067F80420FFF718FF0546FFF78F
:107E900041FD02462B4616A10020FDF7ABF817A1C5
:107EA0000020FDF7A7F8FCF783F902F021FB0B484F
:107EB00003213030FEF764FD08B1FEF789F9084D63
:107EC000AD1F3EDF08B1FEF783F968780028F8D0CF
:107ED0006C7002F00DFAF4E7559B0200002D0020B3
:107EE00066270020319C0200559C02004576020066
:107EF0005B25645D205B25735D3A200069547261E7
:107F0000636B6572205374617274210D0A00000066
:107F1000F0B50B30154D20F007010024144A0FE096
:107F200003688B420BD38B4205D95E1A431847680E
:107F3000C3E9006700E04368136002C004E0021D6B
:107F400010680028ECD12046002802D1286808B12A
:107F50000020F0BD064A07481060074A121A22F0B6
:107F60000702C0E9002401202860D7E75C28002030
:107F700058280020643F0020605F002070B5144640
:107F800082880E4605462088111D0144921C9942A4
:107F900001D8FE2A01D90C2070BD521C3254208811
:107FA000FF21401C80B2208031542088401C80B2C8
:107FB00020808119288802F0CEFF2188084480B2F1
:107FC0002080AA8842B1A96841B13044FBF706FA83
:107FD0002088A98808442080002070BD072070BD3B
:107FE0002DE9F047C7880446181D16468946B0FBA0
:107FF000F7F1B0FBF7F207FB12009A193A44D21CD2
:10800000B2FBF7F2DDF820A001E02468491E002948
:10801000FBD13D1A8846B54216D818E0BAF1000FD8
:1080200005D0211809EB08002A46091D04E0204468
:1080300009EB08012A46001DFBF7D0F9002024684F
:10804000761BA844B74201D9354600E03D46002ED4
:10805000E4D1BDE8F087000030B50B46024601F0E0
:108060001BFA63B10021094C0CE000BF01EB410396
:1080700004EB830315685B88AB4202D111600020DA
:1080800030BD491C8142F1D3052030BD6428002059
:10809000F8B50E46017814460546012901D16878E5
:1080A00030B12088821C9A422DD8012902D006E0E6
:1080B0000720F8BD69780144891C994223D8181A11
:1080C000801E87B2ADF800702188B01C0844694654
:1080D0007DDF0028EDD12878022805D1BDF80010F9
:1080E000B94201D809210AE00821012805D16878A0
:1080F000B84202D8ADF8000001E0ADF80070BDF85C
:108100000000FE2801D90C20F8BD2288401CB05484
:108110002088401C80B2208031542088401C208060
:10812000BDF80010084420800020F8BD08B50021EB
:108130006A46FBF7D6F808BD08B501216A46FBF789
:10814000C3F8009808BD38B5044600258DF80050E6
:108150006846FEF79BF921686268086890420ED96C
:10816000401E08600178238AE26801FB0325227A19
:108170002168101AC0B20A79824200D208719DF8B3
:108180000000FEF7A7F9284638BD38B5054600209F
:108190008DF800000C466846FEF778F9E868298AF1
:1081A000201AB0FBF1F12A681068431C13600170BB
:1081B0009DF80000FEF78EF938BD10B530B1017A98
:1081C00042680368891AC9B21A6006E00E2010BD21
:1081D00003681A68541C1C601170491EC9B2F7D29A
:1081E000006800210171084610BDC20800F00703B5
:1081F0000120895C98400840704728B1A1F117021E
:10820000E12A03D3072070470E2070470180002029
:10821000704710B560B10161F72120F8021B20F80A
:10822000021BFB2100F8021BFFF7C0FC002010BD61
:108230000E2010BD2DE9F043858895B00C46002D29
:108240003DD10188DFF824810026DFF82491012741
:1082500024293CD006DC102909D011290CD023296F
:108260006DD150E03A290BD0552968D12AE001465A
:10827000204601F0FDFC62E0A01DFFF797FC5EE0E8
:108280002246408934F8061F814200D808466080A3
:10829000172800D217206080106970B1607960B132
:1082A000D8E90010CDE90310ADF80E506088ADF8A4
:1082B0001000136903A9104698476671267115B01E
:1082C000BDE8F0830146204601F020FD37E0011DA6
:1082D000342206A8FBF782F8BDF81800BDF81C2070
:1082E00004EBC0014A7322694AB3D8E90432CDE9EC
:1082F0000432ADF81200487B8DF814002269204644
:1083000004A990471BE00496059630F8041F04EB7F
:10831000C1020179127B8A4200D21146ADF81010D9
:10832000ADF812100088002204A990DF020006D0E8
:10833000B9F800000F4907EB004001F019F8A07AE6
:108340000028BCD0E18828469EDF02000BD0112A0D
:10835000B5D0B9F8000015B007EB0040BDE8F04318
:10836000054901F005B8A672E772A8E718B2020045
:108370006428002074B60200ECB5020000F18040D1
:108380000068002800D00120704708B500F1804047
:10839000002101600068009008BD000000283ED068
:1083A0001F49204A096800BF00BF00BF00BF00BFCF
:1083B00000BF00BF00BF91422FD000BF00BF00BF71
:1083C00000BF00BF00BF00BF00BF00BF00BF00BFB5
:1083D00000BF00BF00BF00BF00BF00BF00BF00BFA5
:1083E00000BF00BF00BF00BF00BF00BF00BF00BF95
:1083F00000BF00BF00BF00BF00BF00BF00BF00BF85
:1084000000BF00BF00BF00BF00BF00BF00BF00BF74
:1084100000BF00BF00BF00BF00BF0138C3D170471D
:10842000542800200024F40000283ED01F49204A90
:10843000096800BF00BF00BF00BF00BF00BF00BF92
:1084400000BF91422FD000BF00BF00BF00BF00BFE0
:1084500000BF00BF00BF00BF00BF00BF00BF00BF24
:1084600000BF00BF00BF00BF00BF00BF00BF00BF14
:1084700000BF00BF00BF00BF00BF00BF00BF00BF04
:1084800000BF00BF00BF00BF00BF00BF00BF00BFF4
:1084900000BF00BF00BF00BF00BF00BF00BF00BFE4
:1084A00000BF00BF00BF0138C3D17047542800206F
:1084B0000024F40000283ED01F49204A096800BF6C
:1084C00000BF00BF00BF00BF00BF00BF00BF9142A0
:1084D0002FD000BF00BF00BF00BF00BF00BF00BF64
:1084E00000BF00BF00BF00BF00BF00BF00BF00BF94
:1084F00000BF00BF00BF00BF00BF00BF00BF00BF84
:1085000000BF00BF00BF00BF00BF00BF00BF00BF73
:1085100000BF00BF00BF00BF00BF00BF00BF00BF63
:1085200000BF00BF00BF00BF00BF00BF00BF00BF53
:1085300000BF0138C3D17047542800200024F40044
:1085400070B50F4C0025207808B1852516E0002174
:10855000A16061602161E1604FF0E020D0F800018E
:10856000012610F0010F03D10721002000F02DF8A3
:1085700001F044FA08B9034806602670284670BD29
:10858000303500201805004008B500208DF80000A7
:108590006846FDF77BFF0648C168491EC160C06898
:1085A00008B9FFF7EFFA9DF80000FDF793FF08BD4B
:1085B0003035002000F01F02012191404009800069
:1085C00000F1E020C0F8801170474907090E00282B
:1085D00006DA00F00F0202F1E02282F8141D03E037
:1085E00000F1E02282F8001400F01F020121914006
:1085F0004009800000F1E020C0F88012C0F80011AE
:108600007047000B40B270470121B1EB507F01D1A0
:108610000120704700207047016801220A604079FC
:10862000024A00EB4000022111547047C827002085
:1086300070B50D4604465AB1607914490E1F41F8D1
:108640002020607900EB4000305C18B1082070BD3C
:10865000072070BDA97894F90400FFF7B6FF2068E1
:108660002988C0F808156179287901EB4101314466
:1086700048706179E87801EB410131448870617993
:10868000012001EB41017054002070BDCC27002077
:108690002DE9F0479146884604464FF480354FF463
:1086A000A0760027DFF884A016E000BFD4F804030A
:1086B00028420DD0A05958B1C4F84853C4F8085303
:1086C0003146204600F0F0FF5AF82810F8B28847EB
:1086D000361D6D00B6B27F1C4F45E7D3D4F80403B6
:1086E0004FF4807110F0010F09D0D4F8000130B1BF
:1086F000204600F0D9FF5AF8281004208847D4F803
:1087000004034FF4827110F0020F0CD0D4F804016E
:10871000002808D0204600F0C7FF5AF82810BDE80E
:10872000F04705200847BDE8F0870000CC2700206F
:1087300070B50E4605464FF482710224006800F0C1
:10874000B3FF2868C0F84443002E02D02868C0F860
:10875000044370BD70B50E4605464FF48071012488
:10876000006800F0A1FF2868C0F84443002E02D042
:108770002868C0F8044370BD2DE9F0410546007932
:10878000164F904607EB40140E46E07E10B10820CD
:10879000BDE8F081707F20772846FDF7B5FE5FEADF
:1087A000080060603169216003D0317F2846FFF7FF
:1087B00017F9287907EB4010007F0028286801D0BE
:1087C000082100E00421C0F800150020E0752076A3
:1087D000A0750121E176A076DAE700009C35002043
:1087E0002DE9F04105460079284E904606EB4014ED
:1087F0000F46207F18B10846FFF706FF80B1626878
:1088000000234FF404704FF4017172B12A7906EB22
:108810004212127F002A2A6805D0C2F8080304E039
:108820001020BDE8F081C2F80813E27DB2B1227ECB
:108830007AB162685AB12A7906EB4212127F1AB1F4
:108840002968C1F8040302E02868C0F80413112065
:10885000E7E72761012384F8188005E084F8178092
:108860000020E760607620762879424606EB4010CB
:108870003946007F0028284603D0BDE8F04100F0CB
:1088800073B8BDE8F04100F01BB800009C35002033
:1088900070B504460079094D05EB4010017F0029B1
:1088A0000AD1807E002807D1204601F0F0FB217913
:1088B000012005EB4111887670BD00009C35002039
:1088C0002DE9F05F04460079264901EB4015A87EAA
:1088D000184302D1204601F0DAFB686800282068BE
:1088E00006D04FF40171C0F804130020BDE8F09FDA
:1088F0004FF4A276314601F015F9B1464FF4927A61
:108900004FF4847B5146206801F007F9064659462A
:10891000206801F002F980464946206801F0FDF820
:10892000074648EA07003043ECD056EA070007D173
:108930002946206801F035FBE87D697E8842E1D850
:108940000020E8750EB10320D0E70FB10F20CDE76E
:10895000A97E01200029216801D00860C5E7486090
:10896000C3E700009C3500202DE9F05F89460446EE
:108970004FF488759A46904600260068294601F013
:10898000E2F84FF4A2773946206801F0DCF820685D
:10899000C0F83495C0F838852068BAF1000F14D0BB
:1089A000D0F8001241F02001C0F800122179DFF860
:1089B000648008EB4110406850B120684FF40471A6
:1089C000C0F804133046BDE8F09F01210160EDE7D7
:1089D000AA46B9464FF4927B5146206801F0AEF8A2
:1089E00007464946206801F0A9F80546594620681F
:1089F00001F0A4F8014647EA05000843ECD02379CA
:108A0000002208EB4310C27501B10326002DD9D016
:108A10000F26D7E79C3500202DE9F0470546007961
:108A20003F4E904606EB40140F46207F18B1084693
:108A3000FFF7EAFD30B1284600F074F820B11120AC
:108A4000BDE8F0871020FBE784F81680A7600027B8
:108A5000A78228794FF0010806EB40143E46207F9C
:108A60000028286825D04FF49079494601F06BF82A
:108A70004FF4AC7A5146286801F065F82868A17D6A
:108A8000A268C0F84425C0F848152868C0F80880D6
:108A90006068F0B94946286801F050F880465146B0
:108AA000286801F04BF858EA0001F3D058BBA775CD
:108AB0000FE04FF48E7A514601F034F82868C0F880
:108AC00008802146286802F046F861684FF48070FB
:108AD00089B13046B4E75146286801F01EF810B954
